:020000040800F2
:100000000050002055000008D9010008DB0100085D
:1000100000000000000000000000000000000000E0
:1000200000000000000000000000000000000000D0
:10003000000000000000000000000000DD010008DA
:1000400000000000000000000000000000000000B0
:10005000000000006948016841F4803101600168D6
:1000600011F40031FBD0016841F4003101606448B3
:100070004FF0320101606348016841F4EA1141F434
:10008000806101605D48016841F080710160016834
:1000900011F00071FBD05B48016841F4EA1141F4B2
:1000A000806141F002010160574844F2140101608F
:1000B0005648016841F0405121F0404101605448E8
:1000C000016841F0300141F0800121F04001016000
:1000D000504840F2712101604F4842F20C0101602A
:1000E0004E4842F2283101604D484FF00301016053
:1000F0004C4880F309884FF0030080F314884FF0D8
:100100000001494801604948016049480160494887
:100110000160494801604448016811F0020FFAD0BB
:1001200046484FF00001016000F03BF84FF04800F6
:1001300000F02DF84FF0650000F029F84FF06C004A
:1001400000F025F84FF06C0000F021F84FF06F0040
:1001500000F01DF84FF0200000F019F84FF0770084
:1001600000F015F84FF06F0000F011F84FF072003A
:1001700000F00DF84FF06C0000F009F84FF064004B
:1001800000F005F84FF00A0000F001F8C3E70FB4E3
:100190002B4A10602B4A126812F0400FFAD00FBCA5
:1001A00070470FB42048016811F0010F09D02648AC
:1001B0004FF0000101602548016841F080010160B5
:1001C00008E021484FF0010101602148016841F039
:1001D000800101600FBC7047704770471648016886
:1001E00001F101010160B1F5FA7F06D34FF0000182
:1001F000016012484FF00101016070470010024099
:10020000002002400410024018100240001001407B
:1002100004080140083801400C38014014E000E0B7
:1002200010E000E0004E0020000200200402002048
:10023000080200200C0200201002002004400022CE
:1002400004380140003801400040002214100140F1
:040250001010014049
:04000005080000559A
:00000001FF
