:020000040800F2
:10000000E016002005010008DB200008CD010008F3
:10001000D9200008C3050008892700080000000057
:1000200000000000000000000000000017010008B0
:100030002906000800000000570100085D220008A2
:100040001F0100081F0100081F0100081F01000810
:100050001F0100081F0100081F0100081F01000800
:100060001F0100081F0100081F0100081F010008F0
:100070001F0100081F010008F90500080506000817
:10008000110600081D0600081F0100081F010008D6
:100090001F0100081F0100081F0100081F010008C0
:1000A0001F0100081F0100081F0100081F010008B0
:1000B00039230008452300081F0100081F0100081C
:1000C0001F0100081F0100081F0100081F01000890
:1000D0001F0100087D2700081F0100081F010008FC
:1000E0001F0100081F0100081F010008DFF810D0E1
:1000F00000F006F90048004725030008AFF3008030
:10010000E01600200648804706480047FEE7FEE765
:10011000FEE7FEE7FEE7FEE7FEE7FEE7FEE7FEE7B7
:1001200035230008ED000008EFF3108072B6704729
:1001300080F310887047324A1368012B04D04FF0C7
:10014000010313602F4A10602F4A11602F484FF0AF
:10015000805101607047EFF3108272B62848016841
:1001600091B14FF0000101602648016829B1EFF319
:10017000098121E9F00F00680160234909680968D5
:10018000B1E8F00F81F3098882F310884EF0040E75
:1001900070471D4908601B494FF00000086018496E
:1001A0004FF0010008601A481A49D0F8002041EACF
:1001B0000201016015484FF0805101601648006847
:1001C000006880F3088861B662B670471EF0040FBD
:1001D0000CBFEFF30880EFF3098020E9F00F40F83F
:1001E00004ED1EF0040F0CBF80F3088880F309882B
:1001F00000B503F0C5FC5DF804EB4EF0040E70474B
:1002000078000020700000207400002004ED00E061
:1002100020ED00E00000FFFF08ED00E040EA0103F0
:100220009B0703D009E008C9121F08C0042AFAD2AC
:1002300003E011F8013B00F8013B521EF9D2704770
:10024000D2B201E000F8012B491EFBD27047002218
:10025000F6E710B513460A4604461946FFF7F0FFC5
:10026000204610BD421E12F8013F002BFBD111F8B1
:10027000013B02F8013B002BF9D1704710B5044651
:1002800004E00B7800F8013B03B1491C521EF8D280
:10029000204610BD421C10F8011B0029FBD1801A1A
:1002A0007047034611F8012B00F8012B002AF9D101
:1002B0001846704730B505460020034600E05B1C39
:1002C000934205D2EC5CC85C201A01D1002CF6D117
:1002D00030BD30B50B46014600202022012409E044
:1002E00021FA02F59D4205D303FA02F5491B04FAEF
:1002F00002F52844151EA2F10102F1DC30BD000018
:10030000064C074D06E0E06840F0010394E8070062
:1003100098471034AC42F6D3FFF7ECFE28500008A3
:100320004850000810B504F0FBFA002010BD10B5CD
:1003300001F0DCFC01F0C2FC702000F01DF901F0BE
:10034000CDFEA82000F018F901F0C8FE002000F052
:1003500013F901F0C3FE002000F00EF901F0BEFE1B
:1003600001F06AFF0A2000F060F901F0A7FC70209C
:1003700000F002F901F0B2FEBE2000F0FDF801F03D
:10038000ADFE082000F0F8F801F0A8FE002000F013
:10039000F3F801F0A3FE01F04FFFBDE810400A2082
:1003A00000F043B92DE9F041002501F0C5FE01F050
:1003B000CBFE082001F036FF00240F4F01F0B4FE01
:1003C00000F04DF900268021384600F0A9FB00B16D
:1003D000012646EA4500C5B201F0AEFE00F03FF945
:1003E000641CE4B2082CE9D301F0AEFE082001F051
:1003F00019FF2846BDE8F081000C01402DE9F041CD
:100400008AB0002406468DF81C408DF820408DF8F7
:1004100010408DF80C408DF818408DF814408DF880
:100420001C40274625460194029400F08AF850208B
:1004300000F0FBF840F2E45807E0404601F0F2FE1D
:1004400028466D1CADB2642803D200F069F800069E
:10045000F3D401F033FC712000F08EF801F03EFE81
:10046000FFF7A0FF8DF81C008DF8040001F0A2FE3C
:10047000FFF798FF8DF820008DF8050001F09AFE37
:10048000FFF790FF8DF810008DF8060001F092FE46
:10049000FFF788FF8DF80C008DF8070001F08AFE49
:1004A000FFF780FF8DF818008DF8080001F082FE3C
:1004B000FFF778FF8DF814008DF8090001F07AFE3F
:1004C000FFF770FF8DF81C0001F090FE01F0B4FE04
:1004D000062101A800F076F89DF81C1088421CD176
:1004E0009DF820009DF81010074341EA07209DF871
:1004F0000C1041EA0020000930609DF80C009DF8C6
:10050000181041EA00209DF8141041EA0020C0F3C1
:10051000130070600AB0BDE8F08134607460F9E7E0
:1005200010B501F0CBFB712000F026F801F0D6FDEC
:10053000FFF738FF044601F059FE01F07DFE20462A
:1005400010BD10B501F0BAFB702000F015F801F0F5
:10055000C5FDAC2000F010F801F0C0FD332000F024
:100560000BF801F0BBFD002000F006F801F0B6FD2D
:10057000BDE8104001F060BE70B50546802600243D
:1005800001F0DAFD00F05CF82E4202D001F0EAFD45
:1005900001E001F0FBFD01F0C7FD00F051F8680635
:1005A000641C050EE4B2082CEAD301F0C5FD082056
:1005B00001F038FE01F0C8FDBDE87040082001F0F0
:1005C00031BEFEE770B50446FF20002231250FE062
:1005D000A35C58400823060602D585EA400000E0E7
:1005E00040005B1EC0B213F0FF03F4D1521CD2B224
:1005F0008A42EDD370BD0000014800F0B7B800009A
:10060000F4050020014800F0B1B80000B00500205A
:10061000014800F0ABB8000098040020014800F049
:10062000A5B8000054040020704710B503464FF4ED
:100630007A7402E0204601F0F5FD5B1EFAD210BD8F
:1006400000B5012000F01DF8012000F01AF801208B
:1006500000F017F801205DF804EB00F012B800B5C7
:10066000012000F00EF8012000F00BF8012000F04E
:1006700008F8012000F005F801205DF804EBAFF365
:100680000080401EFDD2704772B6FEE710B590F8AC
:1006900021100022022905D00421816380F8202046
:1006A000012010BD01680B6823F00E030B60016888
:1006B0000B6823F001030B6090F84030C46B0121FC
:1006C00001FA03F3636080F8211080F820201046BF
:1006D00010BD000010B590F821100024022903D0AD
:1006E0000421816301243DE001680A6822F00E02C2
:1006F0000A6001680A6822F001020A601A4A016869
:10070000914201D1012121E0174A1432914201D1D5
:1007100010211BE0144A2832914201D1891515E0BD
:10072000114A3C32914201D189140FE00E4A5032F5
:10073000914202D14FF4803108E00B4A6432914279
:1007400002D14FF4801101E04FF08071064A083A5F
:100750005160012180F82110002180F82010416BA8
:1007600001B18847204610BD080002402DE9F05F26
:10077000C16B0C6801680B68D0F840C0042202FA13
:100780000CF2494DDFF824A1494E4A4FDFF828B159
:10079000DFF828E122422CD05A072AD50A689206AF
:1007A00003D40A6822F004020A600168A94201D158
:1007B000042219E0514501D1402215E0B14202D195
:1007C0004FF4806210E0B94202D14FF480420BE056
:1007D000594502D14FF4802206E0714502D14FF411
:1007E000800201E04FF080622F4908394A60C16AF7
:1007F0003BE04FF0020808FA0CF818EA040F4FF03B
:1008000000094FF0010235D05FEA837832D50B68DA
:100810009B0605D40B6823F00A030B6080F82120A7
:100820000168A94201D1022219E0514501D12022DB
:1008300015E0B14202D14FF4007210E0B94202D18A
:100840004FF400520BE0594502D14FF4003206E05C
:10085000714502D14FF4001201E04FF000721249CD
:1008600008394A6080F82090816A00291AD0BDE8D2
:10087000F05F0847082505FA0CF5254212D01B0742
:1008800010D50B6823F00E030B6090F84010C36B7B
:1008900002FA01F15960826380F8212080F82090EB
:1008A000016BE2E7BDE8F09F080002401C00024037
:1008B0003000024044000240580002406C000240F8
:1008C00030B528B308C8134914221944B1FBF2F11A
:1008D0008900C16310498163022141771A6843F698
:1008E000F0718A43D0E900142143D0E902452C433A
:1008F000214304692143446921438469214311430D
:10090000196000214163012242770177084630BD1A
:10091000012030BDF8FFFDBF0000024070B5044665
:1009200000F010F90546601C02D004480078044429
:1009300000F008F9401BA042FAD370BD040000206B
:100940002DE9F84FDFF8B891002409F1040A0AF103
:10095000040B23460F270BF1040EC9E00125A54027
:100960002A40AA427DD1674ED1F804C0ACEB0608FC
:10097000B44532D014DCBCF1030F3AD009DCBCF131
:10098000000F2AD0BCF1010F1CD0BCF1020F31D1F5
:100990001DE0BCF1110F17D0BCF1120F2AD119E0E4
:1009A000B8F5881F19D006DCB8F5803F15D0B8F52A
:1009B000801F1FD111E0B8F5001F0ED0B8F5041F3D
:1009C00018D10AE0CB6815E0CB681B1D12E0CB689C
:1009D00008330FE0CB680C330CE08B682BB1012B94
:1009E0004FF0080303D0456104E0042302E00561F1
:1009F00000E00023FF2A01D8064601E000F10406CA
:100A00004FEA840501D9A5F12005D6F8008007FA40
:100A100005FC28EA0C0803FA05F548EA0508C6F8BB
:100A200000804D68ED0062D5374DAE6946F0010695
:100A3000AE61AD6924F0030605F001050095334D64
:100A400006EB050CDCF80850A607360F07FA06F887
:100A500025EA0805DFF8B880404503D14FF00008CB
:100A600017E044E0DFF8AC80404502D14FF00108C8
:100A70000FE0DFF8A480404502D14FF0020808E003
:100A8000DFF89880404502D14FF0030801E04FF0B5
:100A9000040808FA06F848EA0508CCF808804D680A
:100AA000D9F80060ED034D4601D5164300E09643AA
:100AB0002E604D68DAF80060AD03554601D5164347
:100AC00000E096432E604D68DBF80060ED025D4665
:100AD00001D5164300E096432E604D68DEF80060B5
:100AE000AD02754601D5164300E096432E60641CA6
:100AF0000D682A46E5407FF431AFBDE8F88F00006D
:100B000000040140000011100010024000000140EC
:100B100000080140000C0140001001400014014099
:100B20008068084000D001207047C26821EA0203B3
:100B30000A4043EA0241016170470AB1016170470E
:100B40000904FBE7014880687047000004000020AA
:100B500070B5040025D094F83D00002520B984F834
:100B60003C50204600F0B8F8242084F83D0020686E
:100B7000016821F0010101602068016841F4004131
:100B800001602068016821F40041016000F02CFA46
:100B90004D4A6168914201D84C4900E04C49884275
:100BA00001D2012070BD4B492368B0FBF1F15E68B2
:100BB00026F03F060E435E606368934206D94FF409
:100BC000967359434FF47A73B1FBF3F12368491CD0
:100BD0001E6A26F03F06314319626168914210D8BF
:100BE0004900401EB0FBF1F2521CC2F30B02042A72
:100BF00001D2042022E0B0FBF1F0401CC0F30B0056
:100C00001CE0A268F2B301EBC10303EB0116431E23
:100C1000B3FBF6F35B1C43F480431B0549D092B34E
:100C200001EBC10202EB0111401EB0FBF1F0401CD0
:100C3000C0F30B0040F4804040F400402168CA69D2
:100C40004CF6FF739A431043C861D4E9071001437F
:100C50002068026822F0C00211430160D4E9030158
:100C600001432068826848F2FF339A431143816050
:100C7000D4E9050108432168CA6822F0FF02104345
:100C8000C86001E00EE016E02068016841F0010153
:100C900001602564202084F83D00256384F83E50DF
:100CA000002070BD01EB4106431EB3FBF6F35B1C55
:100CB000B3E70120C2E701EB4101401EB0FBF1F0B8
:100CC000401CC0F30B00B7E7A086010080841E0023
:100CD00000093D0040420F00F0B585B000240646F3
:100CE000009401940294039400682449884242D1FC
:100CF000234DA86940F00800A861A869694600F082
:100D000008000490C020009012200190032003905E
:100D10001C48FFF715FEE86940F40010E861E86937
:100D20001A4D00F4001004901748C5E9000480270C
:100D3000C5E902472C616C61AC612846EC61FFF7A4
:100D4000BFFD08B1FFF7A0FCB5636E620F4D0E4802
:100D50004435143801C5102091C50C4845F8104998
:100D600044306C61AC61EC61FFF7AAFD08B1FFF79C
:100D70008BFC75636E6205B0F0BD0000005400404E
:100D800000100240000C014080000240540400208A
:100D9000074810B5016841F010010160032000F020
:100DA00075F8002000F006F800F024F8002010BDCF
:100DB0000020024070B50D4D04464FF47A7128783A
:100DC000B1FBF0F00A490968B1FBF0F000F0F2FA6B
:100DD00048B9102C07D200222146501E00F036F8E8
:100DE00000206C6070BD012070BD00000400002078
:100DF000100000200C4808B5816941F001018161B3
:100E0000816901F001010091C16941F08051C16126
:100E1000C06900F0805000900448416821F0E06112
:100E200041F00071416008BD001002400000014027
:100E3000002809DB00F01F020121914040098000D9
:100E400000F1E020C0F8001170470000F0B40E4B34
:100E50001B680C46C3F30223C3F10705042D00D918
:100E60000425191D072901D2002300E0DB1E0126FD
:100E700006FA05F1491E214099409E40761E164013
:100E80003143F0BC01F092BC0CED00E0064900F0EB
:100E9000070208684FF6FF03184040EA0220034AA1
:100EA00010430860704700000CED00E00000FA05F8
:100EB0002DE9F0470F46050061D0434E306800F041
:100EC0000700B84209D2306820F00700384330608C
:100ED000306800F00700B84251D128683B4C8107C8
:100EE00012D5400703D5606840F4E0606060287860
:100EF000000703D5606840F4605060606068A968CE
:100F000020F0F000084360602878C00728D06868A7
:100F1000012810D02168022810D0890700292EDA74
:100F2000616821F0030101436160FFF70BFE804619
:100F300041F288390DE021688903EFE78901EDE787
:100F4000FFF700FEA0EB0801494502D90320BDE8E8
:100F5000F0876068696800F00C00B0EB810FEFD19A
:100F6000306800F00700B8420BD9306820F0070065
:100F700038433060306800F00700B84201D00120EB
:100F8000E5E72878400705D56068E96820F4E06067
:100F9000084360602878000706D56068296920F456
:100FA000605040EAC100606000F03EF86168084AA5
:100FB000C1F30311515CC840064908600648006847
:100FC000FFF7F8FE0020C2E70020024000100240B8
:100FD000624C000810000020080000200148006852
:100FE0007047000010000020044805490068496867
:100FF000044AC1F30221515CC84070471000002030
:1010000000100240724C0008044805490068496815
:10101000044AC1F3C221515CC8407047100000204F
:1010200000100240724C000812A185B00FC98DE873
:101030000F0014A0144A006804905168134801F08E
:101040000C03042B10D0082B0ED1C1F38343C9032A
:101050001DF803000AD5516804AAC1F34041515C50
:101060000A4A5043B0FBF1F005B0704708494843C5
:10107000FAE7000002030405060708090A0B0C0D35
:101080000E0F1010010200000010024000127A0042
:1010900000093D002DE9F84F040070D02078C04DC4
:1010A000C00749D06868C0F38100012807D068688C
:1010B000C0F38100022809D16868C00306D52868FA
:1010C000800339D560680028E7D035E06068B0F566
:1010D000803F0BD010B1B0F5A02F11D0286820F4BC
:1010E00080302860286820F4802002E0286840F4DE
:1010F00080302860606890B1FFF724FD06460AE062
:10110000286840F480202860F0E700BFFFF71AFD50
:10111000801B642873D828688003F7D50CE0FFF79C
:1011200011FD064605E000BFFFF70CFD801B64289B
:10113000F0D828688003F7D420789A4E80074FF0C3
:1011400001094FF0000839D5686810F00C0F07D07E
:101150006868C0F38100022809D16868C00306D41A
:101160002868800714D52069012808D110E020697B
:10117000B0B1C6F80090FFF7E5FC074605E00AE1CC
:10118000FFF7E0FCC01B0228C4D828688007F7D509
:101190002868616920F0F80040EAC10028600DE08D
:1011A000C6F80080FFF7CEFC074604E0FFF7CAFC54
:1011B000C01B022823D828688007F7D420780007AE
:1011C0002CD57948A169D9B1C0F80090FFF7BAFCD5
:1011D000074604E0FFF7B6FCC01B02280FD8686A78
:1011E0008007F7D571484FF4FA510068B0FBF1F071
:1011F000009000BF0098411E0091FAD20EE080E0FE
:10120000C0F80080FFF79EFC074604E0FFF79AFC59
:10121000C01B022875D8686A8007F7D42078400779
:1012200060D5E8690027C00008D4E86940F0805024
:10123000E861E869012700F0805000905C4801688F
:10124000C90513D40168834641F480710160FFF73A
:1012500079FC824606E000BFFFF774FCA0EB0A00B1
:1012600064284ED8DBF80000C005F5D5E0680128F9
:101270000AD008B1052813D0286A20F0010028629E
:10128000286A20F0040002E0286A40F00100286289
:10129000E06841F2883B98B1FFF754FC82460BE0CE
:1012A000286A40F004002862EEE700BFFFF74AFC1E
:1012B000A0EB0A0159455AD8286A8007F6D50CE0F8
:1012C000FFF740FC824605E0FFF73CFCA0EB0A017B
:1012D00059454CD8286A8007F6D41FB1E86920F038
:1012E0008050E861E06988B36968C1F3810102292F
:1012F00044D00228C6F8608004D0FFF723FC0446DF
:1013000038E034E0FFF71EFC074604E0FFF71AFC64
:10131000C01B02282BD828688001F7D4206AB0F5BA
:10132000803F05D16868A16820F4003008436860F8
:10133000D4E908010843696821F47411084368601E
:10134000C6F86090FFF7FEFB044606E025E000BF0C
:10135000FFF7F8FB001B022809D828688001F7D5A1
:101360001BE000BFFFF7EEFB001B022802D90320A1
:10137000BDE8F88F28688001F4D40EE00128F7D08A
:101380006868226A00F48031914204D1616A00F4F5
:101390007010884201D00120EAE70020E8E7000051
:1013A000001002400000424280044242100000202F
:1013B0000070004010B5401EB0F1807F01D30120C5
:1013C00010BD4FF0E02460610F21601701F0EEF9CD
:1013D0000020A06107202061002010BD70477047E9
:1013E00070B590F83C20012A26D0012480F83C40BA
:1013F000022280F83D2003685A689D6822F070063A
:101400000A6832435A600D4B02689A4208D0B2F122
:10141000804F05D00A4B9A4202D00A4B9A4204D11F
:10142000496825F080031943916080F83D40002110
:1014300080F83C10084670BD022070BD002C0140B1
:10144000000400400008004010B5040003D094F8E8
:101450003D0010B107E0012010BD002084F83C00E1
:10146000204600F01FF8022084F83D00211D20686E
:1014700000F06EFF012084F8460084F83E0084F8F6
:101480003F0084F8400084F8410084F8420084F86A
:10149000430084F8440084F8450084F83D000020AF
:1014A00010BD000008B501681448B1F1804F14D098
:1014B000134A914220D1C16941F00201C161C06962
:1014C000002200F00200009011461D20FFF7BEFC34
:1014D0001D20BDE80840FFF7ABBCC16941F0010128
:1014E000C161C069002200F00100009011461C207B
:1014F000FFF7ACFC1C20ECE708BD00000010024028
:101500000004004070B5044690F83C00012817D054
:10151000012584F83C50022084F83D002068826850
:1015200022F0770222F47F4282600868502830D08F
:101530000DDC20284DD005DC98B310283BD148E0C5
:10154000022070BD302844D0402834D139E06028D2
:1015500028D0702806D0B0F5805F2CD0B0F5005FA1
:1015600029D10AE0CB68D1E90121206800F026FFEB
:101570002068816841F0770109E0CB68D1E9012159
:10158000206800F01BFF2068816841F48041816081
:1015900011E0CA684968206800F0C4FF5021206843
:1015A00007E016E0CA684968206800F0CCFF6021B7
:1015B000206800F00DFF84F83D50002084F83C00C6
:1015C00070BDCA684968206800F0ACFF40212068FF
:1015D000EFE7226801461046EBE7704770B5044616
:1015E000006801694FF00005C943890715D4C16837
:1015F000C943890711D4E91E0161012020772068C1
:1016000080698007204602D0FFF7E7FF04E000F082
:10161000BBF8204600F04AF9257720680169C943E4
:10162000490717D4C168C943490713D46FF00401AF
:101630000161022020772068806910F4407F2046F5
:1016400002D0FFF7CAFF04E000F09EF8204600F049
:101650002DF9257720680169C943090716D4C168A7
:10166000C943090712D46FF00801016104202077F3
:101670002068C0698007204602D0FFF7AEFF04E073
:1016800000F082F8204600F011F925772068016902
:10169000C943C90617D4C168C943C90613D46FF03A
:1016A00010010161082020772068C06910F4407F94
:1016B000204602D0FFF791FF04E000F065F82046D5
:1016C00000F0F4F8257720680169C943C90708D1FB
:1016D000C168C943C90704D1891E0161204600F0D1
:1016E000E6F820680169C943090609D4C168C943FD
:1016F000090605D46FF0800101612046FFF76EFEF8
:1017000020680169C943490609D4C168C94349062B
:1017100005D46FF040010161204600F0C9F820684F
:101720000169C94389060BD4C168C943890607D436
:101730006FF0200101612046BDE87040FFF74FBE09
:1017400070BD000000B585B00021009101910291AB
:1017500003910068B0F1804F10D10948816941F0D0
:10176000040181618069694600F004000490022050
:101770000090019003900348FFF7E2F805B000BD28
:101780000010024000080140704770B5044690F810
:101790003C000D4601280AD0012084F83C0042B1EB
:1017A000042A18D0082A2AD00C2A4DD139E0022068
:1017B00070BD206800F014FE2068816941F00801C6
:1017C00081612068816921F004018161206881695B
:1017D0002A69114311E0206800F02AFE206881691F
:1017E00041F4006181612068816921F48061816137
:1017F000206881692A6941EA0221816124E0206828
:1018000000F042FE2068C16941F00801C161206812
:10181000C16921F00401C1612068C1692A691143CD
:1018200011E0206800F05CFE2068C16941F40061AD
:10183000C1612068C16921F48061C1612068C1690A
:101840002A6941EA0221C161002084F83C0070BD90
:1018500010B5040003D094F83D0010B107E001205A
:1018600010BD002084F83C00204600F01EF8022045
:1018700084F83D00211D206800F06AFD012084F8F5
:10188000460084F83E0084F83F0084F8400084F865
:10189000410084F8420084F8430084F8440084F84E
:1018A000450084F83D00002010BD70477047704728
:1018B0007047704770470000F8B50268044610682A
:1018C000D168536910F00F0F4FF0000553D003F0AB
:1018D000010601F4907737435FD0C20705D0CA05EF
:1018E00003D5226C42F001022264420705D5DA07D3
:1018F00003D0226C42F002022264820705D5DA0787
:1019000003D0226C42F004022264020707D501F0E2
:101910002002324303D0226C42F008022264226C7F
:10192000002A34D0800604D5880602D5204600F06F
:101930003CFE20684069216CC0F38010090700D488
:1019400030B3204600F019FE2068416949061BD5D6
:10195000416921F040014161A06BA8B15849416340
:10196000A06BFEF7B7FE002811D0A06B416B01B051
:10197000BDE8F040084783060FD58B060DD52046FD
:10198000BDE8F84000F011BE2046FFF793FFF8BD18
:101990002046FFF78FFF2564F8BD266B2023012E1C
:1019A00052D1C60650D5CE064ED51068506800906C
:1019B000506940062AD5A16B086840680004000CF5
:1019C000EAD0A68D8642E7D9E0858869202818D01C
:1019D000D06820F48070D0602068416921F0010156
:1019E00041612068416921F04001416184F83E3045
:1019F00025632068C16821F01001C160A06BFEF76B
:101A000045FEA08DE18D401A81B219E0A08DE18DD7
:101A1000401A81B2E08D0028BED00029BCD0D06829
:101A200020F49070D0602068426922F00102426187
:101A300084F83E3025632068C26822F01002C2603C
:101A40002046FFF736FFF8BD05062BD50D0629D534
:101A500094F83D002128F6D1A068B0F5805F01D14F
:101A60002069B0B1206A411C216221680078486079
:101A7000E08C401E0004000CE084E4D12068C168C2
:101A800021F08001C1602068C16841F04001C1605F
:101A9000F8BD206A0088C0F308005060206A801CEE
:101AA0002062E5E74006F3D54806F1D5D168204627
:101AB00021F04001D16084F83D3000F0FEF8F8BD1F
:101AC0006B25000870B5040004D094F83D00002593
:101AD00010B106E0012070BD84F83C50204600F0B3
:101AE00023F8242084F83D002068C16821F40051C7
:101AF000C160204600F0B4FD2068016921F49041E6
:101B000001612068416921F02A0141612068C168B2
:101B100041F40051C1602564202084F83D0084F820
:101B20003E00002070BD0000F0B585B000240646E0
:101B3000009401940294039400682D49884254D182
:101B40002C48816941F480418161816901F48041BF
:101B50000491816941F0040181618069264D00F0A2
:101B6000040004904FF400700090022001900320C4
:101B7000039069462846FEF7E3FE2815CDE90004E8
:101B8000694628460294FEF7DBFE1D4D1B48802760
:101B9000C5E90004C5E902472C616C61AC612846C7
:101BA000EC61FEF78DFE08B1FEF76EFDB5636E6267
:101BB000134D12484435143801C5102091C5104802
:101BC00045F8104944306C61AC61EC61FEF778FE79
:101BD00008B1FEF759FD75630022114625206E629B
:101BE000FFF734F92520FFF723F905B0F0BD000019
:101BF0000038014000100240000801405800024037
:101C0000B0050020704700002DE9F843044690F825
:101C10003D001F4616460D4620284CD1C5B1BEB129
:101C200094F83C00012846D0012084F83C004FF095
:101C30000008C4F84080212084F83D00FEF782FFB0
:101C4000A6848146E684A068B0F5805F03D004E0F6
:101C50000120BDE8F883206928B12E465FF0000519
:101C600084F83C800EE00026FAE78021204600F050
:101C700053FDA0B9AEB116F8010B21684860E08CA5
:101C8000401EE084E08C4B464FF000020097002895
:101C9000EBD14FF04001204600F03EFD30B1032073
:101CA000D7E735F8020BC0F30800E6E7202084F8F8
:101CB0003D000020CDE70220CBE7704710B500F0D3
:101CC00051FA082000F0AEFA00F02EFA082000F0D9
:101CD000A9FA00F05BFA082000F0A4FA00F02CFA50
:101CE000BDE81040082000F09DBA00007FB5012437
:101CF0008020CDE900040D4E02256946039530464B
:101D0000FEF71EFE012280213046FEF716FF40201E
:101D1000CDE90004694603953046FEF711FE012225
:101D200080213046FEF709FF7FBD0000000C014016
:101D300070B5104C104D207820B108212846FEF7D0
:101D4000EFFE30B108212846FEF7EAFE01280CD04C
:101D50000DE00A20FEF7E2FD002020700821284651
:101D6000FEF7DEFE18B9012070BD012020700020B2
:101D700070BD00000000002000080140154808B5B3
:101D8000416941F0010141614069002200F0010018
:101D9000009011460E20FFF759F80E20FFF748F883
:101DA000002211460F20FFF751F80F20FFF740F8EF
:101DB000002211461020FFF749F81020FFF738F8ED
:101DC000002211461120FFF741F8BDE8084011201C
:101DD000FFF72EB8001002402DE9F04186B0002434
:101DE00028480094019402940394816941F0100101
:101DF0008161816901F010010491816941F0200144
:101E00008161816901F020010491816941F004013F
:101E10008161816901F004010491816941F0080147
:101E200081618069184F00F008004FF4005504905C
:101E3000002229463846FEF780FEDFF85080002257
:101E400010214046FEF779FE0095022601250396F3
:101E5000CDE9015469463846FEF772FD08208DE849
:101E6000310069464046FEF76BFD1020CDE90005C4
:101E7000CDE9024669464046FEF762FD06B0BDE880
:101E8000F0810000001002400010014000080140F5
:101E90000D4810B50B4901600C49416000214FF419
:101EA00080428160C0E9031241618161C1610162C8
:101EB000FEF74EFE002803D0BDE81040FEF7E4BB5D
:101EC00010BD00000054004000040020A086010066
:101ED0007FB580261A4814240325CDE90006CDE9F4
:101EE00002540023174A18A1A0F5B47002F0CCF9EF
:101EF000174802F02DFA124970008031CDE9001028
:101F00001348CDE902540023124A13A1783002F09D
:101F1000BBF90F48783002F01BFA1148CDE90006F2
:101F2000CDE9025400230F4A0FA1A0F5FC7002F086
:101F3000ABF904B00248BDE87040783802F008BA46
:101F400000020020153000086C65643100000000BC
:101F500098000020794A000875736172743100009E
:101F600080030020C52A000862746E636C69636B8D
:101F70000000000010B504A000F008FCBDE810400F
:101F80004FF4FA6002F031B948656C6C6F2052541E
:101F90005F5468726561642121210D0A0000000010
:101FA00010B58EB000240794089409940A940B94F9
:101FB0001C2168460C94FEF74AF91E484FF08041F8
:101FC00001604721C0E901144FF47A71C0E903149C
:101FD0008461FFF739FA08B1FEF756FB4FF48050E1
:101FE000079007A91348FFF78DFA08B1FEF74CFBDD
:101FF0001048FFF72DFC08B1FEF746FB0B940BA928
:102000000C480C94FFF7ECF908B1FEF73DFB60209B
:1020100000900A20CDE90104042269460548049491
:10202000FFF7B3FB08B1FEF72FFB0248FFF78AFB6F
:102030000EB010BDDC04002010B586B00024174897
:10204000009401940294039404941349059401604C
:1020500040F60F61C0E901142321C0E90314846133
:10206000FFF7F2F908B1FEF70FFB4FF48050009034
:1020700069460A48FFF746FA08B1FEF705FB0494E3
:1020800004A906480594FFF7ABF9002801D0FEF734
:10209000FBFA06B010BD000000040040240500203B
:1020A0000C4810B50A4901604FF4165141600021F7
:1020B00081600C22C160C0E904128161C161FFF737
:1020C00001FD002803D0BDE81040FEF7DDBA10BDC9
:1020D000003801406C050020FEE7FEE770B50024E3
:1020E00000F02AF800F030F8082000F09BF800F02B
:1020F0001BF8082000F096F80A4D01E0641CA4B219
:1021000080212846FEF70CFD08B1642CF6D3642C20
:1021100006D000F011F8082000F084F8012070BD0E
:10212000002070BD000C0140012240210148FEF753
:1021300004BD0000000C0140002240210148FEF7D0
:10214000FCBC0000000C01401FB500200190802065
:1021500000900220039069460148FEF7F1FB1FBD85
:10216000000C01401FB5012001908020009002204A
:10217000054C039069462046FEF7E2FB01228021D0
:102180002046FEF7DAFC1FBD000C01401FB5012000
:102190000190802000900220054C03906946204663
:1021A000FEF7CEFB002280212046FEF7C6FC1FBDB5
:1021B000000C014010B5FFF7BFFF082000F032F817
:1021C000FFF7E4FF082000F02DF8FFF7ADFF08202F
:1021D00000F028F8FFF7B0FF082000F023F8FFF721
:1021E000B3FFBDE81040082000F01CB810B5FFF7A1
:1021F000A3FF082000F016F8FFF7B4FF082000F056
:1022000011F8FFF791FF082000F00CF8FFF794FF9A
:10221000082000F007F8FFF7B9FFBDE810400820DC
:10222000AFF3008000B5801E020004D00120FEF74D
:1022300028FA521EFAD100BD10B5FFF7A7FF0820FB
:10224000FFF7F0FFFFF770FF0820FFF7EBFFFFF746
:1022500089FFBDE810400820FFF7E4BF10B501F08A
:10226000A9FD02F00DF9BDE8104001F0B1BD30B597
:102270008FB028216846FDF7EAFF14210AA8FDF770
:10228000E6FF01210804CDE9001000240294022594
:102290000491CDE907504FF4E01009906846FEF72D
:1022A000F9FE08B172B6FEE70F20CDE90A054FF43A
:1022B0008060CDE90C4002210AA80E94FEF7F8FDDB
:1022C000002801D072B6FEE70FB030BD144910B53A
:1022D0004868144A10F00C03134803D0042B01D0B3
:1022E000082B09D002604968104AC1F30311515C00
:1022F0000268CA40026010BD4A684B6802F470125E
:102300004FF0020413F4803F04EB924202D04B687A
:102310009B0301D5064B00E0024B5A43E2E7000065
:102320000010024000127A0010000020624C0008E9
:1023300000093D00704700000148FFF74FB9000059
:10234000DC0400200148FFF749B900002405002003
:10235000F0B50268164B174C174D4FF08047984266
:1023600005D0B84203D0A04201D0A84203D122F048
:1023700070064A683243984205D0B84203D0A04262
:1023800001D0A84203D122F44074CA6822434C69A8
:1023900022F08002224302608A68C2620A68826276
:1023A000984201D10969016301214161F0BD00003A
:1023B000002C0140000400400008004010B5846873
:1023C00042EA032224F47F440A432243826010BD80
:1023D000826822F070020A4342F007018160704770
:1023E00030B5026A22F001020262026A436884691F
:1023F00024F073050C682C4322F002058A682A43F6
:102400000A4DA8420BD122F00805CA6823F4407394
:102410002A434D6922F004021D438B692B4343601C
:10242000846149684163026230BD0000002C0140B4
:1024300030B5026A22F010020262026A43688469BF
:102440000D6824F4E64444EA05248D6822F0200255
:1024500042EA05120B4DA8420ED1CD6822F080024F
:1024600042EA05124D6923F4406343EA85038D690E
:1024700022F0400243EA8503436084614968816336
:10248000026230BD002C014030B5026A22F4807235
:102490000262036A4268C46923F4007324F073057E
:1024A0000C682C438D6843EA05230C4DA8420ED1DD
:1024B000CD6823F4006343EA05234D6922F44052BA
:1024C00042EA05128D6923F4806342EA05124260F4
:1024D000C4614968C163036230BD0000002C014043
:1024E00030B5026A22F480520262046A4268C3690B
:1024F0000D6823F4E64343EA05238D6824F4005471
:1025000044EA0534064DA84204D14D6922F48042C4
:1025100042EA85124260C36149680164046230BDC9
:10252000002C014010B5036A046A24F0010404621F
:10253000846924F0F00444EA021423F00A020A43F6
:102540008461026210BD10B5036A23F010030362B8
:102550008369046A23F4704343EA023224F0A0033F
:1025600043EA01118261016210BD10B5406A002189
:10257000C185C184FFF79EF910BD0168CA6822F4C5
:102580009072CA6001684A6922F001024A61016BD7
:10259000012904D10168CA6822F01002CA60202112
:1025A00080F83E1000210163704708B590F83E1096
:1025B000222901D0022008BD82684FF480539A423C
:1025C00001D1016921B1816A9A421BD04AB10AE066
:1025D0000268816A5268C2F308020A80816A891C13
:1025E00008E0026972B10268526802F07F020A7064
:1025F000816A491C8162C18D491E0904090CC1858B
:1026000003D019E002685268F1E70168CA6822F055
:102610002002CA600168CA6822F48072CA60016838
:102620004A6922F001024A61202180F83E10016BC4
:10263000012903D0FFF7E6FA002008BD002101635D
:102640000168CA6822F01002CA6001680A68D206EE
:1026500002D50A6849680091818DFFF72AF9EBE7F6
:1026600070B5044600680169E26821F440511143E5
:1026700001612169A0680843616908432168CA684B
:1026800041F20C639A430243CA6020684169A2691F
:1026900021F44071114341611E492068884202D1F2
:1026A000FEF7B2FC01E0FEF79FFC00EBC00101EB7E
:1026B0000012606864218000B2FBF0F3B3FBF1F319
:1026C0006FF018067343B2FBF0F5B2FBF0F605EBC2
:1026D0008305322303EB0515B5FBF1F5B6FBF1F6E7
:1026E00005F0F00505EB0615B2FBF0F6B2FBF0F0D5
:1026F000B0FBF1F06FF01802504306EB800003EBE3
:102700000010B0FBF1F0216800F00F002844886051
:1027100070BD0000003801402DE9F0419846174691
:102720000E460446069D1DE0681C1BD02DB1FEF729
:1027300009FAA0EB0800A84214D92068C16821F466
:10274000D071C1602068416921F001014161202000
:1027500084F83D0084F83E00002084F83C0003200B
:10276000BDE8F0812068006836EA000004D000204F
:10277000B842D9D00020F3E70120F9E70148FFF77C
:102780009BB800006C050020FEE700000FB4054B6D
:1027900010B503A9044A029800F098F810BC5DF83F
:1027A00014FB0000592F0008940000200907090EAF
:1027B000002804DB00F1E02080F80014704700F0EE
:1027C0000F0000F1E02080F8141D7047002806D0AB
:1027D0000E4910F0FF0F03D0C0B2085C401C7047D8
:1027E00010F47F4F04D0C0F30720085C0930704715
:1027F00010F47F0F04D0C0F30740085C113070471D
:1028000001EB106000781930704700007A4C000826
:1028100002E008C8121F08C1002AFAD170477047A9
:10282000002001E001C1121F002AFBD17047000007
:102830002DE9F04F89B092468B460646002400E011
:10284000641C305D202803D0092801D05C45F7D3F3
:102850004FF0FF387CB3194804F10609184F05689A
:1028600011E0062217A12868FDF724FD50B9286859
:1028700022463146801DFDF71DFD18B9296811F863
:10288000090020B10C3538688542EAD314E0AC6801
:102890008CB120216846FDF7DAFC6A46594630467D
:1028A00000F0B2FF38B16946A047CAF80000002026
:1028B00009B0BDE8F08FFFE74046F9E77C00002053
:1028C000800000205F5F636D645F00002DE9FF4FB3
:1028D00089B09B460446002506E025280BD05A46C1
:1028E0000B999047641C6D1C20780028F5D10DB021
:1028F0002846BDE8F08F0027B8460122474900E08E
:10290000074314F8013F203B02FA03F00842F7D1D5
:1029100020782E2819D114F8010F47F004072A282F
:102920000ED06FF02F022078A0F1300109290CD8C9
:1029300008EB880102EB410100EB0108641CF2E79F
:102940000A98641C50F8048B0A9020780028CED096
:10295000642808D0692806D075281ED05A460B99DD
:1029600090476D1C58E00A994FF00A0901C90A9175
:10297000002802DA40422D2102E0390504D52B213E
:102980008DF82010012103E0F90704D02021F7E79A
:102990008A4608AE0DE00021FAE70A994FF00A09CD
:1029A00001C90A91F7E74946FDF793FC303106F873
:1029B000011D0028F7D1ADEB060000F120097807D2
:1029C00001D44FF00108C84502DDA8EB090000E082
:1029D00000208046002706E008A85A46C05D0B99F3
:1029E00090476D1C7F1C5745F6DB04E030205A46AB
:1029F0000B9990476D1CB8F10001A8F10108F5DCB6
:102A000005E016F8010B5A460B9990476D1CB9F179
:102A10000001A9F10109F4DC641C65E70928010043
:102A20002DE9FC411F460446DDE90831DDE90A6570
:102A3000143040600060C4E90827C4E90A310A463E
:102A4000232118461C3401F025FAD4E90301421869
:102A5000D4E90101104B121F01F090F944F81A0B50
:102A6000002004F801690D4A04F8036BE4E802054C
:102A700044F8105901C404F83C0B01C444F874092B
:102A8000009023460190194604F1440001F08CFDAA
:102A90000020BDE8FC810000F1410008BF430008B0
:102AA000143001F0D3B970B50546FDF73DFB296F31
:102AB000044609B1284688472046BDE87040FDF726
:102AC00037BB0000054C0020FFF732F90128FAD18E
:102AD00010212046FEF729F8F5E700000008014024
:102AE00010B51BA001F082F91C4C21781CA001F04C
:102AF0007DF92078C00702D01FA001F077F9207877
:102B0000800702D51FA001F071F92078400702D597
:102B10001FA001F06BF92078000702D520A001F07A
:102B200065F92078C00602D520A001F05FF9207871
:102B3000000607D509480F300168BDE810401DA008
:102B400001F054B9BDE810401EA001F04FB90000DB
:102B5000627573206661756C743A0A0029ED00E0B5
:102B60005343425F434653525F424653523A307892
:102B7000253032582000000049425553455252201A
:102B80000000000050524543495345525220000076
:102B9000494D5052454349534552522000000000D0
:102BA000554E53544B4552522000000053544B4550
:102BB000525220005343422D3E424641523A253064
:102BC00038580A000A00000010B500F053FB00203E
:102BD00010BD0000104810B5416991F82110890717
:102BE00003D40E490020087013E0016921B180224E
:102BF0000A48FDF743FB0CE000F004FE08B108A111
:102C000000E009A10548FDF74CFB09A10348FDF7C9
:102C100029FB024810BD00007C0000206C0D002044
:102C20006D7368200000000066696E736820000004
:102C30003E0000000349496911F8212F60F3410269
:102C40000A7070477C000020014AC2E90001704709
:102C50007C0000207FB514491448FFF7F5FF154CA0
:102C600013480A23A0F58F65606115224FF4806137
:102C7000A0F580608DE80F0000230F4A0FA178387F
:102C800001F002FB064600231A460EA1606901F01E
:102C9000F1F90120FFF7CEFF16B9284601F058FBE5
:102CA00004B0002070BD000028500008984F0008B4
:102CB000681200207C000020CD2C00087473686529
:102CC0006C6C00007368727800000000984D6869B1
:102CD00010F8211F41F001010170FFF77BFF01F0A7
:102CE00085F8002600F014FF0400FBD41B2C07D04D
:102CF000686990F82010012907D002290ED017E04A
:102D00006969012081F82000ECE75B2C02D080F893
:102D100020600DE0022180F82010E3E780F82060B9
:102D2000412CDFD0422CDDD0442C38D0432C43D072
:102D3000002CD7D0FF2CD5D0092C4ED07F2C75D0AD
:102D4000082C73D00D2C70D00A2CFCD0B0F8721067
:102D5000502901D3A0F87260B0F87430B0F8721046
:102D60008B427DD2CA1A00F1220123301944184443
:102D700001F076F86869B0F8741022300C54686974
:102D800090F82110C90706D0B0F874102230014421
:102D900068A001F02BF86869B0F87440A5E0B0F8BD
:102DA000740000289ED064A001F020F8686930F813
:102DB000741F491E018095E7B0F87410B0F87220B6
:102DC00091428FD22230095C5CA001F00FF8696952
:102DD00031F8740F401C088084E7002403E056A0FB
:102DE00001F004F8641C6869B0F87400A042F6DCD5
:102DF0006C6953A0223400F0F9FF00F003FD0128B4
:102E000002D1204600F03AFCFFF7E4FE01462246DC
:102E10004CA000F0EBFF68692230FDF73BFA6969CE
:102E200021F8720F48805DE700E03DE0B0F87420C3
:102E3000002AC0D0B0F87210521E491E89B293B257
:102E4000A0F87210A0F87430994224D9CA1A00F17F
:102E5000230122301944184401F002F8686900E0A7
:102E600049E0B0F8721022300E546869B0F874105E
:102E70002230014435A000F0B9FF6869B0F8744011
:102E800003E02DA000F0B2FF641C6869B0F8720086
:102E9000A04290DBF5E72FA000F0A8FF6869B0F82A
:102EA000721022300E541DE700F0ACFC01280DD149
:102EB000686990F82100C00702D021A000F096FFB9
:102EC0006869B0F87210223000F02EFCFFF782FE25
:102ED00000F08CFF686950212230FDF7B8F968696D
:102EE00022E015A000F082FF641C6869B0F872004F
:102EF000A042F6DC0AE022300C54686990F8210008
:102F0000C00703D021460DA000F070FF6869B0F83B
:102F10007210491C89B2A0F87210B0F87420521CCB
:102F2000A0F874205029BED320F8726F4680D9E6ED
:102F30007C000020257300000800000025630000CD
:102F40000A00000025732573000000000825732087
:102F5000200800000820080013B54FF6FF73012277
:102F600069460548FEF750FE034800680168C943FA
:102F70004906FBD400981CBD6C05002010B5124C0E
:102F80002068800702D511A000F030FF20684000C3
:102F900011D50D48C01E007808B1FFF7A1FD0A4801
:102FA000001F007808B100F0FDFA0748801E008875
:102FB00008B101F0F9FC2068002804DABDE81040EF
:102FC00008A000F013BF10BD2CED00E06661696C35
:102FD000656420766563746F722066657463680A41
:102FE000000000006465627567206576656E740A8E
:102FF0000000000010B502A000F0F8FE002010BD97
:1030000048656C6C6F2052542D5468726561642160
:103010000A0000000A4C4FF400564FF4FA750022E3
:1030200031462046FDF789FD284601F0DEF80122F1
:1030300031462046FDF781FD284601F0D6F8EEE73F
:103040000010014070B50CA000F0D0FE0F48104DEC
:1030500004680BE002220FA12068FDF72BF920B1D4
:10306000D4E900120CA000F0C1FE0C3428688442A0
:10307000F0D3002070BD00002D2D46756E6374697D
:103080006F6E204C6973743A0A0000007C000020C7
:10309000800000205F5F0000252D313673202D2D2C
:1030A0002025730A000000002DE9F04104461E4669
:1030B00017460D46084600F023FF001D20602572CC
:1030C00000206760C4E90360BDE8F0812DE9F041AC
:1030D0000D4600212961E96891B1297A81B12E68F4
:1030E00088B10446FDF720F80146A4F10C002A7AC5
:1030F000007A20F08000904209D00846FDF718F8C9
:103100000020BDE8F0813446FDF70EF801466868FE
:1031100000272468B44201D1002404E010C0EA680A
:103120007F1CBA42F5D10846FDF702F820462F6110
:10313000E7E700002DE9F04194B0002733A408230D
:103140000BAA022105A8FFF7AFFF08208046014621
:10315000224631A000F04AFE404600F0BDFB35A0FB
:1031600000F044FE05A93846FFF7B0FF07460026E9
:1031700042E00BA850F826400C3CFCF7D5FF217A22
:103180009DF81C2021F08001914202D0FCF7D0FF75
:1031900031E0FCF7CDFF04F114006169054681427E
:1031A0001ED000F041FEA18BCDE90010234608227D
:1031B000414626A000F01AFE2C680BE0A4F1140191
:1031C00026A000F013FE2068A84202D024A000F040
:1031D0000DFE2468AC42F1D115A000F007FE0AE014
:1031E00000F022FEA18BCDE90010234608224146C3
:1031F0001CA000F0FBFD761C0998B042B9DC002F42
:10320000B0D114B00020BDE8F081000073656D619D
:1032100070686F7265000000252D2A2E73207620BD
:10322000202073757370656E6420746872656164C4
:103230000A000000202D2D2D202D2D2D2D2D2D2D82
:103240002D2D2D2D2D2D2D0A00000000252D2A2E8F
:103250002A7320253033642025643A00257300004A
:103260002F000000252D2A2E2A73202530336420BC
:1032700025640A002DE9F041B4B000263CA40823DF
:103280002CAA012126A8FFF70FFF0820804601463F
:103290002246394800F0AAFD404600F01DFB37A049
:1032A00000F0A4FD26A93046FFF710FF06460025D2
:1032B00054E02CA850F825400C3CFCF735FF07469D
:1032C000207A9DF8A01020F08000884203D0384674
:1032D000FCF72EFF41E07822214607A8FCF79EFF6D
:1032E0003846FCF725FF94F8350000902346082265
:1032F000414632A000F07AFD94F8340000F00F004F
:10330000012807D0022807D040B1042808D003289C
:1033100008D00AE02CA006E02EA004E030A002E0D5
:1033200032A000E034A000F061FDA06A014600E098
:10333000401C0278232AFBD0E26A401A101A642348
:103340005843B0FBF2F3276B206CCDE90007E0692E
:10335000081A81182BA000F049FD6D1C2A98A8427C
:10336000A7DC002E9ED134B00020BDE8F081000023
:1033700074687265616400009C4D0008202D2D2D3D
:1033800020202D2D2D2D2D2D2D202D2D2D2D2D2D94
:103390002D2D2D2D202D2D2D2D2D2D2D2D2D2D2077
:1033A000202D2D2D2D2D2D20202D2D2D2D2D2D2D74
:1033B0002D2D2D202D2D2D0A00000000252D2A2E2B
:1033C0002A732025336420002072656164792020EF
:1033D000000000002073757370656E6400000000CB
:1033E00020696E69742020200000000020636C6F4B
:1033F00073652020000000002072756E6E696E6794
:1034000000000000203078253038782030782530D2
:1034100038782020202025303264252520202030B7
:10342000782530387820253033640A00F0B593B021
:10343000002626A408230BAA0A2104A8FFF734FEBD
:1034400008272246394623A000F0D0FC384600F079
:1034500043FA2AA000F0CAFC04A93046FFF736FE62
:103460000646002524E00BA850F825400C3CFCF74C
:103470005BFE217A9DF8182021F08001914202D054
:10348000FCF756FE13E0FCF753FED4E90901CDE941
:10349000000123460822394621A000F0A7FC607AEB
:1034A000C00701D024A000E026A000F09FFC6D1C06
:1034B0000898A842D7DC002ECED100F0DBFF0146F1
:1034C00024A000F093FC13B00020F0BD74696D657A
:1034D00072000000252D2A2E732020706572696FFE
:1034E00064696320202074696D656F7574202020E5
:1034F00020202020666C61670A000000202D2D2D01
:103500002D2D2D2D2D2D2D202D2D2D2D2D2D2D2DF8
:103510002D2D202D2D2D2D2D2D2D2D2D2D2D0A0038
:10352000252D2A2E2A7320307825303878203078BF
:103530002530387820000000616374697661746515
:10354000640A000064656163746976617465640A85
:103550000000000063757272656E74207469636B9D
:103560003A3078253038780A00000000FDF710FC6A
:10357000FEF77DFEFEF730FCFEF700FCFEF788FC50
:10358000FEF75AFDFEF78CFDFEF70AFDFEF7A0FCE4
:10359000FEF7F0FCFCE710B500F06EFABDE8104055
:1035A000FFF7E4BF10B518A000F020FC1B4C2178F9
:1035B0001BA000F01BFC2078C00702D01EA000F06A
:1035C00015FC2078800702D51EA000F00FFC2078A3
:1035D000000702D51EA000F009FC2078C00602D525
:1035E0001EA000F003FC2078000607D50B480C3025
:1035F0000168BDE810401CA000F0F8BBBDE8104019
:103600001D4800F0F3BB00006D656D206D616E61BB
:103610006765206661756C743A0A000028ED00E069
:103620005343425F434653525F4D4653523A3078BC
:1036300025303258200000004941434356494F4C41
:10364000200000004441434356494F4C20000000F5
:103650004D554E53544B4552522000004D53544B40
:1036600045525220000000005343422D3E4D4D4133
:10367000523A253038580A00184A00082DE9F04718
:103680008046002500782C4618B12248224F066853
:1036900031E0BDE8F0470021084600F077B8062287
:1036A0001EA13068FCF706FE20BB306800F1060959
:1036B0004046FCF7EFFD024649464046FCF7FAFD5E
:1036C000C0B925B94C464846FCF7E4FD05464946D5
:1036D000204601E0401C491C02781AB10B780BB15E
:1036E0009A42F7D0001BA84200DA054649460DA0D1
:1036F00000F07CFB0C3638688642D0D3002C06D014
:103700002A4621464046BDE8F04700F025BDBDE809
:10371000F08700007C000020800000205F5F636D68
:10372000645F000025730A0038B5044601E0491EB5
:10373000641C59B120782028F9D00928F7D06A46AE
:103740002046FFF775F818B1204604E0002038BD88
:10375000009838BD401C0178202901D00029F9D1FA
:1037600000210170214603A000F040FB4FF0FF3024
:1037700038BD000025733A20636F6D6D616E642063
:103780006E6F7420666F756E642E0A0070B50EA0A1
:1037900000F02CFB1348144D04680CE0062213A122
:1037A0002068FCF787FD28B9D4E9001211A0891D13
:1037B00000F01CFB0C3428688442EFD310A000F00A
:1037C00015FB002070BD000052542D5468726561D5
:1037D00064207368656C6C20636F6D6D616E6473DB
:1037E0003A0A00007C000020800000205F5F636DCB
:1037F000645F0000252D313673202D2025730A00CB
:103800000A0000000120704770B5002315461C46D1
:103810001A464BE000F8012B5B1C0678202E01D0E5
:10382000092E01D18B42F5D3082C11D321A000F031
:10383000DDFA002606E000BF55F8261025A000F0AE
:10384000D5FA761CA642F7D321A000F0CFFA2FE0DC
:103850008B422DD2F6B2222E03D045F82400641CF0
:103860001BE0401C45F824005B1C641C08E05C2E37
:1038700004D14678222E01D1401C5B1C401C5B1CED
:103880000678222E01D08B42F1D38B4210D200F861
:10389000012B5B1C0AE0401C5B1C0678202E03D029
:1038A000092E01D08B42F6D38B4201D28B42B4D386
:1038B000204670BD546F6F206D616E792061726714
:1038C000732021205765206F6E6C79205573653AFF
:1038D0000A0000002573200010B5044602E003A092
:1038E00000F084FA641EFAD210BD00002D00000022
:1038F0002DE9F04F85B09946DDE90EA5109CAB4649
:10390000630602D5DFF814C103E0DFF810C1ACF1A3
:10391000110CE30601D524F00104E30701D03023A4
:1039200000E0202300260493A3070BD5002A02DA27
:103930002D26524206E0630701D52B2602E023071D
:1039400000D520260023EE4622B930228DF8002033
:1039500001230CE0B9F10A0F14D002F00F0812098C
:103960001CF808800EF803805B1C002AF2D1AB42E1
:1039700000DD1D46AAEB050214F0110F4FF02007E1
:1039800008D015E00A27B2FBF7F807FB1828B2FBAE
:10399000F7F2E5E73EB1002A05DD521E03E088425A
:1039A00000D20770401CB2F1000CA2F10102F6DC5B
:1039B00026B1884200D20670401C521EE40605D58E
:1039C00008E0884201D2049C0470401C141EA2F13D
:1039D0000102F6DC30242E466D1E9E420ADD88422E
:1039E00000D20470401CF6E7884201D2E55C057005
:1039F000401C00E074461D1EA3F1010307DDBBF16E
:103A0000000FF1D103E0884200D20770401C131E62
:103A1000A2F10102F7DC05B0BDE8F08F8B4D000884
:103A20001FB50A4C14230A224FF48061A4F580606C
:103A30008DE80F000023064A06A1204600F024FC72
:103A400004B02046BDE8104000F082BC380A0020D7
:103A5000973500086D61696E0000000070B5044C78
:103A6000044D02E020688047241DAC42FAD370BDAB
:103A7000844F00088C4F000870B5044C044D02E0E0
:103A800020688047241DAC42FAD370BD8C4F0008DB
:103A9000944F000810B5FCF747FB044A5188491CB5
:103AA0005180BDE81040FCF743BB00004C000020F3
:103AB00010B5FCF739FB0B4C6188491E09B26180D7
:103AC00000290ADC00216180FCF732FB60680028D5
:103AD00007D0BDE8104000F055BABDE81040FCF733
:103AE00027BB10BD4C00002010B5FDF751F9FEF7C3
:103AF000BEFBFEF7EBFBFDF771FA4FF47A71B0FBFA
:103B0000F1F0FDF757FCBDE81040FFF7A7BF00003C
:103B1000084810B500684FF0FF340168C9438906B2
:103B200002D44068C4B202E00A2000F0C5FBE0B253
:103B300010BD0000280D0020F8B506460D200F49E5
:103B40008DF80000002481F83C40304600F0FCFA7B
:103B500005460FE0305D0A2805D101231A46694663
:103B60000648FEF751F8012331191A460348FEF7BB
:103B70004BF8641CAC42EDD3F8BD0000280D0020CA
:103B800070B50546041D2D48016819B128468847BF
:103B9000002851D02AA0E16B00F028F92CA0216A5E
:103BA00000F024F92EA0616A00F020F930A0A16A8B
:103BB00000F01CF932A0E16A00F018F934A0216885
:103BC00000F014F936A0616800F010F938A0A1687F
:103BD00000F00CF93AA0E16800F008F93CA0216976
:103BE00000F004F93EA0616900F000F940A0A1696D
:103BF00000F0FCF842A0E16900F0F8F844A0216B65
:103C000000F0F4F846A0616B00F0F0F848A0A16B5A
:103C100000F0ECF82878400708D500F073FB014667
:103C200047A000F0E3F8FFF725FB02E04CA000F00E
:103C3000DDF8FFF7A3F9FEE770BD00006C0000207F
:103C40007073723A203078253038780A000000000E
:103C50007230303A203078253038780A0000000081
:103C60007230313A203078253038780A0000000070
:103C70007230323A203078253038780A000000005F
:103C80007230333A203078253038780A000000004E
:103C90007230343A203078253038780A000000003D
:103CA0007230353A203078253038780A000000002C
:103CB0007230363A203078253038780A000000001B
:103CC0007230373A203078253038780A000000000A
:103CD0007230383A203078253038780A00000000F9
:103CE0007230393A203078253038780A00000000E8
:103CF0007231303A203078253038780A00000000E0
:103D00007231313A203078253038780A00000000CE
:103D10007231323A203078253038780A00000000BD
:103D2000206C723A203078253038780A0000000084
:103D30002070633A203078253038780A000000007F
:103D400068617264206661756C74206F6E2074689F
:103D5000726561643A2025730D0A0D0A00000000A7
:103D600068617264206661756C74206F6E20686192
:103D70006E646C65720D0A0D0A00000070B5044691
:103D8000121D22F007000022094D403840F8225051
:103D9000521C102AFAD301620021416281624FF065
:103DA000807200F13005C263C16285E81A0070BDFF
:103DB000EFBEADDE10B5FCF7B7F9044A1178491C27
:103DC0001170BDE81040FCF7B3B9000018000020E6
:103DD00010B5FCF7A9F9044A1178491E1170BDE825
:103DE0001040FCF7A5B90000180000200FB47F2197
:103DF00010B503AB0448029A00F048FC0248FFF7F4
:103E00009BFE10BC5DF814FBA80B002002685160FB
:103E100002680A6001604860704702685160026889
:103E20000A600160486070470246002100E0491CBA
:103E300000689042FBD108467047D0E900124A6002
:103E4000D0E900121160406000607047D0E90012B4
:103E50004A60D0E9001211604060006070470000C5
:103E600010B50346994211D28C189C420ED9811884
:103E700004E000BF14F8013D01F8013D521EF9D2E3
:103E800010BD00BF11F8014B03F8014B521EF9D2CF
:103E900010BD000010B50346CCB2042A1AD3810726
:103EA00018D1194644EA042343EA034306E008C153
:103EB000103A08C141F8083B41F8043C102AF6D2F8
:103EC00001E008C1121F042AFBD20B4602E000BF2A
:103ED00003F8014B521EFBD210BD10B50446002062
:103EE0002072FCF721F9F4E903124A60D4E90012C8
:103EF000116064602460BDE81040FCF719B900004F
:103F0000074A002102EB01131B78834202D102EB26
:103F100001107047491C0329F4DB002070470000A2
:103F20001C0000202DE9F041054617460E460846C4
:103F3000FFF7E6FF0446FFF7ADFD211D606800E0D6
:103F400000688842FCD1FFF7B3FD46F0800028727C
:103F500008223946284600F0FFF8FCF7E5F854F847
:103F6000041F0C354D602168296025606C60BDE838
:103F7000F041FCF7DDB8007A000601D5012070475A
:103F80000020704770B5FCF7CFF8114C05466088EB
:103F9000B0B9A068FEF71AFC0E49401E626851F8DD
:103FA0003010143991420BD020700B4861600078BA
:103FB00001F11C01002802F11C0006D0FCF7BBF83F
:103FC0002846BDE87040FCF7B3B8FCF7B4F8F7E753
:103FD0004C000020280C00201800002010B50446DA
:103FE000FCF7A2F8024694F834000E4920F00F00C6
:103FF000401C84F8340094F8350001EBC00104F152
:1040000014004B6818604B68A36148600648616102
:10401000A16B836819438160BDE810401046FCF72E
:1040200087B80000280C00204C00002010B5044682
:10403000FCF77AF804F11401D1E900235360D1E9C7
:1040400000231A60A161616194F83520074951F895
:10405000323001EBC2018B4204D10549A36B8A685F
:104060009A438A60BDE81040FCF762B8280C002033
:104070004C0000202DE9F04116460A461F46054631
:104080000221FFF74FFF05F11404AC616C61AE83B0
:104090006F720020BDE8F08108B509A0FFF7A6FE09
:1040A0000AA0FFF7A3FE12A000900523012203211E
:1040B00012A0FFF79BFEBDE8084018A0FFF796BED0
:1040C0000A205C207C202F0A000000002D20525482
:1040D000202D2020202020546872656164204F70BC
:1040E00065726174696E672053797374656D0A0037
:1040F0004A616E203132203230323300202F207C52
:10410000205C202020202025642E25642E2564207C
:104110006275696C642025730A000000203230301B
:1041200036202D203230323020436F70797269672B
:1041300068742062792072742D74687265616420DD
:104140007465616D0A000000014600E0491C0A78B0
:10415000002AFBD1081A704710B5002A07D0034681
:1041600011F8014B03F8014B2CB1521EF8D110BDD0
:1041700003F8011B00E00021521EF9D110BD000020
:1041800010B50A4900230A4C4B80184604EBC002C4
:10419000401C526012602028F8DB1F200870034882
:1041A0004B600C308B604060006010BD4C00002004
:1041B000280C002010B5074CA068FEF707FB064945
:1041C000401E51F8300014386060BDE810401C30CB
:1041D000FBF7DFBF4C000020280C002001484060A6
:1041E0000060704764000020704700F091B8000044
:1041F00070B514480468FBF797FF05462046FEF7A4
:1042000052FC2046FFF712FF042084F8340004F12A
:10421000440000F0B5F92046FFF7ADFE01280CD0B0
:1042200004F114010848FFF7F1FD00BFFFF7AAFEF3
:104230002846BDE87040FBF77BBF2046FFF74DFEE8
:10424000F4E700005000002058000020FEE70000C6
:104250001FB5094820231F2280218DE80F0000236D
:10426000064A07A1783800F00FF804B00248BDE80C
:104270001040783800F06CB8280B00204D42000840
:104280007469646C650000002DE9FF5F92460EAA18
:104290000C4692E8E0010A46994683460121FFF761
:1042A00041FE8DE8E0014B46524621465846FEF756
:1042B000B7FB04B0BDE8F09F10B500F0C1F8BDE851
:1042C000104000F025B870B5044690F8340000F0B6
:1042D0000F00022802D04FF0FF3070BDFBF724FF23
:1042E000054604F11400FFF7A8FD04F1440000F0B6
:1042F000B5F92846FBF71CFF2046FFF76FFE0020AC
:1043000070BD0000014800687047000050000020A8
:10431000F1B5FBF709FF05460C480468204600F09C
:104320002DF804F144006A460021064600F004F925
:10433000304600F051F92846FBF7FAFEFFF722FE5F
:10434000206B801C00D120630020F8BD50000020AD
:1043500010B590F83610012280F835108A400221FD
:10436000826380F83410FFF7AEFF0348006808B19D
:10437000FFF708FE002010BD5000002070B5044675
:1043800090F8340000F00F00012802D04FF0FF3009
:1043900070BDFBF7C9FE05462046FFF747FE94F8BF
:1043A000340020F00F00801C84F8340004F1440035
:1043B00000F054F92846FBF7BBFE002070BD10B595
:1043C00004466FF00100206304F11400FFF735FD8F
:1043D0002046FFF703FEBDE81040FFF7D3BD000005
:1043E00070B5FBF7A1FE06461348046894F8340044
:1043F00000F00F00012819D1D4E90501884215D039
:1044000004F114000546FFF718FD94F835000B4938
:1044100001EBC00041680D6041686960456028603B
:104420003046FBF785FEFFF7ADFD02E03046FBF7B7
:104430007FFE002070BD000050000020280C0020EE
:10444000002802DA4FF0FF3070474FF47A7190FB8A
:10445000F1F290FBF1F301FB130000EB40034A4340
:10446000C3EBC0104B1E03EBC00090FBF1F01044F7
:1044700070470000014800687047000014000020E9
:10448000094810B50168491C0160FFF73BFF016C4A
:10449000491E016403D1C16B0164FFF7A1FFBDE8B0
:1044A000104000F003B80000140000202DE9FC418A
:1044B000CDF804D0CDF800D0FFF7DCFF0646FBF7BF
:1044C00033FE07461B4D2DE060696FF00041301A46
:1044D000143C884229D22046FEF7E2FA607A81072E
:1044E00002D420F00100607204F11401884668468D
:1044F000FFF793FCD4E907108847FFF7BBFF064698
:104500000098694688420DD04046FFF79FFC607ACC
:10451000810707D5C10705D020F001006072204651
:1045200000F05AF82C68AC42CED13846FBF700FEBA
:10453000BDE8FC816400002070B515460E460446B7
:10454000FBF7F2FD052E17D2DFE806F00503080C95
:104550001100616A0FE0296861620DE0617A21F063
:10456000020102E0617A41F00201617204E0617AC5
:10457000C90700D001212960FBF7DAFD002070BDDA
:1045800070B50446FBF7D0FD05462046FEF788FAD5
:10459000607A20F0010060722846FBF7C9FD2046D2
:1045A000FFF79BFC002070BD2DE9F0411746DDE9C7
:1045B00006580A461E4604460A21FFF7B3FC28F0B7
:1045C000010161720021C4E90951C4E9077614347C
:1045D00064602460BDE8F0812DE9F8430446FBF7F0
:1045E000A3FD80462046FEF75BFA607A20F00100CA
:1045F0006072FFF73FFF616A174A4318A362002009
:10460000009202EBC002694656686FF000475DF801
:1046100020200AE01268A2EBC0056D699D4202D01D
:10462000ED1ABD4203D341F82020B242F2D10A482C
:10463000001F0168491C016004F114010098FFF794
:10464000ECFB607A40F0010060724046FBF770FDC1
:104650000020BDE8F88300006400002070B5044627
:10466000407AC0070ED0FBF75FFD05462046FEF7F7
:1046700017FA607A20F0010060722846FBF758FDB7
:10468000002070BD4FF0FF3070BD00002DE9FF4FDE
:104690008946044600EB090783B080464FF0FF3A95
:1046A0004FF0200BA74202D25746C8F1FF390BE169
:1046B000252803D0BC4200D2207080E00026059956
:1046C000491C059108782D2811D02B2812D02028BC
:1046D00013D0232814D0302815D00A785546303A04
:1046E0000A2A13D205A800F030F905461AE046F070
:1046F0001006E4E746F00406E1E746F00806DEE7C8
:1047000046F02006DBE746F00106D8E72A2809D163
:104710000698491C059120C80690002D02DA6D42CA
:1047200046F010060598D44601782E2918D1401C71
:1047300005900178A1F130020A2A04D205A800F000
:1047400004F9844607E02A2908D1401C0590069800
:1047500050F804CB0690BCF1000F01DA4FF0000CCA
:10476000059A00201178682901D06C2902D1521CC9
:104770000846059211780A236F2974D00CDC63294E
:104780001FD004DC25296FD058290DD184E064297D
:1047900001D0692908D183E0702966D073292CD013
:1047A00075297FD0782979D0BC4201D2252020708C
:1047B0000598641C0178E9B3BC4200D22170641CE6
:1047C0007FE0F00608D458466D1E002D04DDBC4283
:1047D00000D22070641CF7E70698BC4210F8041B56
:1047E000069000D22170584602E0BC4200D22070F0
:1047F000641C6D1E002DF8DC63E0069802C806906C
:1048000001B941A1002000E0401CA84202D00A5C8E
:10481000002AF9D1BCF1000F02DD604500DD6046E1
:10482000F2060BD45A462B466D1E834206DDBC426F
:1048300002D200E054E02270641CF4E7002206E09B
:10484000BC4201D20B782370491C521C641C82426A
:10485000F6DB5A4629466D1E814232DDBC4200D24B
:104860002270641CF6E715E010E0681C02D10825F0
:1048700046F00106CDE9005C06980296102304C8B4
:1048800006903946204619E00CE007E0BC4296D27B
:10489000252011E7082305E046F04006102301E03B
:1048A00046F002066C2801D068281CD0069804C87F
:1048B0000690CDE9005C394620460296FFF718F8CD
:1048C00004460598401C05900598007800287FF460
:1048D000EFAEB9F1000F11D0BC420DD220700DE047
:1048E000401E0590EDE7069830F8041B06908AB24A
:1048F000B007DED512B2DCE707F8010C07B0A4EB75
:104900000800BDE8F08F0000284E554C4C290000EF
:10491000002070470020704700207047002070473B
:1049200010B5FBF701FCFFF7DFF8FFF7B5FBFFF76A
:1049300055FCFFF725FCFFF773F8FFF755FCFFF771
:1049400087FCFFF737FC002010BD10B501460020A2
:104950006FF02F0307E0541C0C60127800EB80000E
:1049600003EB400010440A681478303C0A2CF2D360
:1049700010BD00000B4810B5094901604FF4E1314A
:104980004160002181600C22C160C0E90412816194
:10499000C161FDF797F8002800D0FEE710BD0000C8
:1049A00000380140280D002010B518A0FFF71EFAAE
:1049B0001A4C21881AA0FFF719FA2088C00702D0E4
:1049C0001DA0FFF713FA2088800702D51DA0FFF76E
:1049D0000DFA2088400702D51DA0FFF707FA2088AE
:1049E000000702D51CA0FFF701FA2088C00502D5F8
:1049F0001BA0FFF7FBF92088800502D51BA0FFF75D
:104A0000F5F9BDE8104004A0FFF7F0B975736167D0
:104A100065206661756C743A0A0000002AED00E0BA
:104A20005343425F434653525F554653523A3078A0
:104A30002530325820000000554E444546494E531B
:104A400054522000494E5653544154452000000012
:104A5000494E5650432000004E4F43502000000066
:104A6000554E414C49474E4544200000444956426A
:104A7000595A45524F2000001FB5FDF7ADF9FDF71B
:104A800007FAFDF70DFB0020009001903220FFF7A0
:104A9000ACFBFBF74CFC40F6C410FFF7A6FB5E4EE8
:104AA00064250A246846FBF7A9FC00984FF47A7144
:104AB0004843000D029001984900484306EB10500E
:104AC000039056A0FDF762FE6420FFF78EFB56A010
:104AD000FDF75CFE6420FFF788FB53A0FDF756FE50
:104AE0006420FFF782FB50A0FDF750FE6420FFF723
:104AF0007CFB4DA0FDF74AFE6420FFF776FB4AA041
:104B0000FDF744FE6420FFF770FB47A0FDF73EFE73
:104B10006420FFF76AFB44A0FDF738FE6420FFF72E
:104B200064FB41A0FDF732FE6420FFF75EFB3EA070
:104B3000FDF72CFE6420FFF758FB3BA0FDF726FE97
:104B40003AA0FDF723FE039890FBF4F104FB110358
:104B500090FBF4F090FBF4F104FB1102039890FB3E
:104B6000F5F133A0FDF712FE029890FBF4F104FB7F
:104B7000110390FBF4F090FBF4F104FB1102029896
:104B800090FBF5F12EA0FDF701FE28A0FDF7FEFD3C
:104B90002FA0FDF7FBFD6420FFF727FB22A0FDF708
:104BA000F5FD6420FFF721FB1FA0FDF7EFFD64205A
:104BB000FFF71BFB1CA0FDF7E9FD6420FFF715FBC9
:104BC00019A0FDF7E3FD6420FFF70FFB16A0FDF72A
:104BD000DDFD6420FFF709FB13A0FDF7D7FD64207E
:104BE000FFF703FB10A0FDF7D1FD6420FFF7FDFAEE
:104BF0000DA0FDF7CBFD6420FFF7F7FA0AA0FDF743
:104C0000C5FD6420FFF7F1FA07A0FDF7BFFD07A07F
:104C1000FDF7BCFD46E700000CFEFFFFD5FDD4DA32
:104C2000BCECB2E2000000002E0000000D0A000003
:104C3000CEC2B6C83A256425642E25640000000063
:104C4000CAAAB6C83A256425642E2564000000006F
:104C5000B5C8B4FD0000000010B5FFF71DFA002034
:104C600010BD000000000000000001020304060760
:104C70000809000000000102030400000100020016
:104C80000100030001000200010004000100020015
:104C90000100030001000200010005000100020004
:104CA00001000300010002000100040001000200F5
:104CB00001000300010002000100060001000200E3
:104CC00001000300010002000100040001000200D5
:104CD00001000300010002000100050001000200C4
:104CE00001000300010002000100040001000200B5
:104CF00001000300010002000100070001000200A2
:104D00000100030001000200010004000100020094
:104D10000100030001000200010005000100020083
:104D20000100030001000200010004000100020074
:104D30000100030001000200010006000100020062
:104D40000100030001000200010004000100020054
:104D50000100030001000200010005000100020043
:104D60000100030001000200010004000100020034
:104D700001000300010002000100303132333435FC
:104D800036373839616263646566003031323334F6
:104D9000353637383941424344454600252D2A2EC1
:104DA00073207072692020737461747573202020E1
:104DB00020202073702020202020737461636B20DA
:104DC00073697A65206D61782075736564206C6500
:104DD0006674207469636B20206572726F720A00BA
:104DE00068656C6C6F007361792068656C6C6F200E
:104DF000776F726C640076657273696F6E007368AA
:104E00006F772052542D5468726561642076657204
:104E100073696F6E20696E666F726D6174696F6E13
:104E2000005F5F636D645F76657273696F6E0073B8
:104E3000686F772052542D546872656164207665DE
:104E40007273696F6E20696E666F726D6174696FDF
:104E50006E006C6973745F746872656164006C697C
:104E6000737420746872656164005F5F636D645F72
:104E70006C6973745F746872656164006C697374E3
:104E800020746872656164006C6973745F73656D2A
:104E9000006C6973742073656D6170686F72652052
:104EA000696E2073797374656D005F5F636D645F15
:104EB0006C6973745F73656D006C697374207365DE
:104EC0006D6170686F726520696E207379737465A7
:104ED0006D006C6973745F74696D6572006C6973E1
:104EE000742074696D657220696E207379737465BE
:104EF0006D005F5F636D645F6C6973745F74696D8F
:104F00006572006C6973742074696D657220696ED6
:104F10002073797374656D006C697374006C6973C8
:104F20007420616C6C2073796D626F6C20696E20E7
:104F300073797374656D005F5F636D645F68656C42
:104F4000700052542D546872656164207368656CFA
:104F50006C2068656C702E005F5F636D645F7073BA
:104F6000004C697374207468726561647320696EA3
:104F7000207468652073797374656D2E00000000DD
:104F80001D49000815490008754900081149000825
:104F9000552C000819490008E04D0008E64D0008AE
:104FA000F52F0008F64D0008FE4D0008594C00088A
:104FB000214E00082F4E0008594C0008524E0008A0
:104FC0005E4E0008753200086A4E00087C4E0008EC
:104FD00075320008884E0008914E000835310008EF
:104FE000AA4E0008B94E000835310008D24E00081C
:104FF000DD4E00082D340008F24E0008034F000873
:105000002D340008184F00081D4F000845300008D7
:10501000374F0008424F00088D370008584F0008EE
:10502000614F0008C92B000848500008000000200C
:105030009800000010280008E050000898000020A8
:1050400048160000202800080100000001000000B0
:1050500010000000000000000024F4000000000028
:1050600000000000010000002000002020000020BF
:105070007800000002000000300000203000002016
:10508000200000000A000000400000204000002036
:105090002C000000000000000000000000000000E4
:1050A0000000000000000000000000000000000000
:1050B00000000000000000000000000000000000F0
:1050C00000000000000000000000000000000000E0
:1050D00000000000000000000000000000000000D0
:04000005080000ED02
:00000001FF
