:020000040800F2
:10000000B0040020050100081B150008AD1300080E
:100010001915000833040008251900080000000025
:10002000000000000000000000000000F9150008BA
:1000300067040008000000001D150008A316000852
:100040001F0100081F0100081F0100081F01000810
:100050001F0100081F0100081F0100081F01000800
:100060001F0100081F0100081F0100081F010008F0
:100070001F0100081F0100081F0100081F010008E0
:100080001F0100081F0100081F0100081F010008D0
:100090001F0100081F0100081F0100081F010008C0
:1000A0001F0100081F0100081F0100081F010008B0
:1000B0001F0100081F0100081F0100081F010008A0
:1000C0001F0100081F0100081F0100081F01000890
:1000D0001F010008191900081F0100081F0100086E
:1000E0001F0100081F0100081F010008DFF810D0E1
:1000F00000F042F800480047011B0008AFF3008001
:10010000B00400200648804706480047FEE7FEE7A7
:10011000FEE7FEE7FEE7FEE7FEE7FEE7FEE7FEE7B7
:1001200005170008ED000008D2B201E000F8012B2D
:10013000491EFBD270470022F6E710B513460A4667
:1001400004461946FFF7F0FF204610BD30B50B46B8
:10015000014600202022012409E021FA02F59D42F7
:1001600005D303FA02F5491B04FA02F52844151ECB
:10017000A2F10102F1DC30BD064C074D06E0E0685B
:1001800040F0010394E8070098471034AC42F6D3DE
:10019000FFF7B0FF281D0008481D000810B501F04A
:1001A0001DF901F004F9702000F01EF901F0B8F912
:1001B000A82000F019F901F0B3F9002000F014F9BB
:1001C00001F0AEF9002000F00FF901F0A9F901F0FB
:1001D00056FA0A2000F048F901F0E9F8702000F022
:1001E00003F901F09DF9BE2000F0FEF801F098F946
:1001F000082000F0F9F801F093F9002000F0F4F87D
:1002000001F08EF901F03BFABDE810400A2000F041
:100210002BB900002DE9F041002501F0AFF901F004
:10022000B5F9082001F021FA00240F4F01F09EF9E2
:1002300000F034F900268021384600F0B7FA00B10A
:10024000012646EA4500C5B201F098F900F026F90A
:10025000641CE4B2082CE9D301F098F9082001F0FD
:1002600004FA2846BDE8F081000C01402DE9F04178
:100270008AB0002406468DF81C408DF820408DF889
:1002800010408DF80C408DF818408DF814408DF812
:100290001C40274625460194029400F08AF850201D
:1002A00000F0E2F840F2E45807E0404601F0DDF9E2
:1002B00028466D1CADB2642803D200F069F8000630
:1002C000F3D401F074F8712000F08EF801F028F9F1
:1002D000FFF7A0FF8DF81C008DF8040001F08DF9E8
:1002E000FFF798FF8DF820008DF8050001F085F9E3
:1002F000FFF790FF8DF810008DF8060001F07DF9F2
:10030000FFF788FF8DF80C008DF8070001F075F9F4
:10031000FFF780FF8DF818008DF8080001F06DF9E7
:10032000FFF778FF8DF814008DF8090001F065F9EA
:10033000FFF770FF8DF81C0001F07BF901F09FF9C9
:10034000062101A800F076F89DF81C1088421CD107
:100350009DF820009DF81010074341EA07209DF802
:100360000C1041EA0020000930609DF80C009DF857
:10037000181041EA00209DF8141041EA0020C0F353
:10038000130070600AB0BDE8F08134607460F9E772
:1003900010B501F00CF8712000F026F801F0C0F85B
:1003A000FFF738FF044601F044F901F068F92046F0
:1003B00010BD10B500F0FBFF702000F015F801F043
:1003C000AFF8AC2000F010F801F0AAF8332000F0EC
:1003D0000BF801F0A5F8002000F006F801F0A0F8F5
:1003E000BDE8104001F04BB970B5054680260024E9
:1003F00001F0C4F800F043F82E4202D001F0D4F826
:1004000001E001F0E5F801F0B1F800F038F8680615
:10041000641C050EE4B2082CEAD301F0AFF8082002
:1004200001F023F901F0B2F8BDE87040082001F0B6
:100430001CB9FEE770B50446FF20002231250FE00D
:10044000A35C58400823060602D585EA400000E078
:1004500040005B1EC0B213F0FF03F4D1521CD2B2B5
:100460008A42EDD370BD704710B503464FF47A74DD
:1004700002E0204601F0F9F85B1EFAD210BD00B58B
:10048000012000F01DF8012000F01AF8012000F012
:1004900017F801205DF804EB00F012B800B5012058
:1004A00000F00EF8012000F00BF8012000F008F831
:1004B000012000F005F801205DF804EBAFF30080A7
:1004C000401EFDD2704772B6FEE710B590F82110BD
:1004D0000022022905D00421816380F82020012018
:1004E00010BD01680B6823F00E030B6001680B68F8
:1004F00023F001030B6090F84030C46B012101FA36
:1005000003F3636080F8211080F82020104610BDAE
:1005100010B590F821100024022903D00421816332
:1005200001243DE001680A6822F00E020A600168B9
:100530000A6822F001020A601A4A0168914201D158
:10054000012121E0174A1432914201D110211BE010
:10055000144A2832914201D1891515E0114A3C32E2
:10056000914201D189140FE00E4A5032914202D1DA
:100570004FF4803108E00B4A6432914202D14FF4CB
:10058000801101E04FF08071064A083A5160012164
:1005900080F82110002180F82010416B01B18847BC
:1005A000204610BD0800024070B5044600F008F96E
:1005B0000546601C02D004480078044400F000F9AD
:1005C000401BA042FAD370BD000000202DE9F84F77
:1005D000DFF8B891002409F1040A0AF1040B23465C
:1005E0000F270BF1040EC9E00125A5402A40AA42BD
:1005F0007DD1674ED1F804C0ACEB0608B44532D0CB
:1006000014DCBCF1030F3AD009DCBCF1000F2AD096
:10061000BCF1010F1CD0BCF1020F31D11DE0BCF1C7
:10062000110F17D0BCF1120F2AD119E0B8F5881FAD
:1006300019D006DCB8F5803F15D0B8F5801F1FD162
:1006400011E0B8F5001F0ED0B8F5041F18D10AE06C
:10065000CB6815E0CB681B1D12E0CB6808330FE0B8
:10066000CB680C330CE08B682BB1012B4FF00803E7
:1006700003D0456104E0042302E0056100E00023AB
:10068000FF2A01D8064601E000F104064FEA84057E
:1006900001D9A5F12005D6F8008007FA05FC28EA63
:1006A0000C0803FA05F548EA0508C6F800804D680D
:1006B000ED0062D5374DAE6946F00106AE61AD6919
:1006C00024F0030605F001050095334D06EB050CFB
:1006D000DCF80850A607360F07FA06F825EA0805E1
:1006E000DFF8B880404503D14FF0000817E044E040
:1006F000DFF8AC80404502D14FF001080FE0DFF891
:10070000A480404502D14FF0020808E0DFF898804D
:10071000404502D14FF0030801E04FF0040808FA09
:1007200006F848EA0508CCF808804D68D9F800605A
:10073000ED034D4601D5164300E096432E604D680B
:10074000DAF80060AD03554601D5164300E0964344
:100750002E604D68DBF80060ED025D4601D5164362
:1007600000E096432E604D68DEF80060AD027546ED
:1007700001D5164300E096432E60641C0D682A469E
:10078000E5407FF431AFBDE8F88F00000004014080
:10079000000011100010024000000140000801405C
:1007A000000C014000100140001401408068084026
:1007B00000D0012070470AB1016170470904FBE7CE
:1007C00001488068704700000000002070B50400F8
:1007D00025D094F83D00002520B984F83C502046EF
:1007E00000F0B8F8242084F83D002068016821F06A
:1007F000010101602068016841F400410160206846
:10080000016821F40041016000F000FA4D4A61687E
:10081000914201D84C4900E04C49884201D2012064
:1008200070BD4B492368B0FBF1F15E6826F03F06CE
:100830000E435E606368934206D94FF49673594342
:100840004FF47A73B1FBF3F12368491C1E6A26F05A
:100850003F06314319626168914210D84900401E39
:10086000B0FBF1F2521CC2F30B02042A01D20420A5
:1008700022E0B0FBF1F0401CC0F30B001CE0A268CA
:10088000F2B301EBC10303EB0116431EB3FBF6F316
:100890005B1C43F480431B0549D092B301EBC102BA
:1008A00002EB0111401EB0FBF1F0401CC0F30B0045
:1008B00040F4804040F400402168CA694CF6FF7360
:1008C0009A431043C861D4E90710014320680268C5
:1008D00022F0C00211430160D4E903010143206802
:1008E000826848F2FF339A4311438160D4E90501DD
:1008F00008432168CA6822F0FF021043C86001E083
:100900000EE016E02068016841F0010101602564F5
:10091000202084F83D00256384F83E50002070BDFF
:1009200001EB4106431EB3FBF6F35B1CB3E701206A
:10093000C2E701EB4101401EB0FBF1F0401CC0F3E7
:100940000B00B7E7A086010080841E0000093D006F
:1009500040420F0010B586B0002100910191029134
:10096000039100680F4988421AD10F4CA06940F0EA
:100970000800A061A069694600F008000490C0204A
:10098000009012200190032003900848FFF71EFEFC
:10099000E06940F40010E061E06900F400100490A8
:1009A00006B010BD0054004000100240000C014091
:1009B000024881680278114481607047000000207D
:1009C000074810B5016841F010010160032000F0F4
:1009D00075F80F2000F006F800F024F8002010BD94
:1009E0000020024070B50D4D04464FF47A7128780E
:1009F000B1FBF0F00A490968B1FBF0F000F0ECFA45
:100A000048B9102C07D200222146501E00F036F8BB
:100A100000206C6070BD012070BD0000000000204F
:100A20000C0000200C4808B5816941F0010181618A
:100A3000816901F001010091C16941F08051C161FA
:100A4000C06900F0805000900448416821F0E061E6
:100A500041F00071416008BD0010024000000140FB
:100A6000002809DB00F01F020121914040098000AD
:100A700000F1E020C0F8001170470000F0B40E4B08
:100A80001B680C46C3F30223C3F10705042D00D9EC
:100A90000425191D072901D2002300E0DB1E0126D1
:100AA00006FA05F1491E214099409E40761E1640E7
:100AB0003143F0BC00F048BF0CED00E0064900F007
:100AC000070208684FF6FF03184040EA0220034A75
:100AD00010430860704700000CED00E00000FA05CC
:100AE0002DE9F0470F46050061D0434E306800F015
:100AF0000700B84209D2306820F007003843306060
:100B0000306800F00700B84251D128683B4C81079B
:100B100012D5400703D5606840F4E0606060287833
:100B2000000703D5606840F4605060606068A968A1
:100B300020F0F000084360602878C00728D068687B
:100B4000012810D02168022810D0890700292EDA48
:100B5000616821F0030101436160FFF731FE8046C7
:100B600041F288390DE021688903EFE78901EDE75B
:100B7000FFF726FEA0EB0801494502D90320BDE896
:100B8000F0876068696800F00C00B0EB810FEFD16E
:100B9000306800F00700B8420BD9306820F0070039
:100BA00038433060306800F00700B84201D00120BF
:100BB000E5E72878400705D56068E96820F4E0603B
:100BC000084360602878000706D56068296920F42A
:100BD000605040EAC100606000F038F86168084A7F
:100BE000C1F30311515CC84006490860064800681B
:100BF000FFF7F8FE0020C2E700200240001002408C
:100C0000101D00080C0000200400002004480549C5
:100C100000684968044AC1F30221515CC84070472A
:100C20000C00002000100240201D00080448054967
:100C300000684968044AC1F3C221515CC84070474A
:100C40000C00002000100240201D000812A185B0F9
:100C50000FC98DE80F0014A0144A00680490516871
:100C6000134801F00C03042B10D0082B0ED1C1F354
:100C70008343C9031DF803000AD5516804AAC1F3D0
:100C80004041515C0A4A5043B0FBF1F005B0704757
:100C900008494843FAE7000002030405060708096B
:100CA0000A0B0C0D0E0F1010010200000010024084
:100CB00000127A0000093D002DE9F84F040070D0C1
:100CC0002078C04DC00749D06868C0F38100012872
:100CD00007D06868C0F38100022809D16868C003A2
:100CE00006D52868800339D560680028E7D035E04C
:100CF0006068B0F5803F0BD010B1B0F5A02F11D0D7
:100D0000286820F480302860286820F4802002E0E1
:100D1000286840F480302860606890B1FFF750FD8B
:100D200006460AE0286840F480202860F0E700BF0B
:100D3000FFF746FD801B642873D828688003F7D529
:100D40000CE0FFF73DFD064605E000BFFFF738FD6C
:100D5000801B6428F0D828688003F7D420789A4E46
:100D600080074FF001094FF0000839D5686810F08E
:100D70000C0F07D06868C0F38100022809D16868A9
:100D8000C00306D42868800714D52069012808D13B
:100D900010E02069B0B1C6F80090FFF711FD0746DA
:100DA00005E00AE1FFF70CFDC01B0228C4D8286843
:100DB0008007F7D52868616920F0F80040EAC10093
:100DC00028600DE0C6F80080FFF7FAFC074604E053
:100DD000FFF7F6FCC01B022823D828688007F7D449
:100DE000207800072CD57948A169D9B1C0F80090C6
:100DF000FFF7E6FC074604E0FFF7E2FCC01B022811
:100E00000FD8686A8007F7D571484FF4FA51006827
:100E1000B0FBF1F0009000BF0098411E0091FAD2A3
:100E20000EE080E0C0F80080FFF7CAFC074604E04F
:100E3000FFF7C6FCC01B022875D8686A8007F7D484
:100E40002078400760D5E8690027C00008D4E86929
:100E500040F08050E861E869012700F08050009080
:100E60005C480168C90513D40168834641F4807168
:100E70000160FFF7A5FC824606E000BFFFF7A0FC7B
:100E8000A0EB0A0064284ED8DBF80000C005F5D5B9
:100E9000E06801280AD008B1052813D0286A20F09C
:100EA00001002862286A20F0040002E0286A40F06D
:100EB00001002862E06841F2883B98B1FFF780FCAE
:100EC00082460BE0286A40F004002862EEE700BF8B
:100ED000FFF776FCA0EB0A0159455AD8286A80072B
:100EE000F6D50CE0FFF76CFC824605E0FFF768FCE6
:100EF000A0EB0A0159454CD8286A8007F6D41FB1E7
:100F0000E86920F08050E861E06988B36968C1F35E
:100F10008101022944D00228C6F8608004D0FFF77E
:100F20004FFC044638E034E0FFF74AFC074604E093
:100F3000FFF746FCC01B02282BD828688001F7D495
:100F4000206AB0F5803F05D16868A16820F40030C0
:100F500008436860D4E908010843696821F4741102
:100F600008436860C6F86090FFF72AFC044606E074
:100F700025E000BFFFF724FC001B022809D82868E1
:100F80008001F7D51BE000BFFFF71AFC001B022809
:100F900002D90320BDE8F88F28688001F4D40EE060
:100FA0000128F7D06868226A00F48031914204D1A8
:100FB000616A00F47010884201D00120EAE7002045
:100FC000E8E7000000100240000042428004424274
:100FD0000C0000200070004010B5401EB0F1807F72
:100FE00001D3012010BD4FF0E02460610F21601794
:100FF00000F0AAFC0020A06107202061002010BDA5
:1010000070477047F8B5026804461068D1685369A4
:1010100010F00F0F4FF0000553D003F0010601F45C
:10102000907737435FD0C20705D0CA0503D5226C3D
:1010300042F001022264420705D5DA0703D0226C90
:1010400042F002022264820705D5DA0703D0226C3F
:1010500042F004022264020707D501F02002324365
:1010600003D0226C42F008022264226C002A34D0A1
:10107000800604D5880602D5204600F064FB20686F
:101080004069216CC0F38010090700D430B32046BA
:1010900000F041FB2068416949061BD5416921F0F8
:1010A00040014161A06BA8B158494163A06BFFF7B3
:1010B0002FFA002811D0A06B416B01B0BDE8F040C1
:1010C000084783060FD58B060DD52046BDE8F840AE
:1010D00000F039BB2046FFF794FFF8BD2046FFF72C
:1010E00090FF2564F8BD266B2023012E52D1C60641
:1010F00050D5CE064ED51068506800905069400615
:101100002AD5A16B086840680004000CEAD0A68DBF
:101110008642E7D9E0858869202818D0D06820F475
:101120008070D0602068416921F001014161206830
:10113000416921F04001416184F83E302563206817
:10114000C16821F01001C160A06BFFF7BEF9A08D4E
:10115000E18D401A81B219E0A08DE18D401A81B273
:10116000E08D0028BED00029BCD0D06820F490705B
:10117000D0602068426922F00102426184F83E306A
:1011800025632068C26822F01002C2602046FFF783
:1011900037FFF8BD05062BD50D0629D594F83D007F
:1011A0002128F6D1A068B0F5805F01D12069B0B1E7
:1011B000206A411C2162216800784860E08C401E52
:1011C0000004000CE084E4D12068C16821F08001B3
:1011D000C1602068C16841F04001C160F8BD206A6B
:1011E0000088C0F308005060206A801C2062E5E798
:1011F0004006F3D54806F1D5D168204621F04001DC
:10120000D16084F83D3000F0D0F8F8BD0717000831
:1012100070B5040004D094F83D00002510B106E03C
:10122000012070BD84F83C50204600F023F82420B3
:1012300084F83D002068C16821F40051C160204657
:1012400000F0DCFA2068016921F490410161206816
:10125000416921F02A0141612068C16841F40051CF
:10126000C1602564202084F83D0084F83E00002001
:1012700070BD000030B585B0002400940194029444
:1012800003940068184988422CD11848816941F4B8
:1012900080418161816901F480410491816941F05B
:1012A000040181618069124D00F0040004904FF444
:1012B00000700090022001900320039069462846A8
:1012C000FFF784F92815CDE9000469462846029401
:1012D000FFF77CF9002211462520FFF7CFFB2520E0
:1012E000FFF7BEFB05B030BD0038014000100240E2
:1012F00000080140704700002DE9F843044690F8CB
:101300003D001F4616460D4620284CD1C5B1BEB142
:1013100094F83C00012846D0012084F83C004FF0AE
:101320000008C4F84080212084F83D00FFF748FA07
:10133000A6848146E684A068B0F5805F03D004E00F
:101340000120BDE8F883206928B12E465FF0000532
:1013500084F83C800EE00026FAE78021204600F069
:10136000A9FAA0B9AEB116F8010B21684860E08C6B
:10137000401EE084E08C4B464FF0000200970028AE
:10138000EBD14FF04001204600F094FA30B1032039
:10139000D7E735F8020BC0F30800E6E7202084F811
:1013A0003D000020CDE70220CBE77047FEE710B5F7
:1013B00000F0FAF8082000F058F900F0D7F80820FB
:1013C00000F053F900F004F9082000F04EF900F0A5
:1013D000D5F8BDE81040082000F047B97FB50124DA
:1013E0008020CDE900040D4E022569460395304664
:1013F000FFF7ECF8012280213046FFF7DCF94020AE
:10140000CDE90004694603953046FFF7DFF8012275
:1014100080213046FFF7CFF97FBD0000000C01406E
:1014200070B586B000241C48009401940294039483
:10143000816941F010018161816901F0100104911D
:10144000816941F020018161816901F020010491ED
:10145000816941F004018161816901F00401049115
:10146000816941F00801816180690C4E00F008003B
:101470004FF400550490002229463046FFF79BF9AF
:1014800001200095CDE90104022003906946304611
:10149000FFF79CF806B070BD00100240001001403C
:1014A0000D4810B50B4901600C49416000214FF413
:1014B00080428160C0E9031241618161C1610162C2
:1014C000FFF784F9002803D0BDE81040FEF7FBBF0A
:1014D00010BD00000054004014000020A086010050
:1014E0000C4810B50A4901604FF4E1314160002118
:1014F00081600C22C160C0E904128161C161FFF703
:1015000087FE002803D0BDE81040FEF7DCBF10BD09
:101510000038014068000020FEE7FEE77047000049
:1015200070B5002400F02AF800F030F8082000F030
:101530009CF800F01BF8082000F097F80A4D01E035
:10154000641CA4B280212846FFF730F908B1642C4E
:10155000F6D3642C06D000F011F8082000F085F8CE
:10156000012070BD002070BD000C0140012240210F
:101570000148FFF720B90000000C01400022402183
:101580000148FFF718B90000000C01401FB500200A
:101590000190802000900220039069460148FFF7E7
:1015A00015F81FBD000C01401FB5012001908020DF
:1015B00000900220054C039069462046FFF706F88C
:1015C000012280212046FFF7F6F81FBD000C0140E4
:1015D0001FB501200190802000900220054C03904F
:1015E00069462046FEF7F2FF002280212046FFF7E1
:1015F000E2F81FBD000C0140704710B5FFF7BEFFB9
:10160000082000F032F8FFF7E3FF082000F02DF883
:10161000FFF7ACFF082000F028F8FFF7AFFF082025
:1016200000F023F8FFF7B2FFBDE81040082000F0FB
:101630001CB810B5FFF7A2FF082000F016F8FFF75E
:10164000B3FF082000F011F8FFF790FF082000F02A
:101650000CF8FFF793FF082000F007F8FFF7B8FF3A
:10166000BDE810400820AFF3008000B5801E0200E6
:1016700004D00120FEF724FF521EFAD100BD10B5A0
:10168000FFF7A6FF0820FFF7F0FFFFF76FFF082026
:10169000FFF7EBFFFFF788FFBDE810400820FFF7DA
:1016A000E4BFFFF785B930B58FB028216846FEF753
:1016B00042FD14210AA8FEF73EFD01210804CDE9F0
:1016C00000100024029402250491CDE907504FF444
:1016D000E01009906846FFF7EFFA08B172B6FEE72E
:1016E0000F20CDE90A054FF48060CDE90C400221BE
:1016F0000AA80E94FFF7F4F9002801D072B6FEE7AD
:101700000FB030BD704710B5406A0021C185C1845B
:10171000FFF777FC10BD0168CA6822F49072CA60B6
:1017200001684A6922F001024A61016B012904D172
:101730000168CA6822F01002CA60202180F83E10B9
:1017400000210163704708B590F83E10222901D0AE
:10175000022008BD82684FF480539A4201D101698A
:1017600021B1816A9A421BD04AB10AE00268816ABB
:101770005268C2F308020A80816A891C08E0026983
:1017800072B10268526802F07F020A70816A491CD5
:101790008162C18D491E0904090CC18503D019E07D
:1017A00002685268F1E70168CA6822F02002CA6044
:1017B0000168CA6822F48072CA6001684A6922F02E
:1017C00001024A61202180F83E10016B012903D0FB
:1017D000FFF790FD002008BD002101630168CA6881
:1017E00022F01002CA6001680A68D20602D50A68AF
:1017F00049680091818DFFF703FCEBE770B5044663
:1018000000680169E26821F44051114301612169D6
:10181000A0680843616908432168CA6841F20C6303
:101820009A430243CA6020684169A26921F4407169
:10183000114341611E492068884202D1FFF7F6F941
:1018400001E0FFF7E3F900EBC00101EB0012606873
:1018500064218000B2FBF0F3B3FBF1F36FF01806E4
:101860007343B2FBF0F5B2FBF0F605EB83053223D0
:1018700003EB0515B5FBF1F5B6FBF1F605F0F00548
:1018800005EB0615B2FBF0F6B2FBF0F0B0FBF1F0A1
:101890006FF01802504306EB800003EB0010B0FB22
:1018A000F1F0216800F00F002844886070BD00004E
:1018B000003801402DE9F041984617460E4604468F
:1018C000069D1DE0681C1BD02DB1FEF779FFA0EB33
:1018D0000800A84214D92068C16821F4D071C16001
:1018E0002068416921F001014161202084F83D0018
:1018F00084F83E00002084F83C000320BDE8F0811D
:101900002068006836EA000004D00020B842D9D030
:101910000020F3E70120F9E70148FFF773BB00005F
:1019200068000020FEE700000FB4054B10B503A9C6
:10193000044A029800F028F810BC5DF814FB00007F
:10194000DD1A0008100000200907090E002804DB3A
:1019500000F1E02080F80014704700F00F0000F163
:10196000E02080F8141D704702E008C8121F08C16B
:10197000002AFAD170477047002001E001C1121F10
:10198000002AFBD1704700002DE9FF4F89B09B462C
:101990000446002506E025280BD05A460B999047AF
:1019A000641C6D1C20780028F5D10DB02846BDE8D8
:1019B000F08F0027B8460122474900E0074314F89A
:1019C000013F203B02FA03F00842F7D120782E288D
:1019D00019D114F8010F47F004072A280ED06FF030
:1019E0002F022078A0F1300109290CD808EB8801DA
:1019F00002EB410100EB0108641CF2E70A98641C49
:101A000050F8048B0A9020780028CED0642808D0A3
:101A1000692806D075281ED05A460B9990476D1C30
:101A200058E00A994FF00A0901C90A91002802DA20
:101A300040422D2102E0390504D52B218DF82010DC
:101A4000012103E0F90704D02021F7E78A4608AE18
:101A50000DE00021FAE70A994FF00A0901C90A913D
:101A6000F7E74946FEF772FB303106F8011D002802
:101A7000F7D1ADEB060000F12009780701D44FF053
:101A80000108C84502DDA8EB090000E000208046FF
:101A9000002706E008A85A46C05D0B9990476D1CC8
:101AA0007F1C5745F6DB04E030205A460B999047DF
:101AB0006D1CB8F10001A8F10108F5DC05E016F88D
:101AC000010B5A460B9990476D1CB9F10001A9F121
:101AD0000109F4DC641C65E70928010013B54FF621
:101AE000FF73012269460548FFF706FC03480068BA
:101AF0000168C9434906FBD400981CBD680000205A
:101B000086B0FEF75DFFFFF7CEFDFFF789FCFFF71C
:101B1000C7FCFFF7E5FC0020039004903220FEF79D
:101B200043FDFEF73BFB4FF4FA70FEF73DFD674EB9
:101B30004FF40057002239463046FEF73CFEDFF8EE
:101B4000908164250A24002239463046FEF733FE90
:101B500003A8FEF78BFB03984FF47A714843000DFE
:101B6000059004984900484308EB1050009059A094
:101B7000FFF7DAFE6420FEF717FD59A0FFF7D4FE49
:101B80006420FEF711FD56A0FFF7CEFE6420FEF79D
:101B90000BFD53A0FFF7C8FE6420FEF705FD50A023
:101BA000FFF7C2FE6420FEF7FFFC4DA0FFF7BCFE6E
:101BB0006420FEF7F9FC4AA0FFF7B6FE6420FEF7AA
:101BC000F3FC47A0FFF7B0FE6420FEF7EDFC44A055
:101BD000FFF7AAFE6420FEF7E7FC41A0FFF7A4FE92
:101BE0006420FEF7E1FC3EA0FFF79EFE3DA0FFF75C
:101BF0009BFE009890FBF4F104FB110390FBF4F0C2
:101C000090FBF4F104FB1102009890FBF5F136A073
:101C1000FFF78AFE059890FBF4F104FB110390FB9B
:101C2000F4F090FBF4F104FB1102059890FBF5F140
:101C300031A0FFF779FE012239463046FEF7BBFDA1
:101C400028A0FFF771FE30A0FFF76EFE6420FEF7BC
:101C5000ABFC23A0FFF768FE6420FEF7A5FC20A0E4
:101C6000FFF762FE6420FEF79FFC1DA0FFF75CFEFD
:101C70006420FEF799FC1AA0FFF756FE6420FEF7D9
:101C800093FC17A0FFF750FE6420FEF78DFC14A014
:101C9000FFF74AFE6420FEF787FC11A0FFF744FE21
:101CA0006420FEF781FC0EA0FFF73EFE6420FEF7E5
:101CB0007BFC0BA0FFF738FE6420FEF775FC08A044
:101CC000FFF732FE07A0FFF72FFE3CE700100140B0
:101CD0000CFEFFFFD5FDD4DABCECB2E20000000040
:101CE0002E0000000D0A0000CEC2B6C83A256425B9
:101CF000642E256400000000CAAAB6C83A256425EF
:101D0000642E256400000000B5C8B4FD000000008A
:101D1000000000000000000001020304060708099B
:101D20000000000001020304481D0008000000201C
:101D300014000000681900085C1D00081400002051
:101D40009C04000078190008010000001000000049
:0C1D5000000000000024F400000000006F
:04000005080000ED02
:00000001FF
