:020000040800F2
:10000000783D00200501000805140008371200089B
:100010006913000855020008474600080000000068
:10002000000000000000000000000000E1450008A2
:10003000ED03000800000000E1440008E34500086B
:100040001F0100081F0100081F0100081F01000810
:100050001F0100081F0100081F0100081F01000800
:100060001F0100081F0100081F0100081F010008F0
:100070001F0100081F0100081F0100081F010008E0
:100080001F0100081F0100081F0100081F010008D0
:100090001F0100081F0100081F0100081F010008C0
:1000A0001F0100081F0100081F0100081F010008B0
:1000B0001F0100081F0100081F0100081F010008A0
:1000C0001F0100081F0100081F0100081F01000890
:1000D0001F0100081F0100081F0100081F01000880
:1000E0001F0100081F0100081F010008DFF810D0E1
:1000F00000F046F80048004789460008AFF300804A
:10010000783D00200648804706480047FEE7FEE7A6
:10011000FEE7FEE7FEE7FEE7FEE7FEE7FEE7FEE7B7
:1001200045460008ED00000872B6704762B6704799
:10013000EFF3108072B6704780F31088704730BFBD
:10014000704720BF7047B0FA80F0704790FAA0F077
:10015000B0FA80F0704790FAA0F07047D2B201E098
:1001600000F8012B491EFBD270470022F6E710B5BC
:1001700013460A4604461946FFF7F0FF204610BD15
:10018000064C074D06E0E06840F0010394E80700E4
:1001900098471034AC42F6D3FFF7ACFF4C5F000831
:1001A0006C5F000818484FF0FF010170002080F3D9
:1001B00009881648016881F3088815484FF0805176
:1001C000016062B6FEE772B6EFF3098028B120380D
:1001D00080E8F00F0F490968086000B50E488047B5
:1001E0005DF804EB0D480E490A78027009480D4984
:1001F0000A680260106890E8F00F203080F30988E8
:100200004EF0040E62B6704722ED00E03000002090
:1002100004ED00E0FC000020352300088E000020E3
:100220008F0000200001002010B500F005F8BDE8A7
:10023000104001F001B8000010B500F093FC044933
:100240000968BDE81040B0FBF1F002F0E1B9000030
:10025000205F0008FEE70000054910B50020486057
:1002600000F0A6F800F006F8BDE8104000F086B8EF
:10027000100000202DE9F041104D002427462C806D
:100280006C80AC60EC606C61AC612C61FFF750FF7E
:10029000804600266C6100F049F800F057F8686964
:1002A000761C36040744360CF4D0C5E90474404685
:1002B000AC61BDE8F041FFF73FBF00001000002037
:1002C00003490969884201D9401A704700207047E4
:1002D0001000002010B5FFF72BFF04494C69FFF711
:1002E0002BFF2046BDE81040FFF7EABF10000020BA
:1002F00010B5FFF7EFFF0446FFF71AFF034A00218E
:100300005161FFF719FF204610BD000010000020CA
:1003100010B5FFF70DFF04498C69FFF70DFF20466C
:10032000BDE81040FFF7CCBF1000002010B5064C10
:100330002088401C2080608810B900F051F8A0602F
:100340006088401C608010BD1000002010B50A4C71
:100350006088401E0004000C60800CD100F040F862
:10036000E060A168401A6169814200D26061A169C0
:10037000814200D2A06110BD1000002010B5FFF72F
:10038000D7FE0446FFF7D2FF1021054800F0EDFF2D
:10039000FFF7DCFF2046BDE81040FFF7CDBE0000B0
:1003A0001C0B00200149486070470000100000202D
:1003B000094810B5016841F08071016007480021CB
:1003C0004160016841F00101016000F0CBFBBDE834
:1003D0001040FFF7E7BF0000FCED00E0001000E078
:1003E0000148406870470000001000E0704772B696
:1003F000FEE700002DE9F84F203A0024DDF828B090
:100400000F46064602F0FF0A7F2802D900268F1CFD
:10041000FFB28020102B0DD0082B52D12A4A02EBBC
:10042000CA018246CDF800100098BBF1000F005DB4
:1004300027D124E0254804EB0A11BBF1000F405CF2
:1004400001D1C043C0B28146002507EB04088020DB
:10045000E84010EA090F06EB050008F0FF01C0B202
:1004600001D0012200E0002201F0BAF86D1CEDB2CB
:10047000082DECD3641CE4B2102CDBD31DE0C04388
:10048000C0B28146002507EB040800BF2AFA05F038
:1004900010EA090F06EB050008F0FF01C0B201D019
:1004A000012200E0002201F09BF86D1CEDB2082D46
:1004B000ECD3641CE4B2082CB6D3BDE8F84F00F0CE
:1004C000B5BFBDE8F88F0000EC480008E44B000819
:1004D0002DE9F84F0024DDF828A01E4690468946F5
:1004E0000546102B03D0082E19D1062713E0082744
:1004F00011E0334649462846CDF800A0FFF77AFFC1
:10050000E819C5B2782D04D909EB0600002500F0E2
:10051000FF09641CE4B218F80420002AE9D1BDE800
:10052000F88F000070B5044600F004F90546601C21
:1005300002D004480078044400F0FCF8401BA042BC
:10054000FAD370BD000000202DE9F84FDFF8B89114
:10055000002409F1040A0AF1040B23460F270BF1CA
:10056000040EC9E00125A5402A40AA427DD1674E6C
:10057000D1F804C0ACEB0608B44532D014DCBCF1B1
:10058000030F3AD009DCBCF1000F2AD0BCF1010FF7
:100590001CD0BCF1020F31D11DE0BCF1110F17D0FE
:1005A000BCF1120F2AD119E0B8F5881F19D006DC6A
:1005B000B8F5803F15D0B8F5801F1FD111E0B8F510
:1005C000001F0ED0B8F5041F18D10AE0CB6815E063
:1005D000CB681B1D12E0CB6808330FE0CB680C33EF
:1005E0000CE08B682BB1012B4FF0080303D0456161
:1005F00004E0042302E0056100E00023FF2A01D8A3
:10060000064601E000F104064FEA840501D9A5F190
:100610002005D6F8008007FA05FC28EA0C0803FA42
:1006200005F548EA0508C6F800804D68ED0062D57A
:10063000374DAE6946F00106AE61AD6924F00306A0
:1006400005F001050095334D06EB050CDCF808506C
:10065000A607360F07FA06F825EA0805DFF8B8807E
:10066000404503D14FF0000817E044E0DFF8AC80CC
:10067000404502D14FF001080FE0DFF8A48040456B
:1006800002D14FF0020808E0DFF89880404502D11F
:100690004FF0030801E04FF0040808FA06F848EAB2
:1006A0000508CCF808804D68D9F80060ED034D4688
:1006B00001D5164300E096432E604D68DAF80060DD
:1006C000AD03554601D5164300E096432E604D68B4
:1006D000DBF80060ED025D4601D5164300E096436D
:1006E0002E604D68DEF80060AD02754601D51643F8
:1006F00000E096432E60641C0D682A46E5407FF4B6
:1007000031AFBDE8F88F0000000401400000111077
:10071000001002400000014000080140000C0140B0
:1007200000100140001401400AB101617047090442
:10073000FBE70000014880687047000000000020CF
:1007400070B5040025D094F83D00002520B984F848
:100750003C50204600F0B8F8242084F83D00206882
:10076000016821F0010101602068016841F4004145
:1007700001602068016821F40041016000F0F8F98F
:100780004D4A6168914201D84C4900E04C49884289
:1007900001D2012070BD4B492368B0FBF1F15E68C6
:1007A00026F03F060E435E606368934206D94FF41D
:1007B000967359434FF47A73B1FBF3F12368491CE4
:1007C0001E6A26F03F06314319626168914210D8D3
:1007D0004900401EB0FBF1F2521CC2F30B02042A86
:1007E00001D2042022E0B0FBF1F0401CC0F30B006A
:1007F0001CE0A268F2B301EBC10303EB0116431E38
:10080000B3FBF6F35B1C43F480431B0549D092B362
:1008100001EBC10202EB0111401EB0FBF1F0401CE4
:10082000C0F30B0040F4804040F400402168CA69E6
:100830004CF6FF739A431043C861D4E90710014393
:100840002068026822F0C00211430160D4E903016C
:1008500001432068826848F2FF339A431143816064
:10086000D4E9050108432168CA6822F0FF02104359
:10087000C86001E00EE016E02068016841F0010167
:1008800001602564202084F83D00256384F83E50F3
:10089000002070BD01EB4106431EB3FBF6F35B1C69
:1008A000B3E70120C2E701EB4101401EB0FBF1F0CC
:1008B000401CC0F30B00B7E7A086010080841E0037
:1008C00000093D0040420F0010B586B000210091A4
:1008D00001910291039100680F4988421AD10F4C8F
:1008E000A06940F00800A061A069694600F0080016
:1008F0000490C0200090122001900320039008482B
:10090000FFF722FEE06940F40010E061E06900F4C6
:100910000010049006B010BD0054004000100240CA
:10092000000C0140024881680278114481607047E0
:1009300000000020074810B5016841F01001016077
:10094000032000F067F80F2000F006F800F024F80C
:10095000002010BD0020024070B50D4D04464FF43C
:100960007A712878B1FBF0F00A490968B1FBF0F020
:1009700000F04DFC48B9102C07D200222146501E31
:1009800000F028F800206C6070BD012070BD0000F0
:10099000000000200C0000200C4808B5816941F0DF
:1009A00001018161816901F001010091C16941F09A
:1009B0008051C161C06900F08050009004484168D6
:1009C00021F0E06141F00071416008BD001002407B
:1009D00000000140F0B40E4B1B680C46C3F3022329
:1009E000C3F10705042D00D90425191D072901D2DB
:1009F000002300E0DB1E012606FA05F1491E214016
:100A000099409E40761E16403143F0BC03F01CBE58
:100A10000CED00E0064900F0070208684FF6FF03FE
:100A2000184040EA0220034A104308607047000063
:100A30000CED00E00000FA052DE9F0470F46050037
:100A400061D0434E306800F00700B84209D23068E8
:100A500020F0070038433060306800F00700B842EB
:100A600051D128683B4C810712D5400703D56068F7
:100A700040F4E06060602878000703D5606840F4C7
:100A8000605060606068A96820F0F0000843606012
:100A90002878C00728D06868012810D0216802286B
:100AA00010D0890700292EDA616821F00301014383
:100AB0006160FFF73FFE804641F288390DE0216812
:100AC0008903EFE78901EDE7FFF734FEA0EB0801AA
:100AD000494502D90320BDE8F0876068696800F0E5
:100AE0000C00B0EB810FEFD1306800F00700B84286
:100AF0000BD9306820F0070038433060306800F0D0
:100B00000700B84201D00120E5E72878400705D565
:100B10006068E96820F4E0600843606028780007B6
:100B200006D56068296920F4605040EAC100606021
:100B300000F02EF86168084AC1F30311515CC84007
:100B40000649086006480068FFF706FF0020C2E774
:100B50000020024000100240D44800080C00002091
:100B60000400002001480068704700000C000020CD
:100B70000448054900684968044AC1F30221515CF0
:100B8000C84070470C00002000100240E4480008F4
:100B900012A185B00FC98DE80F0014A0144A006897
:100BA00004905168134801F00C03042B10D0082B5B
:100BB0000ED1C1F38343C9031DF803000AD5516860
:100BC00004AAC1F34041515C0A4A5043B0FBF1F022
:100BD00005B0704708494843FAE7000002030405DE
:100BE000060708090A0B0C0D0E0F10100102000079
:100BF0000010024000127A0000093D002DE9F84F74
:100C0000040070D02078C04DC00749D06868C0F398
:100C10008100012807D06868C0F38100022809D14B
:100C20006868C00306D52868800339D56068002845
:100C3000E7D035E06068B0F5803F0BD010B1B0F57B
:100C4000A02F11D0286820F480302860286820F474
:100C5000802002E0286840F480302860606890B10D
:100C6000FFF768FD06460AE0286840F48020286007
:100C7000F0E700BFFFF75EFD801B642873D828688B
:100C80008003F7D50CE0FFF755FD064605E000BFF1
:100C9000FFF750FD801B6428F0D828688003F7D444
:100CA00020789A4E80074FF001094FF0000839D59F
:100CB000686810F00C0F07D06868C0F38100022844
:100CC00009D16868C00306D42868800714D5206954
:100CD000012808D110E02069B0B1C6F80090FFF7F4
:100CE00029FD074605E00AE1FFF724FDC01B0228A5
:100CF000C4D828688007F7D52868616920F0F80013
:100D000040EAC10028600DE0C6F80080FFF712FD40
:100D1000074604E0FFF70EFDC01B022823D8286811
:100D20008007F7D4207800072CD57948A169D9B17C
:100D3000C0F80090FFF7FEFC074604E0FFF7FAFC5E
:100D4000C01B02280FD8686A8007F7D571484FF496
:100D5000FA510068B0FBF1F0009000BF0098411E0E
:100D60000091FAD20EE080E0C0F80080FFF7E2FCCC
:100D7000074604E0FFF7DEFCC01B022875D8686A4E
:100D80008007F7D42078400760D5E8690027C000C5
:100D900008D4E86940F08050E861E869012700F074
:100DA000805000905C480168C90513D401688346EF
:100DB00041F480710160FFF7BDFC824606E000BF90
:100DC000FFF7B8FCA0EB0A0064284ED8DBF800005F
:100DD000C005F5D5E06801280AD008B1052813D070
:100DE000286A20F001002862286A20F0040002E04E
:100DF000286A40F001002862E06841F2883B98B11F
:100E0000FFF798FC82460BE0286A40F00400286255
:100E1000EEE700BFFFF78EFCA0EB0A0159455AD858
:100E2000286A8007F6D50CE0FFF784FC824605E0CF
:100E3000FFF780FCA0EB0A0159454CD8286A8007CF
:100E4000F6D41FB1E86920F08050E861E06988B30A
:100E50006968C1F38101022944D00228C6F8608084
:100E600004D0FFF767FC044638E034E0FFF762FC8B
:100E7000074604E0FFF75EFCC01B02282BD8286859
:100E80008001F7D4206AB0F5803F05D16868A16879
:100E900020F4003008436860D4E908010843696819
:100EA00021F4741108436860C6F86090FFF742FCB3
:100EB000044606E025E000BFFFF73CFC001B0228CB
:100EC00009D828688001F7D51BE000BFFFF732FC86
:100ED000001B022802D90320BDE8F88F2868800192
:100EE000F4D40EE00128F7D06868226A00F480315B
:100EF000914204D1616A00F47010884201D001204F
:100F0000EAE70020E8E7000000100240000042424B
:100F1000800442420C0000200070004070B50400C4
:100F200009D0606A002540B125616561A56294F829
:100F3000510040B10CE0012070BD6068B0F5827FC7
:100F4000F4D0E561F2E784F85050204600F040F814
:100F5000022084F851002068016821F040010160FE
:100F6000A088218900F4827001F404410843A1891A
:100F700001F400610843217C01F002010843217D56
:100F800001F001010843218B01F400710843217F26
:100F900001F03801084394F8201001F08001084363
:100FA000218D01F40051084321680860A0690421E3
:100FB00001EA1040216848602068C16921F400619D
:100FC000C1616565012084F85100002070BD0000FA
:100FD00000B585B000210091019102910391006854
:100FE0000F4988421AD10F48816941F480518161CB
:100FF000816901F480510491816941F004018161AA
:101000008069694600F004000490A020009002204E
:101010000190032003900448FFF796FA05B000BD45
:101020000030014000100240000801402DE9F84F57
:10103000044690F8500000270A9E1D4692468B46B3
:101040004FF0010901280ED0012084F85000FFF76D
:1010500071FB804694F85100616801280CD0B1F50D
:10106000827F07D102E00220BDE8F88FA16809B9AC
:10107000042801D00227C2E0BBF1000F27D0BAF14B
:10108000000F24D01DB394F85100042802D005208D
:1010900084F8510000206065C4F838A0E587A58772
:1010A000C4F830B0E586A5862064606420680168D5
:1010B000490603D4016841F040010160E068B0F5E1
:1010C000006F606805D0E8B3012D46D07FE00127AE
:1010D00095E008B1012D39D1206B21680088C860E6
:1010E000206B801C2063E08E401EE0862EE020688E
:1010F000816889070FD5E18E69B1B9F1010F0AD175
:10110000216B0988C160206B801C2063E08E401E2B
:10111000E0864FF0000920688168C9070CD0E18F94
:1011200051B1C068A16B0880A06B801CA063E08FE8
:10113000401EE0874FF00109FFF7FCFAA0EB080022
:10114000B04200E009E001D3701C50D1E08E0028CD
:10115000CDD1E08F0028CAD13FE0206B2168007814
:101160000873206B401C2063E08E401EE0862EE05A
:101170002068816889070FD5E18E69B1B9F1010F47
:101180000AD1216B09780173206B401C2063E08E2B
:10119000401EE0864FF0000920688168C9070CD026
:1011A000E18F51B1C068A16B0870A06B401CA063B7
:1011B000E08F401EE0874FF00109FFF7BBFAA0EB7C
:1011C0000800B04202D3701C01D010E07EB1E08E66
:1011D0000028CDD1E08F0028CAD1424631462046B2
:1011E00003F092F928B101272020606507E003276A
:1011F00005E0A06818B92068C168806800900120E7
:1012000084F85100002084F8500038462CE710B5CF
:10121000401EB0F1807F01D3012010BD4FF0E024CB
:1012200060610F21601703F00FFA0020A061072012
:101230002061002010BDFEE72DE9F04186B00024BA
:1012400024480094019402940394816941F01001B0
:101250008161816901F010010491816941F02001EF
:101260008161816901F020010491816941F00401EB
:101270008161816901F004010491816941F00801F3
:1012800081618069144F00F008004FF4005504900C
:10129000002229463846FFF747FADFF8408000224F
:1012A00058214046FFF740FA009502260125039693
:1012B000CDE9015469463846FFF746F95820CDE993
:1012C0000005CDE9024669464046FFF73DF906B004
:1012D000BDE8F0810010024000100140000801400C
:1012E0000D4810B50B4901600C49416000214FF4D5
:1012F00080428160C0E9031241618161C161016284
:10130000FFF71EFA002803D0BDE81040FFF76FB8C2
:1013100010BD00000054004070060020A0860100AF
:10132000104810B50E4901604FF4827141600021F0
:101330008160C1604FF400720161C0E905120822AA
:10134000C0E90721416281620A21C162FFF7E6FD1F
:10135000002803D0BDE81040FFF749B810BD0000D9
:1013600000300140C4060020FEE70A46002100F0DC
:1013700023B800000D480E490246C0E900120021C2
:101380008160C160016141618161C161016201638C
:10139000C162416200F148018163C1634FF4A05111
:1013A0000164416403480260704700002C0B002078
:1013B000484541502C00002010B5002A21D00028BB
:1013C0001FD000244FEA04035B1C41EA0424042BD1
:1013D000FAD310F0030305D10BE000BF521E00F852
:1013E000011B5B1C002A0CD0042BF7D301E010C0BA
:1013F000121F042AFBD202E000F8011B521E002A31
:10140000FAD110BDFEE7000010B54FF4806120B1A5
:10141000FF220548FEF7A2FE02E00348FEF7A5FE04
:10142000BDE8104000F002B81C07002070B5104E57
:101430000024002104F1B00000F0E4F80021084687
:1014400000F0E0F80021102000F0DCF85FF000056B
:1014500005EBC4100121305C00F0D4F86D1CEDB236
:10146000802DF5D3641CE4B2082CE2D370BD0000DB
:101470001C07002010B500F06BF8C820FFF752F8E9
:1014800000F092F80021AE2000F0BCF800210846E0
:1014900000F0B8F80021102000F0B4F8002140203E
:1014A00000F0B0F80021B02000F0ACF8002181205D
:1014B00000F0A8F80021FF2000F0A4F80021A120EE
:1014C00000F0A0F80021A62000F09CF80021A82040
:1014D00000F098F800213F2000F094F80021C82087
:1014E00000F090F80021D32000F08CF8002108468D
:1014F00000F088F80021D52000F084F80021802039
:1015000000F080F80021D92000F07CF80021F120C3
:1015100000F078F80021DA2000F074F800211220A1
:1015200000F070F80021DB2000F06CF80021302082
:1015300000F068F800218D2000F064F800211420EC
:1015400000F060F80021BDE81040AF2000F05AB86C
:1015500010B586B0002000900190029003901048D2
:10156000816941F00401816180690E4C00F0040042
:101570000490002258212046FFF7D6F8582000900A
:10158000012001900220039069462046FEF7DCFF0F
:10159000012258212046FFF7C7F806B010BD000011
:1015A000001002400008014010B50C4C01224021FF
:1015B0002046FFF7B9F86420FEF7B4FF002240216F
:1015C0002046FFF7B1F86420FEF7ACFF2046012269
:1015D000BDE810404021FFF7A7B800000008014017
:1015E00030B501F007050123AB40054CC90800EBFD
:1015F000C111605C0AB1184300E09843605430BDEB
:101600001C07002070B50C4D044609B1012200E012
:10161000002210212846FFF787F8002208212846DB
:10162000FFF782F8E0B202F05DFF2846BDE87040A7
:1016300001220821FFF778B8000801407047000038
:1016400002480068002800D000477047440000208E
:1016500010B5044600F0BEF8464800210A22017089
:1016600045480170454801704548016045480160A2
:101670004548017045480170454801704548016082
:10168000454801604548016045480170454800688B
:10169000B0FBF2F0444A1060444A106830B144484C
:1016A000006818B1126802C0521EFCD141480160A6
:1016B0004148016041480160414801604148016082
:1016C00041480160414801604148017001F0A0FCBF
:1016D00001F052FD204600F0B1FF2088002847D1DC
:1016E000204601F0A5FA2088002841D1204601F0CB
:1016F000ABFA208800283BD1204601F03FFB208830
:10170000002835D1204601F0A9FC208800282FD1DF
:10171000204601F059FE2088002829D1204602F0F9
:10172000C5F82088002823D1204601F0F5F920884B
:1017300000281DD1204601F08DF82088002817D1FF
:10174000204602F01FFD2088002811D1204602F01B
:101750000BF8208800280BD1204602F067FD208876
:10176000002805D100F068FFBDE81040FFF766BF14
:1017700010BD00005800002060000020A8000020DC
:10178000FC000020000100208E0000208F000020BF
:10179000900000209C000020A0000020A400002059
:1017A000B0000020205F0008AC000020FC5E0008B4
:1017B000F85E0008380000203C00002040000020B7
:1017C00044000020480000204C0000205000002071
:1017D000DE00002030B5094B0020094A0446196894
:1017E00001E010C1401C1568A842FAD318680549E9
:1017F00000EB8500001F086030BD0000F85E0008A7
:10180000FC5E0008300000201A4810B5007801285E
:101810002FD1FEF78DFC184A0446117829B1491ED4
:1018200011F0FF00107022D103E0BDE81040FEF778
:1018300083BC12480078D0B901F0D8FB1049087079
:10184000104900EB400051F820100F4801600F488C
:10185000006881420BD051F8900F401C08600C4882
:101860000168491C01600B494FF080500860204618
:10187000DBE710BD6000002058000020A800002019
:101880008F000020A035002000010020FC00002077
:10189000D400002004ED00E0164810B500780028C0
:1018A00026D115480078002822D1FEF741FC0446D5
:1018B00001F09CFB11490870114900EB400051F800
:1018C0002000104908601049096888420BD050F880
:1018D000901F491C01600D480168491C01600C49BA
:1018E0004FF0805008602046BDE81040FEF724BC51
:1018F00010BD000058000020A80000208F0000202C
:10190000A035002000010020FC000020D4000020B1
:1019100004ED00E070B504461248007810B146F6B8
:1019200062501DE010480078012802D045F6896019
:1019300016E00E4D2878FA2802D345F209200FE070
:10194000FEF7F6FB0646FEF7F1FC2878401C2870EF
:1019500001F0DAFCFEF7FAFC3046FEF7EDFB002062
:10196000208070BD5800002060000020A8000020EA
:101970002DE9F04116460C460546FEF7D9FB074611
:10198000FEF7D4FC29460D480025012901D0057039
:1019900001E0012101700A480CB1046005E0094929
:1019A0000A220968B1FBF2F10160FEF7CFFC38466C
:1019B000FEF7C2FB3580BDE8F0810000B0000020DA
:1019C000AC000020205F000870B50446184800787D
:1019D00010B146F6655029E016480078012802D07B
:1019E00045F6896022E0144D287890B1FEF7A0FBFF
:1019F0000646FEF79BFC2878401E10F0FF0028707A
:101A00000AD0FEF7A3FC3046FEF796FB46F663507D
:101A10000CE046F6645009E001F084FCFEF796FC09
:101A20003046FEF789FBFFF737FF0020208070BDAE
:101A30005800002060000020A800002070B50F4D65
:101A40000446287818B145F68A60208070BD01F000
:101A5000CDFA0B4908700B4908700B4900EB4000A8
:101A600051F82000094908600949086001202870E0
:101A7000FEF798FB43F69920E7E70000600000209E
:101A80008F0000208E000020A035002000010020E3
:101A9000FC0000202DE9F0410646FEF749FB054613
:101AA000FEF744FC2E48002404602E4804802E4893
:101AB00004802E4804602E4804602E4804602E489E
:101AC00004602E4804602E480481FEF73FFC28463F
:101AD000FEF732FBFEF72CFB0746FEF727FC2948F2
:101AE000056818E0FEF724FB0746FEF71FFCC5F863
:101AF000B440C5F8B84045F8784F2C63AC61AC826F
:101B0000EC826C62AC62FEF76BFC45F8200FA5F12D
:101B100034008481AD6AFEF719FC3846FEF70CFBF1
:101B2000002DDFD1FEF704FB0746FEF7FFFB16484A
:101B3000056806E0FEF7FCFA0746FEF7F7FBAC8502
:101B4000AD69FEF703FC3846FEF7F6FA002DF1D139
:101B500002F032FA02F038FC3480BDE8F081000077
:101B6000740000206E000020BE000020D000002085
:101B7000E4000020EC0000205C000020A000002019
:101B800094350020D800002094000020F8B50446C9
:101B90006946244800F0A4FBBDF8000058BB6A4623
:101BA0000021022000F0FAFBBDF8000018BBFEF790
:101BB000BFFA0746FEF7BAFB1B4E00253560FEF75D
:101BC000C5FB3846FEF7B8FA184919480A68036891
:101BD0009A4202D9B2FBF3F010B90A21B2FBF1F03C
:101BE0006A46002100F0DAFB69460E4800F0F2F97F
:101BF000BDF8000008B12080F8BDFEF799FA07464D
:101C0000FEF794FB0B480C490560306808600B49EF
:101C100001200870FEF79AFB3846FEF78DFA258002
:101C2000F8BD0000B0380020C0000020205F000890
:101C30000C5F0008D0000020C4000020CC00002071
:101C400002480068002800D0004770474800002084
:101C50002DE9FF4F83B004467248DDE91785DDE9C1
:101C600010960078DDF854A0139F10B147F24A1087
:101C70002AE04CB1059850B166B16B4800688742C4
:101C80000BD246F630601FE047F2AD101CE047F281
:101C90004F1019E046F62F6016E01298B84202D3B2
:101CA00046F6316010E046F27320B9F1200F0BD2F6
:101CB0005FEA090103D0B9F11F0F02D008E05B49C8
:101CC00000E05B498C4203D0288007B0BDE8F08F6C
:101CD000204601F0FBFD4FF0000BA5F800B05FEAD5
:101CE000C8700AD05FEA887007D5304600215A468E
:101CF00001E004C0491CB942FBD31298CDE9007839
:101D000006EB8005DDE905012B46324600F0B0FA0E
:101D10000599A1620699E1620499216284F83790DD
:101D2000C4F854A0A56020605FEA0A0024D0A06532
:101D30001698A76366626060A4F83C80002059464C
:101D400004EB8002401CD16710F0FF00F8D004F1D2
:101D50006400149900F0C6FF204600F075F8FEF705
:101D6000E7F90646FEF7E2FA324D2878401CC0B289
:101D70002870012803D004E02F480068D7E701F05D
:101D8000C3FAFEF7E3FA3046FEF7D6F994F83700C7
:101D900001F044F9204601F035FA204601F058FDE3
:101DA00026490888401C088025480078012821D051
:101DB000FEF7BEF90446FEF7B9FA2878401E10F087
:101DC000FF0129700ED101F0ADFA1E48008848B11C
:101DD000FEF7BCFA2046FEF7AFF907B0BDE8F04FBA
:101DE00001F06EBAFEF7B2FA07B02046BDE8F04F38
:101DF000FEF7A2B9FEF79CF90446FEF797FA287899
:101E0000401E10F0FF01297001D101F08BFAFEF79E
:101E10009DFA2046FEF790F907B0BDE8F04FFFF7B6
:101E20003BBD0000580000201C5F0008CC3400209F
:101E300004340020A8000020AC000020DC000020BA
:101E4000600000206C00002002490968002900D0D1
:101E500008477047380000202DE9F04104465248F9
:101E60000E46007810B147F24E100AE04F48844207
:101E700002D147F24C1004E04D48844204D147F2AD
:101E80004D100880BDE8F0815CB9FEF751F90546B8
:101E9000FEF74CFA47480468FEF758FA2846FEF762
:101EA0004BF9FEF745F90746FEF740FA424D287810
:101EB000401CC0B22870012801D101F025FAFEF7BC
:101EC00045FA3846FEF738F994F8360008283DD22E
:101ED000DFE800F004080C0C1C080C0C204601F094
:101EE000C5F913E0204602F04BF80FE0204602F05F
:101EF00047F894F83400072808D2DFE800F0070418
:101F0000070404040400204600F0E3FF04F1640029
:101F100000F0CEFE204600F055F8204601F0AAFC65
:101F200026490888401E0880204601F0CFFCFF208B
:101F300084F83600FEF7FCF80446FEF7F7F9287837
:101F4000401E10F0FF00287021D022E0FEF7F0F8CC
:101F50000446FEF7EBF92878401E10F0FF002870C9
:101F60000CD101F0DFF91648008838B1FEF7EEF920
:101F70002046FEF7E1F801F0A3F904E0FEF7E6F9E8
:101F80002046FEF7D9F846F62D6030807AE701F05A
:101F9000C9F9FEF7DBF92046FEF7CEF800203080C5
:101FA000BDE8F041FFF778BC580000200434002061
:101FB000CC340020FC000020A8000020DC00002021
:101FC0006C00002002490968002900D008477047CA
:101FD0003C0000207FB50D460446FEF7A9F80646F2
:101FE000FEF7A4F91CB114480068844208D1FEF73A
:101FF000ADF93046FEF7A0F847F2571028807FBDB4
:10200000FEF7A4F93046FEF797F80C48007858B16F
:102010000020CDE9020500900346024601902146CA
:10202000074800F04BFC7FBD04B029462046BDE8C0
:10203000704001F05FBD0000FC000020580000204F
:102040005452455302490968002900D00847704797
:10205000400000202DE9F0478146574814461E46AF
:102060000078884610B146F2AE1006E0080006D0AF
:10207000B1F5004F03D045F6256018803DE00027FC
:1020800004B12760FEF754F88246FEF74FF94B4D36
:102090002968486CD8B1401E804648640CB1086C71
:1020A0002060FEF79DF929680A6C801AC1F8A40027
:1020B000D1F8A820824201D2C1F8A800FEF746F963
:1020C0005046FEF739F837804046BDE8F0875FEAB2
:1020D000084007D5FEF73AF95046FEF72DF846F2CC
:1020E000B01009E03648017849B1FEF72FF95046A3
:1020F000FEF722F846F6635030800020E5E7012124
:102100008046017001F000F9FEF720F95046FEF715
:1021100013F800214B460722084600F03BFEFEF76D
:1021200007F88146FEF702F998F80010491E11F0F1
:10213000FF0188F8001001D101F0F4F8FEF706F96C
:102140004846FDF7F9FFFFF7A7FBFDF7F1FF8046D3
:10215000FEF7ECF8286890F8351031B1012916D057
:1021600003291AD046F62E601BE074B1006C206083
:10217000FEF736F929680A6C801AC1F8A400D1F874
:10218000A820824201D2C1F8A80037800AE00CB131
:10219000006C206046F2A91003E004B1276047F20A
:1021A000D92030802868446CFEF7D0F84046FDF70F
:1021B000C3FF204689E7000058000020FC000020F3
:1021C000A80000202DE9F0470546274816460F468F
:1021D00000781C4610B147F259100AE046F2D520AB
:1021E0003FB136B1FDF7A4FF8146FEF79FF81DB160
:1021F00004E01880BDE8F0871C4805684FF000082F
:10220000286858B195F83C00C00713D0FEF79EF837
:102210004846FDF791FF0020696A1AE0FEF796F83C
:102220004846FDF789FFC7F8008047F25210C6F80C
:1022300000800AE0FEF78AF84846FDF77DFFC7F800
:10224000008047F25410C6F800802080D2E7401C7E
:10225000091D0A68002AFAD03860A96B081A306094
:10226000A4F80080C6E7000058000020FC00002011
:1022700010B5029C02EB84024FF0807442E9020424
:10228000164842F80C0C4FF0123042F8100CA2F134
:1022900014004FF0023240E903134FF0113140F8BF
:1022A000101CD10040F8141C4FF0093140F8181CE4
:1022B000910040F81C1C4FF007314FF0033440F8F8
:1022C000201C610040F8241C4FF0053140F8281D07
:1022D0005100C0E9092440F8041D10BDF53B000879
:1022E0001FB5104A904202D147F25B1004E00E4A3B
:1022F000904203D147F25C1008801FBD0B4A127850
:1023000052B10022CDE9022101460092134601920A
:10231000074800F0D3FA1FBD04B0BDE8104001F03B
:1023200039BD000004340020CC34002058000020C7
:102330005453555370B51548006800B18047FEF7F7
:102340004FF8134C134A21681268914207D0D1F814
:102350009830C31A41F8943F8D682B448B60C2F8C3
:102360009800FDF7C5FF2168D1F8B420824201D260
:10237000C1F8B400084AD1F8B8301068834201D2DD
:10238000C1F8B8000020106070BD00004C000020B3
:10239000FC00002000010020A40000202DE9F041F5
:1023A000804636480F461546007810B147F2752032
:1023B00020E0334C207810B146F663501AE047B164
:1023C000022F06D0042F07D0082F02D045F6256033
:1023D00010E0B8F1000F0BD0FDF7AAFE0646FDF79E
:1023E000A5FF2078401CC0B22070012805D006E06F
:1023F00047F27E201080BDE8F08100F085FFFDF7F8
:10240000A5FF3046FDF798FE1E4E01212B46306891
:102410003A4680F83610414601F046FD288898B1CA
:10242000FDF786FE0546FDF781FF2078401E10F07F
:10243000FF01217001D100F075FFFDF787FF2846ED
:10244000BDE8F041FDF778BE306800F00FFFFDF702
:102450006FFE0646FDF76AFF2078401E10F0FF0071
:10246000207001D100F05EFFFDF770FF3046FDF7F0
:1024700063FEFFF711FA00202880BCE75800002017
:10248000A8000020FC0000202DE9F0475C4EDDE9AB
:102490000854367816B147F27520ABE0DFF864A136
:1024A0009AF8006016B146F66350A3E015F00E06E8
:1024B00047F27E2945F6256705D0022E03D0042E6B
:1024C00006D0082E07D11BB912B909B900287DD052
:1024D00035F01E0C02D02780BDE8F087C5F300154B
:1024E00047F2792C47F278284FF47A773DB142F2DF
:1024F0000F75A94212D900BFA4F800C0ECE7BB4297
:1025000002D347F27B2075E03B2A02D947F27A20BA
:1025100070E03B29F0D8632802D804E0B84202D327
:10252000A4F80080D8E7384D4FF4FA7CC1EB0111D4
:102530002D68BCFBF5FC63446B43B3FBF7F34FF42E
:102540006167784300EB8100104400FB0537EFB36F
:10255000FDF7EEFD8046FDF7E9FE9AF800005546CE
:10256000401CC0B28AF80000012801D100F0CCFE66
:10257000FDF7ECFE4046FDF7DFFDDFF8908001211E
:102580002346D8F80000324680F83610394601F06C
:102590008BFC208898B1FDF7CBFD0446FDF7C6FE05
:1025A0002878401E10F0FF01297001D100F0BAFE1A
:1025B000FDF7CCFE2046BDE8F047FDF7BDBDD8F8DD
:1025C000000000F053FEFDF7B3FD00E014E0064606
:1025D000FDF7ACFE2878401E10F0FF00287001D1F6
:1025E00000F0A0FEFDF7B2FE3046FDF7A5FDFFF7B7
:1025F00053F9002020806FE7A4F800906CE70000FA
:1026000058000020A8000020205F0008FC000020E7
:102610004FF0E021401E48610648026822F07F42E8
:102620000260086940F005000861086940F0020096
:102630000861704720ED00E070470000034A002168
:102640001160034A1180018070470000780000206B
:102650007C0000202DE9F05F9A4690460D46044626
:102660000A9FFDF765FD8346FDF760FE5FEA0800FF
:1026700024D0012807D0B0F5004F1FD06FF40041DF
:1026800018EB010F12D1206A30EA0500C4E9080AEC
:10269000208A04F108064FF0000990B14D4D2878CA
:1026A000401CC0B22870012815D016E0FDF74EFE80
:1026B0005846FDF741FD45F625606CE0206A284349
:1026C000E4E7FDF743FE5846FDF736FDA7F8009016
:1026D000206ABDE8F09F00F017FEFDF737FE584670
:1026E000FDF72AFD366833E090F88810766801F02F
:1026F0000F0101291BD0022921D004290DD008295E
:1027000010D0FDF715FD0446FDF710FE2878401E99
:1027100010F0FF0028702AD036E0216AD0F880201F
:10272000114009E0216AD0F8802011400BE0D0F878
:102730008010236A0A4699438A4205D007E0D0F800
:102740008010226A914311B1524600F047F816B149
:10275000B0680028C8D1FDF7EBFC0646FDF7E6FDA2
:102760002878401E10F0FF00287017D018E000F005
:10277000D9FD1948008838B1FDF7E8FD2046FDF77E
:10278000DBFC00F09DFD04E0FDF7E0FD2046FDF7D9
:10279000D3FC43F6FF20388000209AE700F0C2FD0A
:1027A000FDF7D4FD3046FDF7C7FC5FEA084001D4D1
:1027B000FFF772F8FDF7BCFC0546FDF7B7FD246A8C
:1027C000FDF7C4FD2846FDF7B7FCA7F800902046AA
:1027D0007FE70000A80000206C00002070B50025F5
:1027E000C0F8841080F8355080F8345004460264F4
:1027F00090F8360008280ED2DFE800F00D0D040432
:102800000D0D0A0A204601F067F984F8365002E0FF
:10281000042084F836002046BDE8704000F059BB23
:102820000A4C0B4DFDF784FC0646FDF77FFD206842
:10283000401C20602868401C2860FDF787FD30465A
:10284000FDF77AFCFEF7FCFEECE7000054000020E8
:10285000C000002000B50E4A89B0002111600B2293
:1028600005910691CDE907200A480B4A0B4B0068F9
:1028700012681B680292CDE903011F20CDE9000315
:102880000023074A07A10C48FFF7E2F909B000BD91
:1028900054000020E05E0008DC5E0008D85E0008FE
:1028A0002128000875432F4F532D49494920496479
:1028B0006C65205461736B00043400202DE9F84FDF
:1028C0001D46DDE90CB4DDE90AA916460F4680462F
:1028D000FDF72EFC0090FDF729FD1D481D4A0188DB
:1028E000128891422DD2491C89B201801A4802886F
:1028F0008A4200D2018019490868C0F80080C0E906
:1029000002760582C0F814A0A0F81890C0F81CB098
:10291000406808601248012101811249016041604C
:10292000002000F07BFB1048007808B10F490870C8
:1029300000202080FDF70AFD0098BDE8F84FFDF764
:10294000FBBB0B490888401C088044F25360F0E749
:102950006C000020E85E00086E000020640000208B
:10296000A0350020CC3400208E00002090000020F4
:10297000700000203EB5374C374B02A92068026832
:10298000D51A9A4245D015DC344BD2182DD0344B91
:10299000D21822D0334BD21832D0334BDA4208D17E
:1029A000C269CDE90021038B028AC168806800F00A
:1029B000F1FF3EBD2D4AAA181ED02D4BD21824D0AF
:1029C0002C4BDA42F5D1C269CDE90021038B028A92
:1029D000C168806800F04EFB3EBD0091028BC36968
:1029E00041698068FFF736FE3EBD018BC269806891
:1029F00002AB00F0F5FC3EBD806801F07BF83EBD07
:102A0000018BC269806802AB21E0806801F0C2F9E5
:102A10003EBD19481949007800EB400001EB8000E9
:102A200000F09EFC206802AB0021C269144801F04E
:102A3000EDF814480168491E0160E9D1124909689E
:102A40000160FDF7CDFC024602AB00210F4801F00A
:102A5000DDF83EBD680000205449434BADBAB2BE1C
:102A60000DF90BFAF2F8F7FF0006F6FF00F7FDF795
:102A700000FFEFFF03FE0FFE90000020A0350020B6
:102A8000E8370020F8000020F4000020B0380020D3
:102A90001D4D1E4C1E4E00BFFDF74AFB0746FDF7BD
:102AA00045FC208808B3FDF751FC3846FDF744FB90
:102AB000FDF796FC0746FFF75DFFFDF791FC2968DF
:102AC000C01B814200D22860FDF732FB0746FDF7AC
:102AD0002DFC3068406830602088401E2080FDF763
:102AE00035FC3846FDF728FBD6E70A490020088167
:102AF0000860486000F0A2FAFDF728FC3846FDF7B0
:102B00001BFBFEF7C9FEC5E7740000206C00002027
:102B100068000020A0350020F0B52F492F4D89B066
:102B200000220A80296831B12D4E3188022905D250
:102B300044F2546135E044F2526132E02949002305
:102B4000294F0A60296801F1200410E041F8087B50
:102B50005B1C41F8082B9BB241F8042C21F8102B88
:102B600041F80C2C21F8082C41F81C4C2034B6F804
:102B700000C06345EAD32B6841F81C3C1B490B603D
:102B80001B490B601B490A801B490A801B490B68C3
:102B900053B11B4B1B4D1C682D68AC4207D244F24D
:102BA0005661018009B0F0BD44F25561F9E7032494
:102BB00005920692CDE907401868134B09681B6817
:102BC000CDE903020092CDE9011300230F4A10A1C1
:102BD0001648FFF73DF8E5E770000020E45E0008C6
:102BE000E85E0008740000204E4F4E45640000204F
:102BF000680000206C0000206E000020EC5E0008E1
:102C0000F45E00081C5F0008F05E0008912A0008CE
:102C100075432F4F532D494949204953522051752F
:102C2000657565205461736B00000000CC34002092
:102C3000034A00211160034A11800180704700009F
:102C40008000002084000020F0B5164C216859B1A6
:102C5000154E318859B189B2491E22688FB20025BC
:102C600002F1100329460EE045F21E7118E045F20C
:102C70001D7115E0E2E802316D1C22F8081BADB2AF
:102C800042F8041C1033BD42F4D31160516011812D
:102C9000D160064A2368136033889380D180118104
:102CA0000180F0BD045F0008005F0008943500203B
:102CB00010B5428992B10A4903680C681C604368E8
:102CC0000B60CB8844891B1BCB808B8844892344B1
:102CD0008B8000214181818101604160104610BDDF
:102CE0009435002001810021418181810160416092
:102CF00070470000F0B54489DDE905E70589AC427D
:102D000002D346F293501EE01B4DAE88CEB12C6824
:102D1000761ED4F800C0C5F800C0AE80EE88761CE0
:102D2000B6B2EE80B5F808C0B44500D22E8146890F
:102D3000002556B1DB060ED403681C6004602560D4
:102D40000CE045F21D703880F0BD04600123446042
:102D50004381256005E043682360446043895B1C30
:102D60004381868943899E4200D2838161602281AA
:102D7000C4F80CE03D80F0BD94350020034A0021EA
:102D80001160034A11800180704700008800002014
:102D90008C0000202DE9F041114D07460C462868B3
:102DA0000026194680F8342080F8356000F03AFD9E
:102DB00064B1FC6004F1080601223946286800F07D
:102DC00011F83946304600F057F802E02868C68707
:102DD000066320462968BDE8F04100F01BB80000FA
:102DE000FC00002010B5C2870024234601630EE0DA
:102DF0004B6041F8103B641C41F8103BA4B241F811
:102E00000C3C21F8083C41F8043C41F8180C944271
:102E1000EED310BD38B14268C1F8C420816889681A
:102E2000096AC161704791F83400022803D007286D
:102E300003D004A002E004A000E005A0C1F8C40093
:102E400070470000200000005461736B20510000A7
:102E50005461736B2053656D0000000005A2C1F83A
:102E6000C420816811B18968096A00E001A1C161CB
:102E7000704700002000000030B58A68002392F8F7
:102E8000374002891AB1521C028102680BE001220C
:102E900002814B600B60016014E0956895F8375033
:102EA000A54203D85268002AF7D107E032B114686E
:102EB00054B1C1E900426160116030BD4B604268AD
:102EC0000A605160416030BD1160C1E900320160AB
:102ED00030BD70B50646C48F056B07E0E86829462B
:102EE000083000F009F8641EA4B22035002CF5D19A
:102EF0000020F087306370BD10B502890023012ADD
:102F00000BD00A6862B14C6874B1546022600289C7
:102F1000521E02814B600B6010BD03604360F6E7F8
:102F20004A6813600260F2E753604260EFE7F8B569
:102F30000C46064691F836100025069808293BD223
:102F4000DFE801F03A3A04043A3A202094F83410C9
:102F5000032911D0E265A4F86030206436B1204620
:102F6000FFF7B7FF21463046FFF778FF204600F015
:102F7000B3FD84F836501BE000902146304600F047
:102F800022F8EBE794F83410032916D0E265A4F890
:102F900060302064204600F0F3FF36B12046FFF792
:102FA00098FF21463046FFF759FF042084F8360089
:102FB00084F8355084F83450F8BD009021463046EE
:102FC00000F001F8E6E770B50C6B049DC98F0AE0CC
:102FD000E668864204D1C4E904022383E56170BD3A
:102FE000491E89B220340029F2D170BD10B50024E9
:102FF000064802E02034E4B2001D01680029F9D03F
:103000000846FDF7A0F82044C0B210BD34000020EF
:1030100001490020086070473400002000F01F02C2
:1030200041090120C2F11F029040034A52F82130A9
:10303000034342F8213070473400002000F01F02A3
:1030400041090120C2F11F029040034A52F8213089
:10305000834342F82130704734000020034A0021A6
:103060001160034A11800180704700009400002025
:10307000980000202DE9FF4F83B01F46DDE9109A2C
:1030800093460646FDF754F80546FDF74FF9384CD0
:103090002078401CC0B22070012801D100F034F922
:1030A000FDF754F92846FDF747F8358A06F1080080
:1030B0001DB1B90530D500683CE0F80601D4002305
:1030C00000E01023CDE9009A5A4606F12000049949
:1030D000FFF710FEFDF72CF80546FDF727F92078DD
:1030E000401E10F0FF0121700ED100F01BF92148A5
:1030F000008848B1FDF72AF92846FDF71DF807B00A
:10310000BDE8F04F00F0DCB8FDF720F907B0284625
:10311000BDE8F04FFDF710B8006801255B46D0E927
:103120000181CDF800903046049AFFF700FF6D1E34
:103130004046ADB2002DF1D1FCF7FAFF0546FDF790
:10314000F5F82078401E10F0FF00207001D100F04B
:10315000E9F8FDF7FBF82846FCF7EEFF380401D448
:10316000FEF79AFB0021AAF8001007B0BDE8F08F27
:10317000A80000206C0000200020074B014600BF83
:1031800000EB400203EB8202401C11811160C0B2CF
:1031900051602028F4D37047A035002010B50446B4
:1031A00090F83700FFF73AFF074994F8370009789D
:1031B0008842204603D1BDE8104000F023B8BDE8A6
:1031C000104000F003B800008E00002090F8371087
:1031D0000B4A01EB410102EB810100220B8943B153
:1031E0005B1C0B810B68C0E903320A681061086040
:1031F000704701230B81C26002610860486070471C
:10320000A035002090F837100A4A01EB410102EB8B
:10321000810100220B893BB15B1C0B81C2604A68B3
:103220000261D0604860704701230B81C260026177
:103230000860F7E7A035002010B50289002A14D0F5
:10324000012A12D00021022A07D0D0E90024D36835
:103250001961C2E90314E26005E0D0E90023C2E984
:103260000313C3E90321C0E9003210BD70B5054660
:1032700090F83700114900EB400001EB8001D5E9DF
:103280000302002442B10B895B1E0B81D06090B118
:1032900002612C61EC6070BD28B10A89521E0A815E
:1032A00004610860F5E70C810C604C6095F837000C
:1032B000FFF7C4FEEDE74A60EBE70000A035002011
:1032C00010B5FCF735FF0B4A002111700B4A0A4973
:1032D000116051F8902F521C0A6009490A68521C6B
:1032E0000A60084A4FF080511160BDE81040FCF7B9
:1032F00023BF00008F000020CC34002000010020FC
:10330000D400002004ED00E0044810B50078012846
:1033100003D1FDF765F80249086010BDA800002040
:103320009C0000200A4810B5007800280ED1FDF757
:1033300057F808490968401A07490A68824200D2CA
:10334000086006490A68824200D2086010BD000089
:10335000A80000209C000020A0000020A400002065
:1033600070B5044614480078012824D1FCF7E0FE2B
:103370000546FCF7DBFF2168B1B11048814213D04C
:103380008A6D12B1521E8A650ED1208902280BD394
:103390000B48007840B92046FFF74EFF2068416D8A
:1033A00009B9084909688165FCF7D0FF2846BDE8DE
:1033B0007040FCF7C1BE70BDB00000200434002096
:1033C000A8000020AC000020034A00211160034A3D
:1033D0001180018070470000B4000020B800002078
:1033E0002DE9F84F1E46904689460446FCF7A0FE9C
:1033F0000090FCF79BFF208A04F108074FF0000BB8
:1034000050B1DFF8BCA09AF80010491CC9B28AF884
:10341000001001291AD01BE0256A681C0CD06D1C15
:10342000C4E90858FCF792FF0098FCF785FEA6F85F
:1034300000B02846BDE8F88FFCF788FF0098FCF73D
:103440007BFE46F6C55030800020F3E7FFF75CFFB7
:10345000FCF77CFF0098FCF76FFE5FEA895002D50D
:103460003D893F680CE03F6801250023B9687F680B
:103470001A462046CDF80080FFF759FD6D1EADB20B
:10348000002DF2D1246AFCF753FE0546FCF74EFFEF
:103490009AF80000401E10F0FF008AF8000001D1E9
:1034A000FFF740FFFCF752FF2846FCF745FE5FEAB6
:1034B000094001D4FEF7F0F9A6F800B02046B9E7BC
:1034C000A80000200EB5964C964E2068450004E0FA
:1034D00028466A460021FEF761FF30780128F7D1BF
:1034E0006846FEF7D7FA904822680168914206D9EB
:1034F0000A462168B2FBF1F15FEA010803D10068D6
:103500000A21B0FBF1F8DFF824B2894F42F2107AB9
:103510005FF00006FCF764FF0190FCF7F9FE8549B7
:103520000860FCF705FE0546FCF700FF8248834C67
:10353000016821600660FCF709FF2846FCF7FCFDE6
:103540007F48236802689A422BD97E48824202D281
:103550005046012115E07C48824203D24FF47A7034
:103560000A210EE07948824202D26420014608E036
:103570007748824203D20A204FF47A7101E0012099
:103580005146B2FBF1F15843B0FBF1F0AAEB000059
:10359000704980B2ABF800000A88824203D20880EA
:1035A00001E0ABF800A0FEF74BFB0024FCF7C0FDE8
:1035B0008146FCF7BBFE3D6842E000BFFCF7B8FD6A
:1035C0000290FCF7B3FEDFF8909199F80010491CC7
:1035D000C9B289F80010012901D1FFF795FEFCF767
:1035E000B5FE0298FCF7A8FDD5F89C00C5E9276058
:1035F000FCF79EFD0290FCF799FE99F80010491E19
:1036000011F0FF0189F800100CD1FFF78BFE534831
:10361000008838B1FCF79AFE0298FCF78DFDFFF7A1
:103620004FFE04E0FCF792FE0298FCF785FD55F88A
:10363000A00F0444FCF77CFD8146FCF777FE2D6A61
:10364000FCF784FE4846FCF777FD002DB6D12CB37D
:103650003C48844202D25546012015E03A48844253
:1036600003D24FF47A750A200EE03848844202D221
:103670006425284608E03648844203D20A254FF4E0
:103680007A7001E001255046B4FBF0F08146FCF76A
:103690004FFD0290FCF74AFE3C6822E00025012025
:1036A000F4E700BFD4F8A0006843B0FBF9F080B2A3
:1036B000504500D95046A4F88C00B4F88E108142D1
:1036C00001D2A4F88E0004F1AC026B46111D204615
:1036D000FEF778FDFCF72CFD0290FCF727FED4F8EE
:1036E000C040FCF733FE0298FCF726FD002CD9D130
:1036F0001B480178012903D106706846FEF7CAF914
:10370000FCF76EFE0199401A16490A68824200D2FF
:1037100008606A4600214046FEF740FEFAE60000D7
:103720000C5F0008CC000020205F0008BC000020D7
:10373000D80000205C000020C0000020C80000204D
:10374000C4000020801A060000093D00005A6202F1
:103750000084D717BE000020A80000206C000020C5
:10376000BA000020D000002030B51D4A89B00021E9
:1037700011601C4A11601C4A11601C4A11701C4ADD
:1037800011701C4A136843B11B4B1C4D1C682D68FB
:10379000AC4205D246F62C6108E046F62B6105E006
:1037A000174C25781F2D04D346F62A61018009B0F5
:1037B00030BD032505910691CDE9075011481B68DE
:1037C00012680068CDE90120CDE90331207800902E
:1037D00000230D4A0DA11248FEF73AFAE7E7000070
:1037E000C0000020C8000020C4000020CC00002041
:1037F000BA000020105F0008185F00081C5F000876
:10380000085F0008145F0008C534000875432F4F97
:10381000532D4949492053746174205461736B00DE
:103820002037002038B50446022531B16B4602220C
:1038300000F03AFBBDF8000028B184F8365020466D
:10384000FFF714FD38BD032084F83600F7E70000C9
:10385000074B0022C0F8BC20196829B1C0F8C0107D
:10386000C1F8BC0018607047C0F8C020FAE700003B
:10387000D8000020D0E92F2100234AB181B1C2F83D
:10388000C010C1F8BC20C0F8C030C0F8BC307047D0
:10389000054A116009B1C1F8BC30C0F8C0307047AA
:1038A000C2F8C030F1E70000D8000020044A00212F
:1038B0001160044A1180044A1160018070470000C1
:1038C000D8000020DC000020D400002070B50025C6
:1038D000056085604560C560056145610446856198
:1038E00029A0C4E907506562A562E5622563E58702
:1038F0002564E565A4F86050002104F16400FFF739
:10390000F1F96567A567C4F88050A4F888500020D5
:10391000C4F8845004EB8001401CCD6710F0FF0018
:10392000F8D06564C4F8A450C4F8A850A56384F81E
:103930008A50C4F8B050C4F8AC50A5874FF000408E
:10394000C4E9120525656565A565A4F88C50A4F841
:103950008E50C4F89050C4F894503434FCF740FDB5
:10396000C4E91905C4F88050C4F8845004F8015B18
:10397000202004F8015B04F8015B04F8850B04A027
:1039800020C4C4E9005070BD3F5461736B00000057
:10399000200000002DE9FC5F9946DDE90C76924697
:1039A0008B460546FCF7C4FB8046FCF7BFFC474C42
:1039B0002078401CC0B22070012801D1FFF7A4FC80
:1039C000FCF7C4FC4046FCF7B7FB0DB9404805685E
:1039D0000020308095F83600DFF8F880082852D2B1
:1039E000DFE800F00404262604042626CDE900764C
:1039F0004B465246594605F16400FFF77BF9FCF748
:103A000097FB0546FCF792FC2078401E10F0FF0162
:103A1000217031D1FFF786FCB8F8000060B3FCF7E5
:103A200095FC2846FCF788FBBDE8FC5FFFF748BC27
:103A300095F834000228D9D153465A462946002029
:103A40000097FFF774FAFCF773FB0546FCF76EFC72
:103A50002078401E10F0FF01217001D1FFF762FCB9
:103A6000FCF774FC2846FCF767FB5FEA09402AD4A0
:103A7000BDE8FC5FFDF710BFFCF768FC2846BDE819
:103A8000FC5FFCF759BBFCF753FB0546FCF74EFC0B
:103A90002078401E10F0FF0020700CD1FFF742FC90
:103AA000B8F8000038B1FCF751FC2846FCF744FB9D
:103AB000FFF706FC04E0FCF749FC2846FCF73CFB5A
:103AC00046F62D603080BDE8FC9F0000A800002075
:103AD000FC0000206C00002010B5044600F050FAF5
:103AE00094F83600400704D42046BDE81040FFF7A4
:103AF00055BB10BD2DE9F0410D460446FCF718FBFF
:103B00000746FCF713FC00262E8094F836000828A0
:103B100064D2DFE800F0040404040D394955FCF7D1
:103B200015FC3846FCF708FB47F25310288037E0B5
:103B30002F4D2878401CC0B22870012801D1FFF712
:103B4000E3FBFCF703FC3846FCF7F6FA94F88A002E
:103B5000401E10F0FF0084F88A0004D184F836601B
:103B60002046FFF7B9FFFCF7E3FA0446FCF7DEFB5B
:103B70002878401E10F0FF01297001D1FFF7D2FB19
:103B8000FCF7E4FB204609E094F88A00401E10F0A0
:103B9000FF0084F88A001BD101200EE0FCF7CCFA6C
:103BA000BDE8F041FDF778BE94F88A00401E10F0A1
:103BB000FF0084F88A000BD1022084F8360007E069
:103BC00094F88A00401E10F0FF0084F88A0003D0A9
:103BD000FCF7BCFB3846E1E70320EEE7FCF7B6FB59
:103BE0003846FCF7A9FA46F62D602880BDE8F0813A
:103BF000A8000020044808B50068FEF723FA6946CB
:103C00000020FEF729F908BDFC0000202DE9F84F3F
:103C1000984691468B460646FCF78AFA0546FCF71D
:103C200085FB594C2078401CC0B22070012801D17E
:103C3000FFF76AFBFCF78AFB2846FCF77DFA0EB912
:103C4000524806680020524FC6F84090A8F800007D
:103C500096F8360046F6C55A082872D2DFE800F01A
:103C600033332F2F33332F2FFCF770FB2846FCF70D
:103C700063FAFFF725FB04E0FCF768FB2846FCF736
:103C80005BFAA8F800A00020BDE8F88F6D1C7564F1
:103C9000FCF74EFA0646FCF749FB2078401E10F070
:103CA000FF00207047D1FFF73DFB3888F0B3FCF7E9
:103CB0004DFB3046FCF740FAFFF702FB62E096F856
:103CC0003400072813D0756C681CDFD1FCF730FA7C
:103CD0000546FCF72BFB2078401E10F0FF002070FB
:103CE000CAD1FFF71FFB38880028C5D0BCE70023E6
:103CF0001A4631461846CDF80090FFF718F9756C52
:103D0000FCF716FA0646FCF711FB2078401E10F06F
:103D1000FF00207001D1FFF705FBFCF717FB3046D1
:103D2000FCF70AFA5FEA0B402CD401E003E008E05C
:103D3000FDF7B2FD26E0FCF709FB3046FCF7FCF985
:103D400020E0FCF7F5F90546FCF7F0FA2078401E74
:103D500010F0FF0020700BD1FFF7E4FA388838B17B
:103D6000FCF7F4FA2846FCF7E7F9FFF7A9FA04E0B4
:103D7000FCF7ECFA2846FCF7DFF946F62D60A8F8C8
:103D80000000002528467FE7A8000020FC00002056
:103D90006C0000202DE9F0410D460446FCF7C8F9FF
:103DA0000746FCF7C3FA334804B90468016832488F
:103DB0008C4209D1017839B1FCF7C8FA3846FCF7D2
:103DC000BBF946F6635052E00021298094F8361082
:103DD0000126082944D2DFE801F0043133393B3BA6
:103DE0003B3B05460078401CC0B22870012801D139
:103DF000FFF78AFAFCF7AAFA3846FCF79DF9042087
:103E000084F8360084F88A602046FFF72FFAFCF722
:103E10008FF90446FCF78AFA2878401E10F0FF015B
:103E2000297001D1FFF77EFAFCF790FA4FEA0400FF
:103E3000FCF782F9BDE8F041FDF72EBD052000E05A
:103E4000062084F8360084F88A6005E00720F8E749
:103E500014F88A0F401C2070FCF778FA3846E7E720
:103E6000FCF774FA3846FCF767F946F62D602880AF
:103E7000BDE8F081FC000020A800002010B5002063
:103E80000146074C074B06E004EBC002401C1160E2
:103E90009180D18080B21A889042F5D310BD000085
:103EA000F4300020345F0008F0B5324C47F27E2633
:103EB00025680024042A08D0B1B32E4E082A36689B
:103EC0000E440BD0C0E9136115E04A1B521E12F5D7
:103ED000803F2AD8521CC0E913120CE0826C0A44BD
:103EE000571B7F1E8F4201D2C26400E0C664C16CC2
:103EF0004A1B02658164204AC16C1288B1FBF2F64C
:103F000002FB16111D4A89B202EBC102918889B1E8
:103F10001168F1B1CE6C761B0E65076DB74212D9F0
:103F20004E6966B13146F5E7FFE7C4640465C461D4
:103F30001E80F0BD44618461012110600BE0C0E986
:103F40000541486105E08D6975B1C0E905156861F5
:103F500088619188491C9180D58889B28D4200D2B0
:103F6000D180C2611C80F0BDC0E905148861106079
:103F7000EFE70000E0000020345F0008F43000208C
:103F800010B5C269002A15D000210165136883426B
:103F900004D14369136033B1996104E0D0E9053479
:103FA000636103B19C6141618161C161C1649088B9
:103FB000401E908010BD000010B500200446064B46
:103FC000064A04E003EBC001401CCC8080B211889B
:103FD0008842F7D310BD0000F4300020345F0008A1
:103FE0002DE9F05FFCF7A4F80446FCF79FF9554D66
:103FF0002878401CC1B22970012901D1FFF784F94A
:10400000FCF7A4F92046FCF797F8FCF7E9F9DFF88C
:10401000388107464D49D8F800004FF00009401C90
:10402000C8F8000009884FF0030AB0FBF1F201FB69
:104030001200474980B24FF0040B51F8304074B37E
:1040400094F836006669082851D2DFE800F0500481
:10405000501150295036E06CD8F80010421A2265F1
:10406000884246D184F836902046FFF735FD3EE081
:10407000E06CD8F80010421A2265884239D1C4F8A1
:104080005C90A4F86090FCF7ABF920642046FEF742
:1040900020FF2046FFF720FD84F8369023E028E03B
:1040A000E06CD8F80010421A2265884221D184F8C9
:1040B00036B02046FFF764FF19E0E06CD8F8001036
:1040C000421A2265884214D1C4F85C90A4F860902A
:1040D000FCF786F920642046FEF7FBFE2046FFF73A
:1040E0004FFF84F836B084F835A084F83490344615
:1040F000A5E7FCF775F91749C01B0A68824200D290
:104100000860FCF715F80446FCF710F92878401E03
:1041100010F0FF0129700DD1FFF704F90E48008857
:1041200040B1FCF713F92046FCF706F8BDE8F05F54
:10413000FFF7C6B8FCF70AF92046BDE8F05FFBF7C9
:10414000FBBF0000A8000020E0000020345F000852
:10415000F4300020E40000206C0000201CB5084C66
:1041600000216B4601AA0846FDF774FFBDF8000068
:104170000028F5D120780128F2D1FFF731FFEFE7D1
:104180006000002030B504461A4889B0002505605B
:1041900019480560FFF772FE1848016841B11849D7
:1041A000184B0A681B689A4205D247F2132008E0B0
:1041B00047F2122005E0144A13781F2B04D347F26C
:1041C0001120208009B030BD0B2305950695CDE95F
:1041D00007340E4B096800681B68CDE90103CDE97F
:1041E0000315107800900023094A0AA10E48FDF734
:1041F0002FFDE7E7E0000020E4000020285F000832
:10420000305F00081C5F0008245F00082C5F000876
:104210005D41000875432F4F532D4949492054698A
:10422000636B205461736B00E837002030B52A4A75
:1042300089B00021294B1160294C2A4A1D681DB103
:104240002468B4FBF5F303E023680A24B3FBF4F31A
:1042500013601A46244B274D274C1A60234A1160DD
:10426000234A1160002206E005EBC203521C99802C
:10427000D98092B2196023889A42F5D31F4B1A68ED
:1042800042B11F4A1F4D14682D68AC4205D247F257
:10429000483108E047F2473105E01B4C25781F2DD7
:1042A00004D347F24631018009B030BD0B2505919A
:1042B0000691CDE907501068144A1B681268CDE9D1
:1042C0000301CDE90132207800900023104A11A1AA
:1042D0001648FDF7BDFCE7E7E8000020385F00085E
:1042E000205F0008F4000020F8000020F00000200B
:1042F000EC0000207C330020485F00083C5F000891
:10430000445F00081C5F0008365F0008405F00083B
:10431000F143000875432F4F532D494949205469F3
:104320006D6572205461736B00000000B03800208E
:1043300070B5022280F82A20204A012914681ED074
:10434000016AE1B11E4A214481611288B1FBF2F396
:1043500002FB13121B4B92B203EBC202002315683F
:104360007DB1091BC1611168D1B18D692D1BCD6172
:10437000C669AE420ED90D6945B12946F5E7416AD5
:10438000E0E703614361106001200BE0C0E9043104
:10439000086105E04C6964B1C0E90414206148611A
:1043A0009088401C9080D18880B2814200D2D08019
:1043B00070BDC0E9041348611060F1E7F00000200F
:1043C000485F00087C33002010B500200446064BEF
:1043D000064A04E003EBC001401CCC8080B2118887
:1043E0008842F7D310BD00007C330020485F0008EE
:1043F0001CB5DFF89090DFF890A0244DDFF890B066
:1044000000216B4601AA0846FDF724FE6846FDF729
:1044100081FAFBF7E5FF064628684FF00308401CC9
:104420002860B9F80010B0FBF1F201FB120080B275
:104430005AF83040C4B1A06929682769884213D16D
:10444000204600F027F8208D022808D084F82A8022
:10445000A26812B12046E16890473C46EAE7012194
:104460002046FFF765FFF3E7FBF7BAFF841B6846BA
:10447000FDF7AAFADBF80010A142C1D2CBF8004048
:10448000BEE70000485F00087C330020F0000020F9
:10449000EC00002010B5104A81691288B1FBF2F3DC
:1044A00002FB13110D4A89B202EBC102002314680A
:1044B0000169844203D1116029B14B6103E0446971
:1044C000216101B14C61012180F82A10036143612F
:1044D0009088401E908010BD485F00087C3300200B
:1044E0007047000001B582B001208DF804006420FF
:1044F0000090012301AA02A90248FCF797FD9DF84C
:1045000004000EBDC406002038B50B4600920446D8
:104510000022802100F008F8002804D0606D40F0EF
:1045200020006065032038BD2DE9F8431E46914602
:1045300088460446089DFCF7FDF8401B351AFCF739
:10454000F9F8074625480068C0F3CB30684338E0E7
:10455000701C37D0FCF7EEF8C01BA84203D215B18F
:10456000009860B32CE02068416821F0E0014160D0
:104570006068B0F5827F0BD1A068B0F5004F02D023
:10458000B0F5806F04D12068016821F0400101601E
:10459000A06AB0F5005F09D12068016821F40051DC
:1045A00001602068016841F400510160012084F835
:1045B0005100002084F850000320BDE8F883002556
:1045C000401E00902068816838EA010004D0002174
:1045D0004945BDD10020F0E70121F9E70C0000209A
:1045E0007047FCF79FB930B58FB028216846FBF7BC
:1045F000BCFD14210AA8FBF7B8FD01210804CDE990
:1046000000100024029402250491CDE907504FF4D4
:10461000E01009906846FCF7F1FA08B172B6FEE7BF
:104620000F20CDE90A054FF48060CDE90C4002214E
:104630000AA80E94FCF700FA002801D072B6FEE733
:104640000FB030BD7047FEE70907090E002804DBF4
:1046500000F1E02080F80014704700F00F0000F136
:10466000E02080F8141D704702E008C8121F08C13E
:10467000002AFAD170477047002001E001C1121FE3
:10468000002AFBD17047000030B58BB009A8FCF7B9
:10469000DFFFFCF74FF9FFF7A6FFFCF7CDFDFCF7B6
:1046A0001FFEFCF73DFEFCF7E5FE0020FCF7ACFE2C
:1046B000002409AD2346012221462046CDE90045CC
:1046C000FDF7E2FE00212E20FCF79CFF00212720B1
:1046D000FCF798FF00210846FCF794FF00210846EC
:1046E000FCF790FF00210720FCF78CFF002102203F
:1046F000FCF788FF00210846FCF784FF0021FF201B
:10470000FCF780FF0120009010230FA20021282039
:10471000FBF7DEFE0320CDE906400D4B40210622CB
:1047200008950594CDE90003CDE902210494002306
:10473000084A09A10B48FDF78BFA09A8FDF77EF995
:104740000BB0002030BD000070707170706C000004
:1047500004010020B9470008737461727420746109
:10476000736B00000404002008B5FBF75DFDFBF748
:1047700073FDFCF7FFFD6846FDF708FAFBF7B8FD8F
:1047800008BD0EB5FBF750FDFBF766FDFCF7F2FD2B
:1047900002A8FDF7FBF9FBF7ABFD002402AD0021F9
:1047A0002F20FCF72FFF00231E2219461846CDE9C3
:1047B0000045FDF769FEF2E72DE9F0438BB0FBF70A
:1047C00033FD09A8FDF7E2F9FBF792FD012109AAE3
:1047D0000846FDF7CDF8FBF7ABFC0446FBF7A6FD5A
:1047E000DFF8BC9099F80000401CC2B289F80020A4
:1047F000012A01D1FEF788FDFBF7A8FD2046FBF753
:104800009BFC00240326CDE9064609AD4FF00608BF
:1048100024490895059404208DE803014027CDE93B
:1048200003742346204A21A12348FDF711FACDE95C
:10483000064622490895059405208DE803011E4887
:10484000CDE9037400231E4A1EA1C830FDF700FA0B
:10485000194809A9C838FFF79DFAFBF769FC044617
:10486000FBF764FD99F80000401E10F0FF0289F884
:1048700000200ED1FEF756FD1548008848B1FBF721
:1048800065FD2046FBF758FCFEF71AFD0BB0BDE8AE
:10489000F083FBF75BFD2046FBF74EFCF6E70000DC
:1048A000A8000020040200208347000873686F7787
:1048B0005F726F6C6C000000CC04002004030020C9
:1048C0006947000873686F775F6168743230000071
:1048D0006C00002000000000000000000102030442
:1048E00006070809000000000102030400000000A0
:1048F00000000000101010100010000028282800F0
:104900000000000028287C287C282800103C503813
:1049100014781000004C2C100860600030485020C3
:1049200054483400301020000000000008102020FF
:10493000201008002010080808102000001054382B
:10494000541000000010107C101000000000000047
:1049500000180810000000007C00000000000000AB
:1049600000303000000408102040000038444C544F
:104970006444380010301010101038003844040817
:1049800010207C007C0810080444380008182848CF
:104990007C0808007C4078040444380018204078E3
:1049A000444438007C040810202020003844443857
:1049B000444438003844443C04083000003030009F
:1049C000303000000030300030102000081020404F
:1049D0002010080000007C007C000000201008046B
:1049E0000810200038440408100010003844043433
:1049F0005C443800102844447C44440078444478A3
:104A000044447800384440404044380070484444AE
:104A1000444870007C40407840407C007C404078B6
:104A2000404040003844405C44443C004444447CA2
:104A30004444440038101010101038001C080808B6
:104A400008483000444850605048440040404040CE
:104A500040407C00446C54544444440044446454F6
:104A60004C44440038444444444438007844447836
:104A7000404040003844444454483400784444782A
:104A8000504844003C404038040478007C1010102A
:104A90001010100044444444444438004444444406
:104AA00044281000444444545454280044442810DA
:104AB0002844440044444428101010007C0408108A
:104AC00020407C003820202020203800004020108A
:104AD00008040000380808080808380010284400B6
:104AE000000000000000000000007C002010080012
:104AF00000000000000038043C443C004040586482
:104B00004444780000003840404438000404344CE9
:104B100044443C00000038447C4038003824207075
:104B20002020200000003C44443C043840405864AD
:104B300044444400100030101010380008001808D9
:104B4000080848304040485060504800301010106D
:104B500010103800000068545444440000005864A9
:104B60004444440000003844444438000000586481
:104B7000645840400000344C4C3404040000586435
:104B80004040400000003C40380478002020702065
:104B90002024180000004444444C340000004444E5
:104BA00044281000000044445454280000004428C5
:104BB0001028440000004444443C043800007C08B1
:104BC00010207C0010202040202010000010101029
:104BD00010101000201010081010200000000020FD
:104BE0005408000000000000000000000000000069
:104BF000000000000000001818181818181800000D
:104C000018180000001236244800000000000000C0
:104C100000000000000000242424FE484848FE480C
:104C20004848000000001038545450301C141454EC
:104C30005438101000000044A4A8A8A8541A2A2A26
:104C40002A44000000000030484848506EA4948870
:104C50008976000000606020C000000000000000B5
:104C600000000000000204080810101010101008C6
:104C70000804020000402010100808080808081066
:104C800010204000000000001010D63838D6101058
:104C9000000000000000000010101010FE101010A6
:104CA00010000000000000000000000000000000F4
:104CB000606020C000000000000000007F000000D5
:104CC00000000000000000000000000000000000E4
:104CD00060600000000001020204040808101020B7
:104CE000204040000000001824424242424242421A
:104CF0002418000000000010701010101010101088
:104D0000107C00000000003C4242420404081020D5
:104D1000427E00000000003C4242041804020242AD
:104D200044380000000000040C14242444447E0491
:104D3000041E00000000007E404040586402024211
:104D4000443800000000001C2440405864424242A5
:104D5000241800000000007E4244080810101010C3
:104D6000101000000000003C42424224182442423D
:104D7000423C00000000001824424242261A02026F
:104D80002438000000000000000018180000000097
:104D9000181800000000000000001818000000189B
:104DA00018083000000000020408102040201008FD
:104DB00004020000000000000000FE000000FE00F1
:104DC0000000000000000040201008040204081049
:104DD000204000000000003C42426202040808003B
:104DE0001818000000000038445AAAAAAAAAB4421F
:104DF000443800000000001010182828243C4442C9
:104E000042E70000000000F8444444784442424233
:104E100044F800000000003E4242808080808042D2
:104E200044380000000000F84442424242424242FC
:104E300044F80000000000FE4248487848484042DC
:104E400042FE0000000000FE4248487848484040CA
:104E500040E000000000003C44448080808E844498
:104E600044380000000000E7424242427E42424293
:104E700042E700000000007C10101010101010100D
:104E8000107C00000000003E080808080808080818
:104E9000080888F0000000EE44485070504848442C
:104EA00044EE0000000000E04040404040404040F0
:104EB00042FE0000000000EE6C6C6C6C54545454C4
:104EC00054D60000000000C7626252524A4A4A4665
:104ED00046E20000000000384482828282828282A0
:104EE00044380000000000FC424242427C40404006
:104EF00040E0000000000038448282828282B2CA10
:104F00004C380600000000F84444447848484444C3
:104F100042E300000000003E4242402018040242EA
:104F2000427C0000000000FE9210101010101010C3
:104F300010380000000000E7424242424242424232
:104F4000423C0000000000E7424244242428281884
:104F500010100000000000D692929292AAAA6C440F
:104F600044440000000000E74224241818182424B8
:104F700042E70000000000EE444428281010101002
:104F8000103800000000007E840408081020204231
:104F900042FC0000001E1010101010101010101015
:104FA00010101E00000040402020101008040402D1
:104FB0000202010100780808080808080808080823
:104FC000080878000008142200000000000000001B
:104FD00000000000000000000000000000000000D1
:104FE000000000FF00601000000000000000000052
:104FF00000000000000000000000003C421E2242B1
:10500000423F0000000000C040404058644242421D
:1050100064580000000000000000001C22404040D6
:10502000221C0000000000060202021E2242424230
:10503000261B0000000000000000003C427E4040B3
:10504000423C00000000000F1110107E10101010E4
:10505000107C0000000000000000003E4444384086
:105060003C42423C000000C04040405C6242424240
:1050700042E70000000000303000007010101010F7
:10508000107C00000000000C0C00001C0404040450
:1050900004044478000000C04040404E4850684836
:1050A00044EE0000000000701010101010101010DE
:1050B000107C000000000000000000F6494949494A
:1050C00049ED000000000000000000DC62424242A6
:1050D00042E70000000000000000003C4242424263
:1050E000423C000000000000000000D86442424240
:1050F000645840E0000000000000001E22424242CE
:10510000261A020700000000000000EE32202020D6
:1051100020F80000000000000000003E42403C0279
:10512000427C0000000000000010107C10101010E5
:10513000100C000000000000000000C64242424285
:10514000463B000000000000000000E74224242845
:105150001010000000000000000000D79292AAAAE0
:1051600044440000000000000000006E24181818DD
:105170002476000000000000000000E742242428FC
:10518000181010E0000000000000007E440810101D
:10519000227E000000030404040404080404040440
:1051A0000404030008080808080808080808080894
:1051B00008080808006010101010100810101010D7
:1051C0001010600000000000000020520C000000E1
:1051D00000000000C8AB010001000280044008206C
:1051E00010102FE8C106010001001FF001000100AE
:1051F00001007FFC0000B6AF004000407C40004052
:1052000001FC0044FE44204420442084488444841B
:10521000FD04450402280410B5E701000100010067
:105220003FF82108210821083FF82108210821081A
:105230003FF8210A0102010200FED7D300007FF8E7
:1052400000100020004001800100FFFE010001006D
:10525000010001000100010005000200BCBC10209B
:105260001020102013FEFC201020102015FC1884A4
:105270003088D04810501020105051882606CAF5AA
:1052800001000120011001107FFC03800540054052
:1052900009201110210841048102010001000100D0
:1052A000CFB500F83F000400082010403F80010007
:1052B000061018087FFC010409201110210845047C
:1052C0000200CDB310401020202023FE4840F88873
:1052D000110423FE4092F890409000901912E112C0
:1052E000420E0400C9E8000021F011101110011055
:1052F000020EF40013F811081110109014A01840B9
:1053000010A003180C06D6C37FFC44447FFC0100A8
:105310007FFC01001FF010101FF010101FF0101084
:105320001FF01010FFFE0000D2F4020001003FF851
:10533000000008200440FFFE00001FF010101010B5
:105340001FF0101010101FF01010C1BF00001FF050
:1053500010101FF01010FFFE00001FF011101FF0C2
:1053600011101FF001001FF001007FFCD1D51000CB
:1053700008FE7F102220147C7F4444544854525429
:105380004454485451544228442488423082C9AB82
:10539000080008001FE020204040BFF82108210835
:1053A00021083FF820002002200220021FFE0000FA
:1053B000CDF800007FFC40044004421452944A544B
:1053C000442444244A544A545294610440044014EE
:1053D0004008C2E71080108020F821084B10FCA084
:1053E000104020A04118FA0645F801081908E10804
:1053F00041F80108CEC2000023F81208120883F811
:105400004208420813F8100027FCE4A424A424A4B2
:1054100024A42FFE0000B6C8010000803FFE222019
:1054200022203FFC2220222023E020002FF0241005
:10543000422041C08630380EA1E6600091F4960CFF
:105440006C04080418001800180018001800180050
:1054500008000C04060801F00000CAAA000027F8A2
:105460001408140887F84408440817F8112021206C
:10547000E9242528233021202FFE0000B6C8010092
:1054800000803FFE222022203FFC2220222023E019
:1054900020002FF02410422041C08630380ED6D88C
:1054A000001000F83F000100FFFE01001FF0111086
:1054B0001FF011101FF001003FF80100FFFE000077
:1054C000C7EC010000803FFE20002080208020806B
:1054D0002FFC2080214021402220422044108808B7
:1054E0001006BDBB020001000100FFFE000010100D
:1054F00010082024482404400280010002800C404F
:105500003030C00ECDA8000047F8201021A0004088
:1055100007FCE444244427FC2444244427FC24447A
:10552000245454088FFEB4F301000100010001006F
:105530000100FFFE010001000280028004400440DF
:10554000082010102008C006D1A722081108111049
:1055500000207FFE400280041FE000400180FFFE2B
:1055600001000100010005000200BBB600800080C0
:10557000FC8004FC050449082A401440104028A07F
:1055800024A045108110020804040802D3AD0000D5
:105590002080133C122402240224F2241224122418
:1055A00012B4132812201020282047FE0000C4E364
:1055B00008800880088011FE110232043420502037
:1055C00091281124122412221422102010A010401D
:1055D000B4BA010001007FFC01003FF80200FFFEA9
:1055E000082010102FE8C82608200FE00820082007
:1055F0000FE0D3D002000200FFFE040004000FF011
:10560000081018102FF0481088100FF0081008101C
:1056100008500820B0D90000FFFE0100020004007D
:105620003FF82008200820083FF82008200820081C
:1056300020083FF82008BBA808200820FFFE08200B
:1056400000000888089010A030C05080918012821D
:1056500014821082107E1000C7EF08401C40F040FA
:1056600010401144FD4411483250384054A054A019
:1056700090901110110812041402D3D002000200FD
:10568000FFFE040004000FF0081018102FF048105F
:1056900088100FF00810081008500820D4C200002D
:1056A0001FF81008100810081FF81008100810083C
:1056B0001FF8100810082008200840288010A3AC0C
:1056C00000000000000000000000000000000000DA
:1056D000000000000000300030001000200000003A
:1056E000CFC47FFC02001FF010101FF010101FF03D
:1056F00010101FF008001FF02820444003801C7089
:10570000E00ED3D002000200FFFE040004000FF000
:10571000081018102FF0481088100FF0081008100B
:1057200008500820C1B9008040402FFE2000000032
:1057300003F81208120823F8E040225022482444BB
:10574000284421400080B7E700003FF020102010DF
:105750002850245022902290211021102290229231
:10576000244A484A40068002B6AC040004000FF008
:1057700010102820444003800C603018C006070039
:1057800000C000200E0001800040D3D002000200C3
:10579000FFFE040004000FF0081018102FF048104E
:1057A00088100FF00810081008500820D1A93FF801
:1057B00001007FFE41029D7401001D7000003FF852
:1057C000000800081FF8000800083FF80008A1A31F
:1057D00000000000000000000000000000000000C9
:1057E0000000000018002400240018000000000041
:1057F000C8F408200820FFFE08200A200200FFFE4F
:10580000040008001FF028104810881008100FF03E
:105810000810CEDE00003FF002000200020002008D
:105820007FFC048004800480088008801084208429
:10583000407C8000CFD0200017FC000441044104CC
:1058400041045FF441044384454449245114410414
:10585000410440144008CAC201000100FFFE0100DB
:105860003FF821083FF801003FF80108FFFE01085A
:105870003FF8010005000200B9D21020102011FCF1
:105880001020FC20102013FE100018203020D1FC26
:1058900010201020102053FE2000D0C40000020071
:1058A0000100008000800400040824042404240271
:1058B000440244128410041003F00000CDB70080AD
:1058C0000080088004802480108010800080FFFE0B
:1058D000010001400220041008083004C004A3ACF9
:1058E00000000000000000000000000000000000B8
:1058F0000000000000003000300010002000000018
:10590000B1E3100017FE104027FC2444644467FCF8
:10591000A444244427FC22402140208021402230FE
:105920002C0ECAC71FF0101010101FF0101010100E
:105930001FF00000FFFE0100110011F81100290006
:10594000450083FEC8CB01000100010001000100F9
:10595000010002800280044004400820082010104A
:10596000200840048002BCE4200013FC1004400422
:1059700047C444444444444447C4444444444444E1
:1059800047C4400440144008BAC3100010FC10047F
:105990001008FC102420242025FE24204820282044
:1059A00010202820442084A00040CAB1000800082C
:1059B0007C08440845FE440844087C084488444860
:1059C000444844087C08440800280010BDDA082038
:1059D0000820FFFE0820082000007FF802080208C7
:1059E0000208020802500220020002000200A1A3E5
:1059F00000000000000000000000000000000000A7
:105A0000000000001800240024001800000000001E
:105A1000C8AB000000000000003800003000006843
:105A20000000440000C2000181000300C0060070B5
:105A30000FFFFE1018086018000018000018000082
:105A4000186003FF800018000018000018000018FC
:105A5000081FFFFC000000000000B6AF00000000BF
:105A600000000001800001000061003F8100000192
:105A70000000010C0007FC00310C3FC10C06010CBA
:105A800004010C0C81080843081062081022082F3A
:105A9000F4083814080008080011180020F8004025
:105AA00030000000B5E70000000000000018000012
:105AB00010000010000010000FFFF0081020081068
:105AC000200810200810200FFFE0081020081020E8
:105AD0000810200810200FFFE00810000010080038
