:020000040800F2
:1000000030080020A10100081B2600089D240008DC
:1000100019260008D10D0008C92B000800000000B7
:10002000000000000000000000000000412800085F
:10003000D30D0008000000001D260008432800081A
:10004000BB010008BB010008BB01000861270008D4
:10005000BB010008BB010008BB010008BB01000890
:10006000BB010008BB010008BB010008BB01000880
:10007000BB010008BB010008BB010008BB01000870
:10008000BB010008BB010008BB010008BB01000860
:10009000BB010008BB010008BB010008BB01000850
:1000A000BB010008BB010008BB010008BB01000840
:1000B000C9280008BB010008BB010008BB010008FB
:1000C000BB010008BB010008BB010008BB01000820
:1000D000BB010008BD2B0008BB010008BB010008E4
:1000E000BB010008BB010008BB01000800F002F8DA
:1000F00000F047F80AA090E8000C82448344AAF17B
:100100000107DA4501D100F03CF8AFF2090EBAE878
:100110000F0013F0010F18BFFB1A43F0010318473B
:10012000642B0000842B0000103A24BF78C878C1EB
:10013000FAD8520724BF30C830C144BF04680C60ED
:10014000704700000023002400250026103A28BF35
:1001500078C1FBD8520728BF30C148BF0B60704739
:10016000642900F07180002070471FB59DE80300EE
:1001700000F000FC00F0F2F91FBD10B500F057FAD6
:1001800010BD00F0BAFA1146FFF7EFFF02F044FD90
:1001900000F0BEFB03B4FFF7F0FF03BC00F07CFDF2
:1001A0000948804709480047FEE7FEE7FEE7FEE70B
:1001B000FEE7FEE7FEE7FEE7FEE7FEE70448054947
:1001C000054A064B70470000C7280008ED000008EC
:1001D00030020020300800203004002030040020CD
:1001E0000FB4044910B503AA029800F089F910BCB5
:1001F0005DF814FB2801002070B50446856900688D
:10020000C10601D5302600E02026C00707D070BD0A
:10021000D4E9012130469047206A401C20626D1EBF
:10022000F6D570BD70B5044685690078C00707D162
:1002300070BDD4E9012120209047206A401C206233
:100240006D1EF6D570BD00002DE9F0410646002474
:1002500010687529314616A510D0AFF3008000282C
:1002600002DA404213A507E031688A0701D512A5DA
:1002700002E0490704D511A5012401E0AFF3008095
:1002800000210A2206F1240709E0B0FBF2FCB0FBD2
:10029000F2F302FB1C00303078541846491C002849
:1002A000F3D123462A463046BDE8F04100F0CEB8EF
:1002B000000000002D0000002B00000020000000C6
:1002C0002DE9F05F894604464FF0000ADFF824B1BB
:1002D000FB44C0F820A02046E168884700287DD074
:1002E000252806D0D4E901219047206A401C2062CD
:1002F000F1E700255F462046E1688847202806464A
:1003000007DB312E05D2B81910F8200C08B10543CF
:10031000F1E7A80701D525F00405C4F81CA00027C3
:10032000C4F818A02A2E09D0304602F05EFC38B37B
:1003300004EB8708303EC8F8186019E059F8041B30
:10034000204604EB87029161E1688847012F064649
:1003500018D1E069002820DA25F020051DE0D8F842
:10036000180000EB800006EB40003038C8F8180099
:100370002046E1688847064602F037FC0028EED1A7
:10038000012F0AD02E2E08D12046E16888477F1C15
:100390000646022F45F02005C4DBA069002803DAD9
:1003A000404245F00105A061E80701D025F01005A5
:1003B000A6B1A6F14100192802D8203645F40065FF
:1003C0004A463146204625604D46FFF7C9FE60B1DA
:1003D000012807D0ED1D25F0070000E007E000F13F
:1003E000080978E705F1040975E730467AE7206ADD
:1003F000BDE8F09F902900004FF0000200B51346C1
:1004000094469646203922BFA0E80C50A0E80C5034
:10041000B1F12001BFF4F7AF090728BFA0E80C50E5
:1004200048BF0CC05DF804EB890028BF40F8042BDE
:1004300008BF704748BF20F8022B11F0804F18BF4B
:1004400000F8012B70477047704770472DE9F0475F
:100450000D4699469246044600F124080168880634
:1004600004D5E06921F01001216000E00120A842DC
:1004700001DD471B00E00027A1697A1902EB0900A2
:10048000081AA0612078C00602D42046FFF7B4FE07
:10049000002608E0D4E901211AF806009047206AF6
:1004A000401C761C20624E45F4DB2078C0060AD53D
:1004B0002046FFF7A1FE06E0D4E901213020904755
:1004C000206A401C2062381EA7F10107F4DC07E017
:1004D000D4E9012118F805009047206A401C2062E9
:1004E000281EA5F10105F3DC2046FFF79BFE2078CE
:1004F000000602D50220BDE8F0870120FBE70000DE
:10050000074B70B50D467B4400F011F804462846B1
:1005100000F020F810B14FF0FF3070BD204670BDE4
:10052000EF26000001694A1C02610878704700B597
:100530008FB0CDE901310021059105497944CDE91C
:10054000031011466846FFF7BBFE0FB000BD000068
:10055000E5FFFFFF007B00F08000704710B54248C8
:100560005421FFF749FF41485421FFF745FF404818
:100570005421FFF741FF3F493B483C4A3F4B08604D
:100580003D490A603A491960531C0365481C1065CF
:10059000012008653B48344A39A1784400F01CF931
:1005A00020B9384878440A3800F0BBF937482F4A58
:1005B00035A1784400F010F920B9344878440A385D
:1005C00000F0AFF932482A4A2FA1784400F004F92C
:1005D00020B92F4878440A3800F0A3F94023224874
:1005E000DC000021224600F0D4F820B125487844F0
:1005F000543800F096F91D4822464023002100F0AF
:10060000C8F820B121487844543800F08AF91848D5
:1006100022461023002100F0BCF8002806D01C4818
:100620007844BDE81040563800F07BB910BD104842
:1006300070B5006D20F001040B4800F043F90B4841
:1006400000F040F90A4800F03DF909E0206D20F083
:100650000105204600F036F9204600F073F82C46DC
:10066000002CF3D170BD0000D40000202801002030
:100670007C010020280000202C00002030000020F9
:1006800072000000D726000077000000C32600009B
:10069000AF2600000EB5CDE9000100F0DDFA0290B2
:1006A00069460120ABBE0EBD08B569460090022028
:1006B000ABBE08BD1FB58DE8070069460520ABBE7F
:1006C00004B010BD1FB58DE80F0069460620ABBE13
:1006D000F6E708B5694600900920ABBE08BD1CB519
:1006E000CDE9000169460A20ABBE1CBD704708B5C4
:1006F000694600900C20ABBE08BD754600F018F9A5
:10070000AE4605006946534620F00700854618B0FE
:1007100020B5FFF753FDBDE820404FF000064FF035
:1007200000074FF000084FF0000B21F00701AC4626
:10073000ACE8C009ACE8C009ACE8C009ACE8C00945
:100740008D46704770B50446051F00F0F7F8006845
:10075000002C14BF446870BD002C18BFAC423CBFD5
:1007600020466468F8D301680A18AA4218BF456099
:1007700003D12A6805461144016028684119A14245
:100780001CBF6C6070BD61686960216808442860A6
:1007900070BD70B5C468A50713D0650211D4B2F559
:1007A000807F09D0B2F5007F06D0B2F5806F08D106
:1007B000012300F1240106E05D1E6FF07F46B54283
:1007C00001D3012070BD0161C361416024F47061F7
:1007D0001143C160002070BD2DE9F0410C46074671
:1007E0001646104600F06EF82078611C61280AD089
:1007F000722802D077283CD102E00125002405E0D0
:100800000225042402E0082448F2020511F8010B35
:100810002B2806D0622809D011F8010C74280AD0C0
:100820000BE045F0030544F00204EFE745F0040552
:1008300044F00104EAE744F0100438462146FFF78B
:1008400029FF411C15D00021316171604FF4007106
:10085000F560F1617061200704D530460222002165
:1008600000F0E6F8306D40F0010030653046BDE83C
:10087000F0810020FBE72DE9F0410D460646104CC3
:10088000206DC10704D0410804D020F00104F7E72F
:1008900022460EE0542000F09CF807000ED0206D98
:1008A00047F001010843542120653846FFF7A4FDB5
:1008B0003A4629463046BDE8F0418DE70020D6E7AC
:1008C000D40000202DE9F04704464FF000094FF016
:1008D000FF37C568D4E90486A80707D0204600F092
:1008E00057F93046FFF7E0FE002802DA3846BDE847
:1008F000F087280502D54046FFF724FF4C2120460B
:10090000FFF77AFD206D20F0010020654846EEE7F4
:1009100010B50446AFF300802046BDE81040FFF755
:1009200039BC10B500F07EF9BDE8104000F074B994
:1009300000487047D0010020704700000048704711
:10094000D8010020704770477047704738B504469B
:100950000A4600206946AFF30080002808BF38BD72
:1009600002460099204600F0A4F9012038BD01207C
:1009700000F0F3B9F8B5AFF30080054600200C464F
:10098000102000BF0646A819A0420DD9324669467C
:100990000020AFF30080070008BF00F0DEF90098E8
:1009A000A04218BF0546C419FFF7C8FF05600746F7
:1009B000F01D20F007004619284600F073F9B442F4
:1009C00008BFF8BDA21B31463868BDE8F84000F00A
:1009D00070B970B50646FFF7B1FF056806F10B0068
:1009E00020F00704B4429CBF002070BD2B466A680B
:1009F000BAB11068A04210D304F1080188423CBF8C
:100A00005068586007D35168101941601168091B7C
:100A1000016058601460101D70BD13465268002AB2
:100A2000E7D121462846FFF791FF0028DED170BDAF
:100A30002DE9F041044616460D464769007B8007C4
:100A40002ED03846FFF745FE50BB3EB3012E02D0F4
:100A5000022E25D104E0204600F045F905441DE0B2
:100A60003846FFF744FEE168002841F01001E160DC
:100A700005DA204600F058F80120BDE8F081C903EE
:100A80000BD56268E16A914200D81146A26911440F
:100A90002269891A814200DD08460544002D01DAE9
:100AA0000220EAE7E16A6068E268814206D29103C7
:100AB000E06203D522F4003141F01002A66900275C
:100AC000AE4213DCE16A814201D90B4600E00346E5
:100AD00003EB060C2369ACEB030CAC4506DD81424D
:100AE00001D98C4600E084469C4505D1A76027606B
:100AF00042F02000A5620DE0AD1BE669AE1B81420D
:100B0000A66000D90846C01A281A206058196060EB
:100B100022F0200003490840E060002084F848707B
:100B2000ABE70000BFCFD7FFC16821F4001141F04F
:100B30008001C16000218160016070472DE9F047AC
:100B4000814614460E464FF0FF383248D568576943
:100B5000054209D03846A169FFF7C1FD002811DB25
:100B60002C48C0430540E5602B463246494638468E
:100B7000FFF7A0FDA16920F00042B21A114400283D
:100B8000A16103D02046FFF7CFFF4046BDE8F087C4
:100B900070B504460569C06A6168884200D8084695
:100BA000E16821F42011E160C90312D5A84208D000
:100BB0002246411B2846FFF7C1FF10B14FF0FF301E
:100BC00070BD0020E562C4E90150E06820F4803087
:100BD000E060002070BD10B50446C06820F0200021
:100BE000E060A16AA06988420DD02046FFF7D0FFDF
:100BF000E06820F4405040F01000E060A06AA0617E
:100C00002069E062606044F24001E0688843E0608F
:100C100010BD000010000200002801D000F03CB818
:100C20007047000010B5014602A000F07DF80120D9
:100C300010BD000053494752545245443A20526572
:100C40006469726563743A2063616E2774206F7003
:100C5000656E3A200000000010B5431C02E010F859
:100C6000011B71B18107FAD14FF0013202C88C1A11
:100C70008C4314EAC211F9D0C01A0A0603D0C01E70
:100C800010BDC01A10BD0A0401D0801E10BD09029B
:100C9000FCD0401E10BD000001491820ABBEFEE78D
:100CA0002600020000210160C0E9011070471020F9
:100CB0007047034640688C46002818BF88423CBFF6
:100CC00003464068F8D318681844884207D00CF1EE
:100CD000030020F00700001D411A521A0146081DAA
:100CE0000A60FFF72FBD10B50146C268900703D018
:100CF000900607D5886A0AE000F03EF801210160FD
:100D0000881E10BD8B69486818440B69C01A91F899
:100D100048301BB191F84910401A10BD1103FCD5A1
:100D20000028FADD401E10BD70B505460C460A20AD
:100D300000E06D1C00F018F835B128780028F8D1D3
:100D400002E0641C00F010F814B120780028F8D1FB
:100D5000BDE870400A2000F007B810B500F010F8A8
:100D6000BDE81040FFF758BF08B569468DF8000090
:100D70000320ABBE08BD000000487047D001002032
:100D800010B5012805D0002103A0FFF7CDFF0120F9
:100D900010BD09A1F8E7000053494752544D454D95
:100DA0003A204F7574206F662068656170206D650C
:100DB0006D6F7279000000003A2048656170206D07
:100DC000656D6F727920636F7272757074656400FF
:100DD000FEE7704772B6FEE710B590F821100022CA
:100DE000022905D00421816380F82020012010BD54
:100DF00001680B6823F00E030B6001680B6823F099
:100E000001030B6090F84030C46B012101FA03F339
:100E1000636080F8211080F82020104610BD00008B
:100E200010B590F821100024022903D00421816319
:100E300001243DE001680A6822F00E020A600168A0
:100E40000A6822F001020A601A4A0168914201D13F
:100E5000012121E0174A1432914201D110211BE0F7
:100E6000144A2832914201D1891515E0114A3C32C9
:100E7000914201D189140FE00E4A5032914202D1C1
:100E80004FF4803108E00B4A6432914202D14FF4B2
:100E9000801101E04FF08071064A083A516001214B
:100EA00080F82110002180F82010416B01B18847A3
:100EB000204610BD080002402DE9F84FDFF8B89138
:100EC000002409F1040A0AF1040B23460F270BF151
:100ED000040EC9E00125A5402A40AA427DD1674EF3
:100EE000D1F804C0ACEB0608B44532D014DCBCF138
:100EF000030F3AD009DCBCF1000F2AD0BCF1010F7E
:100F00001CD0BCF1020F31D11DE0BCF1110F17D084
:100F1000BCF1120F2AD119E0B8F5881F19D006DCF0
:100F2000B8F5803F15D0B8F5801F1FD111E0B8F596
:100F3000001F0ED0B8F5041F18D10AE0CB6815E0E9
:100F4000CB681B1D12E0CB6808330FE0CB680C3375
:100F50000CE08B682BB1012B4FF0080303D04561E7
:100F600004E0042302E0056100E00023FF2A01D829
:100F7000064601E000F104064FEA840501D9A5F117
:100F80002005D6F8008007FA05FC28EA0C0803FAC9
:100F900005F548EA0508C6F800804D68ED0062D501
:100FA000374DAE6946F00106AE61AD6924F0030627
:100FB00005F001050095334D06EB050CDCF80850F3
:100FC000A607360F07FA06F825EA0805DFF8B88005
:100FD000404503D14FF0000817E044E0DFF8AC8053
:100FE000404502D14FF001080FE0DFF8A4804045F2
:100FF00002D14FF0020808E0DFF89880404502D1A6
:101000004FF0030801E04FF0040808FA06F848EA38
:101010000508CCF808804D68D9F80060ED034D460E
:1010200001D5164300E096432E604D68DAF8006063
:10103000AD03554601D5164300E096432E604D683A
:10104000DBF80060ED025D4601D5164300E09643F3
:101050002E604D68DEF80060AD02754601D516437E
:1010600000E096432E60641C0D682A46E5407FF43C
:1010700031AFBDE8F88F00000004014000001110FE
:10108000001002400000014000080140000C014037
:101090000010014000140140C26821EA02030A4026
:1010A00043EA0241016170470AB1016170470904D6
:1010B000FBE700000148806870470000180000202E
:1010C000024881680278114481607047180000204E
:1010D000074810B5016841F010010160032000F0DD
:1010E0006DF80F2000F006F800F024F8002010BD85
:1010F0000020024070B50D4D04464FF47A712878F7
:10110000B1FBF0F00A490968B1FBF0F000F0C1FD55
:1011100048B9102C07D200222146501E00F02EF8AC
:1011200000206C6070BD012070BD00001800002020
:1011300024000020094808B5816941F0010181615E
:10114000816901F001010091C16941F08051C161E3
:10115000C06900F08050009008BD000000100240FF
:10116000002809DB00F01F020121914040098000A6
:1011700000F1E020C0F8001170470000F0B40E4B01
:101180001B680C46C3F30223C3F10705042D00D9E5
:101190000425191D072901D2002300E0DB1E0126CA
:1011A00006FA05F1491E214099409E40761E1640E0
:1011B0003143F0BC01F009BD0CED00E0064900F040
:1011C000070208684FF6FF03184040EA0220034A6E
:1011D00010430860704700000CED00E00000FA05C5
:1011E000014901200862704700000E4210B529A491
:1011F00001461DCC86B08DE81D002AA02A4C00684F
:1012000004900020012923D002293AD010291DD1B1
:1012100061682268D20119D5C1F38342C9031DF860
:10122000020009D5616804AAC1F34041515C1F4A1C
:10123000B2FBF1F1484301E01D49484361684902AE
:1012400004D440005FF00301B0FBF1F006B010BD24
:10125000226AC2F30121012903D1920701D5C803F3
:10126000F4E7022905D1626A920702D549F64040A7
:10127000ECE70329EAD121688903E7D54FF224403E
:10128000E4E700F033F96168C1F38131491C49009A
:10129000DAE7000002030405060708090A0B0C0D33
:1012A0000E0F1010010200000010024000127A0020
:1012B00000093D002DE9F84305460078354CC0078C
:1012C00054D0E0690026C00008D4E06940F08050A6
:1012D000E061E069012600F0805000902E4801682E
:1012E000C90512D40168804641F480710160FFF79E
:1012F000E1FE074605E000BFFFF7DCFEC01B6428E7
:1013000023D8D8F80000C005F6D5206A10F4407044
:1013100021D0A98801F4407181421CD0206A1F4964
:10132000012220F440700A6000220A602062C00797
:1013300011D0FFF7BFFE074641F2883808E000BF32
:10134000FFF7B8FEC11B414502D90320BDE8F88371
:10135000206A8007F4D5206A696820F44070084349
:1013600020621EB1E06920F08050E061287880079B
:1013700005D56068A96820F440400843606028787B
:10138000C00605D56068E96820F480000843606005
:101390000020DBE7001002400070004040044242A1
:1013A0002DE9F0470F46050061D0434E306800F04C
:1013B0000700B84209D2306820F007003843306097
:1013C000306800F00700B84251D128683B4C8107D3
:1013D00012D5400703D5606840F4E060606028786B
:1013E000000703D5606840F4605060606068A968D9
:1013F00020F0F000084360602878C00728D06868B3
:10140000012810D02168022810D0890700292EDA7F
:10141000616821F0030101436160FFF74BFE8046E4
:1014200041F288390DE021688903EFE78901EDE792
:10143000FFF740FEA0EB0801494502D90320BDE8B3
:10144000F0876068696800F00C00B0EB810FEFD1A5
:10145000306800F00700B8420BD9306820F0070070
:1014600038433060306800F00700B84201D00120F6
:10147000E5E72878400705D56068E96820F4E06072
:10148000084360602878000706D56068296920F461
:10149000605040EAC100606000F038F86168084AB6
:1014A000C1F30311515CC840064908600648006852
:1014B000FFF720FE0020C2E700200240001002409B
:1014C0004C2C0008240000201C0000200448054982
:1014D00000684968044AC1F30221515CC840704762
:1014E00024000020001002405C2C0008044805493C
:1014F00000684968044AC1F3C221515CC840704782
:1015000024000020001002405C2C000812A185B0CD
:101510000FC98DE80F0014A0144A006804905168A8
:10152000134801F00C03042B10D0082B0ED1C1F38B
:101530008343C9031DF803000AD5516804AAC1F307
:101540004041515C0A4A5043B0FBF1F005B070478E
:1015500008494843FAE700000203040506070809A2
:101560000A0B0C0D0E0F10100102000000100240BB
:1015700000127A0000093D002DE9F84F040070D0F8
:101580002078C04DC00749D06868C0F381000128A9
:1015900007D06868C0F38100022809D16868C003D9
:1015A00006D52868800339D560680028E7D035E083
:1015B0006068B0F5803F0BD010B1B0F5A02F11D00E
:1015C000286820F480302860286820F4802002E019
:1015D000286840F480302860606890B1FFF76AFDA9
:1015E00006460AE0286840F480202860F0E700BF43
:1015F000FFF760FD801B642873D828688003F7D547
:101600000CE0FFF757FD064605E000BFFFF752FD6F
:10161000801B6428F0D828688003F7D420789A4E7D
:1016200080074FF001094FF0000839D5686810F0C5
:101630000C0F07D06868C0F38100022809D16868E0
:10164000C00306D42868800714D52069012808D172
:1016500010E02069B0B1C6F80090FFF72BFD0746F7
:1016600005E00AE1FFF726FDC01B0228C4D8286860
:101670008007F7D52868616920F0F80040EAC100CA
:1016800028600DE0C6F80080FFF714FD074604E06F
:10169000FFF710FDC01B022823D828688007F7D465
:1016A000207800072CD57948A169D9B1C0F80090FD
:1016B000FFF700FD074604E0FFF7FCFCC01B022813
:1016C0000FD8686A8007F7D571484FF4FA5100685F
:1016D000B0FBF1F0009000BF0098411E0091FAD2DB
:1016E0000EE080E0C0F80080FFF7E4FC074604E06D
:1016F000FFF7E0FCC01B022875D8686A8007F7D4A2
:101700002078400760D5E8690027C00008D4E86960
:1017100040F08050E861E869012700F080500090B7
:101720005C480168C90513D40168834641F480719F
:101730000160FFF7BFFC824606E000BFFFF7BAFC7E
:10174000A0EB0A0064284ED8DBF80000C005F5D5F0
:10175000E06801280AD008B1052813D0286A20F0D3
:1017600001002862286A20F0040002E0286A40F0A4
:1017700001002862E06841F2883B98B1FFF79AFCCB
:1017800082460BE0286A40F004002862EEE700BFC2
:10179000FFF790FCA0EB0A0159455AD8286A800748
:1017A000F6D50CE0FFF786FC824605E0FFF782FCE9
:1017B000A0EB0A0159454CD8286A8007F6D41FB11E
:1017C000E86920F08050E861E06988B36968C1F396
:1017D0008101022944D00228C6F8608004D0FFF7B6
:1017E00069FC044638E034E0FFF764FC074604E097
:1017F000FFF760FCC01B02282BD828688001F7D4B3
:10180000206AB0F5803F05D16868A16820F40030F7
:1018100008436860D4E908010843696821F4741139
:1018200008436860C6F86090FFF744FC044606E091
:1018300025E000BFFFF73EFC001B022809D82868FE
:101840008001F7D51BE000BFFFF734FC001B022826
:1018500002D90320BDE8F88F28688001F4D40EE097
:101860000128F7D06868226A00F48031914204D1DF
:10187000616A00F47010884201D00120EAE700207C
:10188000E8E70000001002400000424280044242AB
:1018900024000020007000407047704710B50446D7
:1018A00000680168C90717D04168C90714D04068AB
:1018B0004007204607D5FFF7F0FF21686FF00400CE
:1018C0004860042002E0FFF7E7FF01206074206811
:1018D000416821F00101416010BDF8B505004FF0ED
:1018E000000016460C46009006D02CB10022694636
:1018F000284600F019F808B10120F8BD287B2070B7
:10190000E87BE070697B6170A97BA17056B100F043
:101910008FFEE070607800F08BFE6070A07800F0C1
:1019200087FEA0700020F8BD2DE9F04791460C46D7
:101930005FEA00084AD084B3D8F800004068400746
:1019400044D4404600F019FF4FF461620546B0FBF5
:10195000F2F1B0FBF2F302FB13503C23B0FBF3F0C7
:10196000B5FBF2F6607002FB1650B0FBF3F203FB1E
:101970001200A070182931D31820B1FBF0F7B1FB89
:10198000F0F200FB12102070404600F0EFFE411C08
:1019900004D0A84202D9461B02E017E04FF0FF3600
:1019A000A7EB071000EB4000C0EB001005EBC015E3
:1019B0002946404600F030FF40B9701C01D0711933
:1019C00000E03146404600F013FF10B10120BDE8B1
:1019D000F0873946404600F036FE00E02170B9F14C
:1019E000000F0BD0207800F023FE2070607800F00C
:1019F0001FFE6070A07800F01BFEA0700020E6E7DC
:101A000070B5040003D0607C002610B105E0012011
:101A100070BD2674204600F043F802206074204612
:101A200000F01AF9042578BB204600F063FE58BB8D
:101A30002068416821F007014160A06820B1174883
:101A4000016821F0010101601448001F0168A268CB
:101A500021F46071114301606068411C04D10120D0
:101A6000FFF7C4FB80B1401E21688A6822F00F0294
:101A700042EA10428A602168CA6860F30F02CA60B5
:101A8000204600F051FE08B16574C0E7E6730120FE
:101A90006073A0736074002070BD0000306C004063
:101AA00008B500680D49884217D1FFF799FB0C482B
:101AB000C16941F00061C161C0690A4900F000607C
:101AC000009001200860002211460320FFF756FB1A
:101AD000BDE808400320FFF743BB08BD00280040D5
:101AE000001002403C0442422DE9F0410D46040042
:101AF0003BD0C5B3207C01283AD04FF0010884F8D0
:101B0000108002206074E87872B300F088FDE07302
:101B1000687800F084FD6073A87800F080FDA07301
:101B2000C2B2617BE07B00F038FE20732870204653
:101B300000F023FE4FF46161B0FBF1F1002518299C
:101B40002DD91822B1FBF2F1A1EB011101EB4101FA
:101B5000C1EB011100EBC1163146204600F05CFEDE
:101B60000427C8B90BE000E004E00120BDE8F081E3
:101B70000220FBE7E07368786073A878CFE720461F
:101B800000F0F4FD411C0AD0B04208D206490144DD
:101B9000204600F02DFE10B167742574E5E784F847
:101BA000118025740020E1E7805101002DE9F0410A
:101BB0000D46040024D01DB3207C012823D04FF013
:101BC000010884F81080022060742878EAB100F0DF
:101BD00026FD4FF4616100FB01F6687800F01FFDFF
:101BE000C0EB001006EB8006A87800F018FD351851
:101BF0002946204600F010FE0026042710BB0FE007
:101C00000120BDE8F0810220FBE74FF46161484309
:101C10006978C1EB011100EB8100A9784518E7E76D
:101C20002068416821F005014160204600F09EFDDA
:101C3000411C0AD0A84208D206490144204600F0BF
:101C4000D7FD10B167742674DAE784F81180267422
:101C50000020D6E78051010070B504000AD020684A
:101C6000416821F008014160FFF724FA05464FF46E
:101C70007A7608E0012070BDFFF71CFA401BB042E5
:101C800001D9032070BD206840680007F4D500200A
:101C900070BD10B5401EB0F1807F01D3012010BD92
:101CA0004FF0E02460610F21601700F08EFF0020EC
:101CB000A06107202061002010BD70477047000020
:101CC00070B590F83C20012A26D0012480F83C40D1
:101CD000022280F83D2003685A689D6822F0700651
:101CE0000A6832435A600D4B02689A4208D0B2F13A
:101CF000804F05D00A4B9A4202D00A4B9A4204D137
:101D0000496825F080031943916080F83D40002127
:101D100080F83C10084670BD022070BD002C0140C8
:101D2000000400400008004010B5040003D094F8FF
:101D30003D0010B107E0012010BD002084F83C00F8
:101D4000204600F01FF8022084F83D00211D206885
:101D500000F0C0FD012084F8460084F83E0084F8BD
:101D60003F0084F8400084F8410084F8420084F881
:101D7000430084F8440084F8450084F83D000020C6
:101D800010BD000008B50068B0F1804F08D10548CB
:101D9000C16941F00101C161C06900F0010000901A
:101DA00008BD00000010024090F83D10012901D04C
:101DB00001207047022180F83D100168CA6842F096
:101DC0000102CA6000680B49884208D0B0F1804F18
:101DD00005D00949884202D00849884204D1816867
:101DE00001F00701062903D0016841F001010160FB
:101DF00000207047002C0140000400400008004013
:101E000070B5044690F83C00012817D0012584F8ED
:101E10003C50022084F83D002068826822F077025E
:101E200022F47F4282600868502830D00DDC2028E0
:101E30004DD005DC98B310283BD148E0022070BD9E
:101E4000302844D0402834D139E0602828D0702888
:101E500006D0B0F5805F2CD0B0F5005F29D10AE044
:101E6000CB68D1E90121206800F06AFD2068816813
:101E700041F0770109E0CB68D1E90121206800F049
:101E80005FFD2068816841F48041816011E0CA688B
:101E90004968206800F066FD5021206807E016E0E0
:101EA000CA684968206800F06EFD6021206800F073
:101EB00051FD84F83D50002084F83C0070BDCA6894
:101EC0004968206800F04EFD40212068EFE7226855
:101ED00001461046EBE7704770B50446006801699B
:101EE0004FF00005C943890715D4C168C943890764
:101EF00011D4E91E016101202077206880698007E4
:101F0000204602D0FFF7E7FF04E000F098F82046F3
:101F100000F096F8257720680169C943490717D46E
:101F2000C168C943490713D46FF00401016102205D
:101F300020772068806910F4407F204602D0FFF7A8
:101F4000CAFF04E000F07BF8204600F079F825771E
:101F500020680169C943090716D4C168C943090744
:101F600012D46FF008010161042020772068C06955
:101F70008007204602D0FFF7AEFF04E000F05FF8D4
:101F8000204600F05DF8257720680169C943C9063D
:101F900017D4C168C943C90613D46FF01001016199
:101FA000082020772068C06910F4407F204602D0C6
:101FB000FFF791FF04E000F042F8204600F040F8FF
:101FC000257720680169C943C90708D1C168C94399
:101FD000C90704D1891E0161204600F033F820684A
:101FE0000169C943090609D4C168C943090605D472
:101FF0006FF0800101612046FFF75FFE20680169F4
:10200000C943490609D4C168C943490605D46FF0DC
:1020100040010161204600F071F820680169C94360
:1020200089060BD4C168C943890607D46FF0200123
:1020300001612046BDE87040FFF740BE70BD7047AB
:102040007047000010B50068B0F1804F35D11B4CCF
:1020500064216068401C90FBF1F2606001FB12009B
:1020600000282AD120211648FFF716F8012204F192
:1020700008011448FFF731FC012221461148FFF7FF
:1020800053FC04F1080083784278C1780EA0FEF773
:10209000A7F8204683784278017811A0FEF7A0F8CF
:1020A0004FF6FF73092204F10C01134800F09CF96C
:1020B0000AA0FEF795F80020606010BD0000002027
:1020C000000801403400002025303264C4EA2D2588
:1020D000303264D4C22D25303264C8D50D0A0000D8
:1020E00025303264CAB13A25303264B7D63A253049
:1020F0003264C3EB0D0A0000900000207047704767
:1021000070470000F8B5026804461068D16853694A
:1021100010F00F0F4FF0000553D003F0010601F44B
:10212000907737435FD0C20705D0CA0503D5226C2C
:1021300042F001022264420705D5DA0703D0226C7F
:1021400042F002022264820705D5DA0703D0226C2E
:1021500042F004022264020707D501F02002324354
:1021600003D0226C42F008022264226C002A34D090
:10217000800604D5880602D5204600F036FC20688B
:102180004069216CC0F38010090700D430B32046A9
:1021900000F013FC2068416949061BD5416921F014
:1021A00040014161A06BA8B158494163A06BFEF7A3
:1021B00037FE002811D0A06B416B01B0BDE8F040A4
:1021C000084783060FD58B060DD52046BDE8F8409D
:1021D00000F00BBC2046FFF793FFF8BD2046FFF749
:1021E0008FFF2564F8BD266B2023012E52D1C60631
:1021F00050D5CE064ED51068506800905069400604
:102200002AD5A16B086840680004000CEAD0A68DAE
:102210008642E7D9E0858869202818D0D06820F464
:102220008070D0602068416921F00101416120681F
:10223000416921F04001416184F83E302563206806
:10224000C16821F01001C160A06BFEF7C5FDA08D33
:10225000E18D401A81B219E0A08DE18D401A81B262
:10226000E08D0028BED00029BCD0D06820F490704A
:10227000D0602068426922F00102426184F83E3059
:1022800025632068C26822F01002C2602046FFF772
:1022900036FFF8BD05062BD50D0629D594F83D006F
:1022A0002128F6D1A068B0F5805F01D12069B0B1D6
:1022B000206A411C2162216800784860E08C401E41
:1022C0000004000CE084E4D12068C16821F08001A2
:1022D000C1602068C16841F04001C160F8BD206A5A
:1022E0000088C0F308005060206A801C2062E5E787
:1022F0004006F3D54806F1D5D168204621F04001CB
:10230000D16084F83D3000F0C8F8F8BDAB29000872
:1023100070B5040004D094F83D00002510B106E02B
:10232000012070BD84F83C50204600F023F82420A2
:1023300084F83D002068C16821F40051C160204646
:1023400000F0AEFB2068016921F490410161206832
:10235000416921F02A0141612068C16841F40051BE
:10236000C1602564202084F83D0084F83E000020F0
:1023700070BD000030B585B0002400940194029433
:10238000039400681449884224D11448816941F4B7
:1023900080418161816901F480410491816941F04A
:1023A0000401816180690E4D00F0040004904FF437
:1023B0000070009002200190032003906946284697
:1023C000FEF77AFD2815CDE90004694628460294F7
:1023D000FEF772FD05B030BD00380140001002402C
:1023E00000080140704700002DE9F843044690F8CA
:1023F0003D001F4616460D4620284CD1C5B1BEB142
:1024000094F83C00012846D0012084F83C004FF0AD
:102410000008C4F84080212084F83D00FEF74AFE01
:10242000A6848146E684A068B0F5805F03D004E00E
:102430000120BDE8F883206928B12E465FF0000531
:1024400084F83C800EE00026FAE78021204600F068
:1024500083FBA0B9AEB116F8010B21684860E08C8F
:10246000401EE084E08C4B464FF0000200970028AD
:10247000EBD14FF04001204600F06EFB30B103205D
:10248000D7E735F8020BC0F30800E6E7202084F810
:102490003D000020CDE70220CBE77047FEE70000BB
:1024A00030B585B000241848009401940294039438
:1024B000816941F010018161816901F0100104918D
:1024C000816941F020018161816901F0200104915D
:1024D000816941F00401816180690C4D00F00400C4
:1024E0000490002220212846FEF7DEFD20200090E7
:1024F0000120CDE901040220039069462846FEF739
:10250000DBFC05B030BD00000010024000080140B7
:102510001CB5002417480194154900940160611E00
:10252000C0E90114FFF76CFA08B1FEF753FC8DF80F
:1025300004408DF805408DF80640012201A90D48A0
:10254000FFF734FB08B1FEF745FC01208DF80000D1
:102550008DF801008DF8020002468DF803406946AF
:102560000448FFF7C1FA002801D0FEF733FC1CBD78
:10257000002800403400002010B586B00024174821
:10258000009401940294039404944FF080410594C4
:1025900001604721C0E901144FF47A71C0E90314C6
:1025A00080218161FFF7C0FB08B1FEF713FC4FF4F7
:1025B0008050009069460948FFF722FC08B1FEF7F9
:1025C00009FC049404A905480594FFF779FB002849
:1025D00001D0FEF7FFFB06B010BD00004800002050
:1025E0000C4810B50A4901604FF4E1314160002107
:1025F00081600C22C160C0E904128161C161FFF7F2
:1026000087FE002803D0BDE81040FEF7E3BB10BDF5
:102610000038014090000020FEE7FEE77047010906
:1026200001EB810100F00F0000EB4100C0B27047E8
:10263000002102E00A38C0B2491C0A28FAD2090770
:1026400040EA116070472DE9F04104460025C07B47
:10265000627BA37B42E0012A16D0032A14D0052A0C
:1026600012D0072A10D0082A0ED00A2A0CD00C2A21
:102670000AD0042A10D0062A0ED0092A0CD00B2A20
:102680000AD0022A0DD028E01F2B0CD30C2A05D12A
:1026900001221346401C20E01E2B04D30123521CB0
:1026A0001BE01C2B02D203F1010316E011D183B20F
:1026B0009E0710D16426B3FBF6F706FB173636B932
:1026C0004FF4C876B3FBF6F706FB17331BB91D238F
:1026D00003E01D2B01D1032201236D1C8D42BAD3CF
:1026E000D1B2E0736173DAB2A27300F056F82073CE
:1026F000BDE8F08170B50446FEF7DCFC05464FF4FA
:102700007A7606E0FEF7D6FC401BB04201D90320E2
:1027100070BD206840688006F4D52068416841F0AB
:1027200010014160002070BD70B50446006841682A
:1027300021F010014160FEF7BDFC05464FF47A76AA
:1027400007E000BFFEF7B6FC401BB04201D90320F2
:1027500070BD206840688006F4D5002070BD000080
:102760000148FFF79BB80000340000200168086AA8
:10277000496A89B241EA00407047006881698AB2BB
:10278000C1698BB2816989B28A4203D0C06961F3A1
:102790001F40704743EA02407047F0B56424C1EB24
:1027A000C1030927A500072603EB01130329B3FB87
:1027B000F7F100F5FA60114401440AD2401EB0FB63
:1027C000F4F201EB9001B0FBF5F0891A0844001D0A
:1027D00008E0B0FBF4F201EB9001B0FBF5F0891AD0
:1027E0000844801CB0FBF6F106FB1100C0B2F0BD3E
:1027F00070B50D4606460024FFF77CFF48B93168E6
:10280000280C08623168A8B248623046FFF78CFF96
:1028100000B10124204670BD70B50D460646002467
:10282000FFF768FF48B93168280C88613168A8B2A1
:10283000C8613046FFF778FF00B10124204670BD23
:102840007047FEF73DBC70B594B028216846FDF78F
:10285000D3FD14210AA8FDF7CFFD002501240F9513
:102860001195052012950090CDE9025410954FF472
:102870008030019002260494CDE907604FF4E01007
:1028800009906846FEF778FE08B172B6FEE70F20A1
:10289000CDE90A064FF48060CDE90C5002210AA868
:1028A0000E95FEF77DFD08B172B6FEE74FF480701D
:1028B000CDE90F400FA8FEF7FDFC002801D072B64D
:1028C000FEE714B070BD70470148FFF705BB00007C
:1028D00048000020F0B50268164B174C174D4FF01A
:1028E0008047984205D0B84203D0A04201D0A84208
:1028F00003D122F070064A683243984205D0B842AC
:1029000003D0A04201D0A84203D122F44074CA6887
:1029100022434C6922F08002224302608A68C2622C
:102920000A688262984201D109690163012141610B
:10293000F0BD0000002C01400004004000080040F1
:1029400010B5846842EA032224F47F440A432243F8
:10295000826010BD826822F070020A4342F00701D3
:102960008160704710B5036A046A24F001040462B0
:10297000846924F0F00444EA021423F00A020A43B2
:102980008461026210BD10B5036A23F01003036274
:102990008369046A23F4704343EA023224F0A003FB
:1029A00043EA01118261016210BD10B5406A002145
:1029B000C185C184FFF7A4FB10BD0168CA6822F479
:1029C0009072CA6001684A6922F001024A61016B93
:1029D000012904D10168CA6822F01002CA602021CE
:1029E00080F83E1000210163704708B590F83E1052
:1029F000222901D0022008BD82684FF480539A42F8
:102A000001D1016921B1816A9A421BD04AB10AE021
:102A10000268816A5268C2F308020A80816A891CCE
:102A200008E0026972B10268526802F07F020A701F
:102A3000816A491C8162C18D491E0904090CC18546
:102A400003D019E002685268F1E70168CA6822F011
:102A50002002CA600168CA6822F48072CA600168F4
:102A60004A6922F001024A61202180F83E10016B80
:102A7000012903D0FFF7B6FC002008BD0021016347
:102A80000168CA6822F01002CA6001680A68D206AA
:102A900002D50A6849680091818DFFF730FBEBE7AA
:102AA00070B5044600680169E26821F440511143A1
:102AB00001612169A0680843616908432168CA6807
:102AC00041F20C639A430243CA6020684169A269DB
:102AD00021F44071114341611E492068884202D1AE
:102AE000FEF704FD01E0FEF7F1FC00EBC00101EB95
:102AF0000012606864218000B2FBF0F3B3FBF1F3D5
:102B00006FF018067343B2FBF0F5B2FBF0F605EB7D
:102B10008305322303EB0515B5FBF1F5B6FBF1F6A2
:102B200005F0F00505EB0615B2FBF0F6B2FBF0F090
:102B3000B0FBF1F06FF01802504306EB800003EB9E
:102B40000010B0FBF1F0216800F00F00284488600D
:102B500070BD0000003801402DE9F041984617464D
:102B60000E460446069D1DE0681C1BD02DB1FEF7E5
:102B7000A1FAA0EB0800A84214D92068C16821F48A
:102B8000D071C1602068416921F0010141612020BC
:102B900084F83D0084F83E00002084F83C000320C7
:102BA000BDE8F0812068006836EA000004D000200B
:102BB000B842D9D00020F3E70120F9E70148FFF738
:102BC000A1BA000090000020FEE70907090E0028C6
:102BD00004DB00F1E02080F80014704700F00F00E3
:102BE00000F1E02080F8141D704730380A2801D227
:102BF000012070470020704738B504468DF800006A
:102C00004FF6FF73012269460248FFF7EDFB2046AD
:102C100038BD000090000020FEF75AFAFFF713FEBF
:102C2000FFF73EFCFFF774FCFFF7DAFCFFF7A4FCAC
:102C3000002211461C20FEF7A1FA1C20FEF790FA94
:102C40000148FFF7B1F8FEE748000020000000004F
:102C5000000000000102030406070809000000004C
:102C6000010203040400000800000000000000024C
:102C700000010000103A7474003A7474003A7474DD
:102C800000000000A42C0008000000203400000018
:102C900028010008D82C000834000020FC070000A0
:102CA00044010008000000000000000000000000D7
:102CB00070707170706C0D0A00000000010000005F
:102CC00010000000000000000024F40000000000DC
:082CD0000000000000000000FC
:04000005080000ED02
:00000001FF
