:020000040800F2
:1000000050080020951C0008DD030008DF030008ED
:10001000E3030008E7030008EB030008000000000A
:10002000000000000000000000000000EF030008D6
:10003000F103000800000000F3030008F5030008C6
:10004000AF1C0008AF1C0008AF1C0008AF1C000864
:10005000AF1C0008AF1C0008AF1C0008AF1C000854
:10006000AF1C0008AF1C0008AF1C0008AF1C000844
:10007000AF1C0008AF1C0008AF1C0008AF1C000834
:10008000AF1C0008AF1C0008AF1C0008AF1C000824
:10009000AF1C0008AF1C0008AF1C0008AF1C000814
:1000A000AF1C0008AF1C0008AF1C0008AF1C000804
:1000B000AF1C0008AF1C0008AF1C0008AF1C0008F4
:1000C000AF1C0008AF1C0008AF1C0008AF1C0008E4
:1000D000AF1C0008AF1C0008AF1C0008AF1C0008D4
:1000E000AF1C0008AF1C0008AF1C0008AF1C0008C4
:1000F000AF1C0008AF1C0008AF1C0008AF1C0008B4
:10010000AF1C0008AF1C0008AF1C0008AF1C0008A3
:10011000AF1C0008AF1C0008AF1C0008AF1C000893
:10012000AF1C0008AF1C0008AF1C0008AF1C000883
:10013000DFF810D002F046FB004800473302000809
:10014000AFF300805008002008B50121102002F014
:100150003DF94FF40050ADF8000010208DF8030079
:1001600002208DF802006946844801F073FE4FF4C6
:100170000051824801F01DFF08BD08B5FFF7E4FFFC
:1001800001F01EFD01F0D3F8002001F08EF80120EF
:1001900010237BA200210090282000F034FD0120D4
:1001A000102379A218210090142000F02CFD0120CA
:1001B00079A3102230210090282000F033FF4FF463
:1001C0007A7001F0D3F901F05FFC4FF47A7001F01E
:1001D000CDF9002001F069F800212E2000F0B0FFD9
:1001E0000021272000F0ACFF0021084600F0A8FF06
:1001F0000021084600F0A4FF0021072000F0A0FF26
:100200000021072000F09CFF0021084600F098FF25
:100210000021FF2000F094FF012061A3102218218B
:1002200000900A2000F0FEFE00212F2000F088FF41
:1002300008BDFFF7A2FF07E000212F2000F080FF9C
:1002400041F6380001F092F9F6E710B5584801F090
:100250008FFB574800684FF47A714843000D5549A9
:100260000860534840684FF4FA6148438910C1EB75
:1002700010505149086008460068642190FBF1F075
:1002800030304E4908704C4800680A2190FBF1F06C
:1002900090FBF1F201FB12003030484948702E20EB
:1002A0008870454800680A2190FBF1F201FB1200BA
:1002B00030304249C870002008713E48006864210F
:1002C00090FBF1F030303E4908703A4800680A214E
:1002D00090FBF1F090FBF1F201FB12003030384955
:1002E00048702E208870334800680A2190FBF1F294
:1002F00001FB120030303249C870202008712520DF
:1003000048710020887110BD08B501202DA310226E
:100310001C2100900F2000F085FE012010232BA24D
:100320001C2100902F2000F06EFC01201023234A96
:100330001C2100903E2000F066FC012024A3102226
:100340001C210090602000F06DFE012021A31022EE
:10035000302100900F2000F065FE012010231BA229
:10036000302100902F2000F04EFC01201023144A71
:10037000302100903E2000F046FC08BD00100140F6
:1003800070707170706C0000363331393037303630
:100390003035323000000000BBB6D3ADC4E30000FE
:1003A000B4BAD3D0B0D9BBA8C7EFD3D0D4C2000061
:1003B00000000020080000200C0000203C0000206D
:1003C00046000020CEC2B6C8000000003A0000007F
:1003D000A1E60000CAAAB6C800000000704700BF2E
:1003E000FEE700BFFEE700BFFEE700BFFEE7704785
:1003F00070477047704700000CB5002001900090D6
:100400006C48006840F480306A49086000BF694861
:10041000006800F4003000900198401C01900098A2
:1004200018B90198B0F5A06FF1D16248006800F4E6
:10043000003010B10120009001E0002000900098F1
:10044000012843D15C48006840F010005A49086018
:100450000846006820F0030008600846006840F085
:1004600002000860534840685249486008464068A6
:1004700048600846406840F480604860084640682C
:1004800020F47C1048600846406840F4E81048605A
:100490000846006840F08070086000BF454800686A
:1004A00000F000700028F9D04248406820F00300B6
:1004B000404948600846406840F00200486000BF7C
:1004C0003C48406800F00C000828F9D10CBD10B57C
:1004D000FFF792FF10BD10B53648006840F00100EC
:1004E000344908600846406834490840314948604A
:1004F00008460068324908402E49086008460068EE
:1005000020F4802008600846406820F4FE0048601F
:100510004FF41F008860FFF7DAFF4FF000602949B1
:10052000086010BD10B5002100200022214B5B683F
:1005300003F00C0121B1042906D0082928D107E0D5
:10054000214B224C236027E01F4B204C236023E0EB
:10055000184B5B6803F47010164B5B6803F4803231
:10056000022303EB904022B9194B4343174C2360FD
:100570000DE0104B5B6803F4003323B1144B43438D
:10058000124C236003E0104B4343104C236003E004
:100590000D4B0E4C236000BF00BF064B5B68C3F3DE
:1005A00003130C4CE15C094B1B68CB40074C2360E8
:1005B00010BD000000100240002002400000FFF8C3
:1005C000FFFFF6FE08ED00E000127A0010000020A8
:1005D00000093D001400002070B504460D46164683
:1005E00032462946204600F001FE00F03CFE70BD78
:1005F0002DE9F05F04460D4690469946A8EB0400AD
:10060000401C00F0FF0AA9EB0500401C00F0FF0BA6
:1006100000260EE0002708E0AA19D1B2E219D0B2F4
:100620000A9A00F0E3FD781CC7B25745F4DB701C52
:10063000C6B25E45EEDB00F016FEBDE8F09F2DE988
:10064000FF4F85B081468A46002003908346079875
:10065000A0EB09050898A0EB0A06CDF80890CDF8A4
:1006600004A0002D01DD012705E00DB9002702E0FF
:100670004FF0FF376D42002E02DD4FF0010806E01B
:1006800016B94FF0000802E04FF0FF387642B5424D
:1006900001DD2C4600E03446002004901EE0019A63
:1006A000D1B2029AD0B2129A00F0A0FD0398284469
:1006B0000390B3440398A04205DD0398001B039008
:1006C000029838440290A34504DDABEB040B01987B
:1006D000404401900498401C80B20490611C04982E
:1006E0008842DCDD00F0BFFD09B0BDE8F08F2DE9E8
:1006F000F84305460E4617469846089C33463A4648
:10070000314628460094FFF79AFF43462A46314671
:1007100028460094FFF793FF43463A464146284651
:100720000094FFF78CFF43463A4631463846009422
:10073000FFF785FFBDE8F8832DE9F84304460D4631
:1007400016461F46DDF820803B46324629462046A5
:10075000CDF80080FFF74CFFBDE8F8832DE9F041AC
:1007600004460D4616461F46DDF81880EA19D1B238
:10077000A219D0B2424600F039FDEA19D1B2A21B4B
:10078000D0B2424600F032FDEA1BD1B2A219D0B27B
:10079000424600F02BFDEA1BD1B2A21BD0B242466A
:1007A00000F024FDAA19D1B2E219D0B2424600F0FD
:1007B0001DFDAA19D1B2E21BD0B2424600F016FDCF
:1007C000AA1BD1B2E219D0B2424600F00FFDAA1B1B
:1007D000D1B2E21BD0B2424600F008FDBDE8F08184
:1007E0002DE9F84F81468A4690461E46002435463C
:1007F0007000C0F1030716E0EBB2E2B25146484682
:10080000CDF80080FFF7AAFF002F04DA042000FBD8
:100810000470871D06E0601B042101FB007000F1DD
:100820000A076D1E641CAC42E6DD00F01CFDBDE84D
:10083000F88F2DE9F84F82468B4691461E460024DC
:1008400035467000C0F103081DE0274608E0FBB202
:10085000E2B259465046CDF80090FFF77FFF7F1C6B
:10086000AF42F4DDB8F1000F05DA042000FB04808C
:1008700000F1060806E0601B042101FB008000F186
:100880000A086D1E641CAC42DFDD00F0ECFCBDE824
:10089000F88F2DE9F84F05460E4617469846DDE9D4
:1008A0000A9A0C9C43463A46314628460094FFF784
:1008B000C6FE53464A46414638460094FFF7BFFEFF
:1008C00033462A46514648460094FFF7B8FEBDE835
:1008D000F88F02780B7803700A7070472DE9F041A9
:1008E00005460E461746984600242C4606E042462A
:1008F0003946204600F07AFC601CC4B2B442F6DDF2
:10090000BDE8F0812DE9FF4F85B0002600279DF856
:1009100018009DF82010884207DD08A906A8FFF7F7
:10092000D8FF07A905A8FFF7D4FF9DF820009DF880
:100930004C10884207DD08A913A8FFF7CAFF07A9D2
:1009400012A8FFF7C6FF9DF818009DF820108842F6
:1009500007DD08A906A8FFF7BCFF07A905A8FFF750
:10096000B8FF9DF818009DF84C10884235D19DF8CD
:100970001400039004909DF81C009DF8101088420C
:1009800003DA9DF81C00049008E09DF81C009DF817
:100990000C10884202DD9DF81C0003909DF8480071
:1009A0009DF81010884203DA9DF84800049008E092
:1009B0009DF848009DF80C10884202DD9DF8480023
:1009C00003909DF818209DF80C109DF81000149BC2
:1009D000FFF784FF09B0BDE8F08F9DF81C009DF87B
:1009E0001410A0EB010B9DF820009DF81810401A80
:1009F00002909DF848009DF81410451A9DF84C008F
:100A00009DF81810A0EB01099DF848009DF81C10F6
:100A1000A0EB010A9DF84C009DF82010401A0190AF
:100A20009DF820009DF84C10884202D19DF820804E
:100A300004E09DF82000401E00F0FF089DF81840DB
:100A400024E0029896FBF0F09DF814100844C0B220
:100A5000049097FBF9F09DF814100844C0B203907D
:100A60005E442F449DF810009DF80C10884203DD71
:100A700003A904A8FFF72DFF22469DF80C109DF84E
:100A80001000149BFFF72AFF601CC4B24445D8DD58
:100A90009DF82000201A00FB0AF69DF81800201A85
:100AA00000FB05F724E0019896FBF0F09DF81C1080
:100AB0000844C0B2049097FBF9F09DF81410084464
:100AC000C0B2039056442F449DF810009DF80C10BE
:100AD000884203DD03A904A8FFF7FBFE22469DF828
:100AE0000C109DF81000149BFFF7F8FE601CC4B2B8
:100AF0009DF84C008442D6DD00F0B5FB00BF69E7ED
:100B00002DE9F84F06460F4692469946DDF828B083
:100B10004FF0000800240025AAF1200000F0FF0893
:100B20007F2E02DD0026B81CC7B2B9F1100F30D1FC
:100B300000242BE0BBF1000F05D004EB0810F849AE
:100B4000085C009006E004EB0810F549085CC0431F
:100B5000C0B20090002515E080202841009908408F
:100B600038B13A19D1B27219D0B2012200F03EFB6D
:100B700006E03A19D1B27219D0B2002200F036FB69
:100B8000681CC5B2082DE7DB601CC4B2102CD1DB99
:100B900035E0B9F1080F30D100242BE0BBF1000F94
:100BA00005D0E04800EBC800005D009006E0DD489D
:100BB00000EBC800005DC043C0B20090002515E006
:100BC000802028410099084038B13A19D1B27219F1
:100BD000D0B2012200F00AFB06E03A19D1B2721934
:100BE000D0B2002200F002FB681CC5B2082DE7DB82
:100BF000601CC4B2082CD1DB01E0BDE8F88F00F026
:100C000032FB00BFF9E72DE9F84F05468946164645
:100C10001C46DDF828A00027102C05D1204604EB47
:100C2000D071C1F347080BE0082C07D1204604EB34
:100C3000D0714910891C01F0FF0801E0BDE8F88F70
:100C400013E0CDF800A0F25D234649462846FFF7A1
:100C500057FF05EB0800C5B2782D04DD002509EB30
:100C6000040000F0FF09781CC7B2F05D0028E8D14D
:100C700000BFE3E710B50246012000E050430B1E21
:100C8000A1F10104E1B2F9D110BD2DE9FF4F83B00C
:100C9000804692461E46DDE9104B00200290102C43
:100CA00005D1204604EBD071C1F347070BE0082CB7
:100CB00006D1204604EBD0714910891CCFB202E066
:100CC00007B0BDE8F08F002530E0701B401EC1B2B8
:100CD0000A20FFF7CFFFBAFBF0F00A21B0FBF1F2D8
:100CE00001FB1209029890B9701EA8420FDDB9F1FC
:100CF000000F0AD107FB0581C8B223462022CDF898
:100D000000B00499FFF7FCFE0EE00120029009F10B
:100D10003001CAB207FB0581C8B22346CDF800B046
:100D20000499FFF7EDFE00BF681CC5B2B542CCDBED
:100D300000BFC5E72DE9FF4F83B080468946924644
:100D40003E200190002562E005EB0510764911F880
:100D500010009AF80010884257D105EB051072492F
:100D600001EB400040789AF8011088424DD10024F0
:100D700048E0069840B105EB05106B4901EB4000D7
:100D8000801C005D029009E005EB0510664901EB4F
:100D90004000801C005DC043C0B2029000262DE0E0
:100DA000802030410299084098B1274604EBD77261
:100DB00009EB6202D1B2A34604EBDB725210A4EB42
:100DC000420208EBC2023244D0B2012200F00EFA15
:100DD00012E0274604EBD77209EB6202D1B2A346B8
:100DE00004EBDB725210A4EB420208EBC202324465
:100DF000D0B2002200F0FAF9701CC6B2082ECFDB88
:100E0000601CC4B2202CB4DB04E0681CC5B201989D
:100E1000854299DB00BF00F026FA07B0BDE8F08FED
:100E20002DE9FE4F0746884691469B4606200290D4
:100E300000256DE005EB850000EB45103B4911F8FE
:100E4000100099F80010884260D105EB850000EB96
:100E50004510364901EB4000407899F8011088426E
:100E600054D100244FE0BBF1000F0AD005EB850000
:100E700000EB45102D4901EB4000801C10F804A048
:100E80000BE005EB850000EB4510284901EB400025
:100E9000801C005DC04300F0FF0A00262FE0802088
:100EA000304100EA0A00A0B1032094FBF0F0404476
:100EB000C0B20190032094FBF0F100FB114007EB5E
:100EC000C0003044C0B201220090019900F08EF9B8
:100ED00013E0032094FBF0F04044C0B201900320E3
:100EE00094FBF0F100FB114007EBC0003044C0B2AE
:100EF00000220090019900F079F9701CC6B2082E0A
:100F0000CDDB601CC4B2482CADDB04E0681CC5B26C
:100F1000029885428EDB00BF00F0A5F9BDE8FE8F88
:100F2000FE2A000806280008EE3000082A390008CA
:100F30002DE9FF4F83B080468946924606200190F6
:100F4000002566E005EB85107C4911F810009AF841
:100F5000001088425BD105EB8510784901EB400019
:100F600040789AF80110884251D100244CE006984C
:100F700040B105EB8510714901EB4000801C005D1C
:100F8000029009E005EB85106C4901EB4000801CE4
:100F9000005DC043C0B20290002731E0802038419C
:100FA00002990840A8B12646E21704EB927209EBB9
:100FB000A202D1B2A346E21704EB92729210A4EB04
:100FC000820208EBC2023A44D0B2012200F00EF9CC
:100FD00014E02646E21704EB927209EBA202D1B2AA
:100FE000A346E21704EB92729210A4EB820208EB84
:100FF000C2023A44D0B2002200F0F8F8781CC7B21E
:10100000082FCBDB601CC4B2802CB0DB04E0681C72
:10101000C5B20198854295DB00BF00F024F907B006
:10102000BDE8F08F2DE9F04106460F4614461D46F7
:10103000DDF8188026E0102C06D143462A463946B2
:101040003046FFF777FE13E0182C06D143462A46B8
:1010500039463046FFF7E4FE0AE0202C06D143462D
:101060002A4639463046FFF763FF01E0BDE8F081CC
:101070003019C6B2C4F18000B04202DA0026381935
:10108000C7B2AD1C28780028D5D100BFEEE72DE906
:10109000F84F8046894617469A46DDF828B0002565
:1010A00045E000243AE00B9850B1F81DC11700EB61
:1010B0005171C91005FB01411BF8011000910BE0B3
:1010C000F81DC11700EB5171C91005FB01411BF858
:1010D0000110C943C9B2009100261BE080203041B5
:1010E0000099084050B109EB0502D1B208EBC402E7
:1010F0003244D0B2012200F079F809E009EB050290
:10110000D1B208EBC4023244D0B2002200F06EF833
:10111000701CC6B2082EE1DB601CC4B2F81DC117FA
:1011200000EB5171B4EBE10FBDDB681CC5B2554556
:10113000B7DB00F098F8BDE8F88F0000E63A000849
:1011400070B504460D462DB14FF48061AF4800F0F4
:101150002EFF04E04FF48061AC4800F02AFF4FF40A
:101160000061AA4800F025FFE1B2A94800F054F957
:101170004FF40061A54800F01AFF70BD70B5054638
:101180000C462646E11704EB5171C91001F1B0007D
:101190000021FFF7D5FFA91CC1F3031141F0100096
:1011A0000021FFF7CDFFA91C01F00F000021FFF780
:1011B000C7FF70BD10B500218D20FFF7C1FF0021D2
:1011C0001420FFF7BDFF0021AF20FFF7B9FF10BDCE
:1011D00010B500218D20FFF7B3FF00211020FFF78D
:1011E000AFFF0021AE20FFF7ABFF10BDF0B5034607
:1011F0001446E4B1CD1701EB5575ED1003EBC515A1
:10120000844E755D0A46CE1701EB5676F610A1EBBB
:10121000C6070126BE40F6B235430846CE1701EB9D
:101220005676F61003EBC6167A4FBD551AE0CD1769
:1012300001EB5575ED1003EBC515764E755D0A464D
:10124000CE1701EB5676F610A1EBC6070126BE407D
:10125000B5430846CE1701EB5676F61003EBC616DB
:101260006C4FBD55F0BD70B500241BE004F1B0001B
:101270000021FFF765FF00210846FFF761FF00210D
:101280001020FFF75DFF002508E005EBC411614A5F
:10129000505C0121FFF754FF681CC5B2802DF4DBC0
:1012A000601CC4B2082CE1DB70BD10B5044634B13B
:1012B000FF224FF48061574801F072FA04E04FF4C6
:1012C0008061544801F073FAFFF7CDFF10BD10B5EF
:1012D0004FF480514D4800F06AFE642000F0ADFCF0
:1012E0004FF48051494800F064FE642000F0A5FCF2
:1012F0004FF48051454800F05AFE10BD08B5012159
:10130000082001F063F84FF4E050ADF80000102021
:101310008DF8030003208DF8020069463B4800F079
:1013200099FD4FF4E051394800F041FE08BD10B579
:1013300000F096F8FFF7E2FFC82000F07EFCFFF710
:10134000C6FF0021AE20FFF7FBFE00210846FFF795
:10135000F7FE00211020FFF7F3FE00214020FFF7E9
:10136000EFFE0021B020FFF7EBFE00218120FFF708
:10137000E7FE0021FF20FFF7E3FE0021A120FFF799
:10138000DFFE0021A620FFF7DBFE0021A820FFF7EB
:10139000D7FE00213F20FFF7D3FE0021C820FFF732
:1013A000CFFE0021D320FFF7CBFE00210846FFF738
:1013B000C7FE0021D520FFF7C3FE00218020FFF7E4
:1013C000BFFE0021D920FFF7BBFE0021F120FFF76F
:1013D000B7FE0021DA20FFF7B3FE00211220FFF74D
:1013E000AFFE0021DB20FFF7ABFE00213020FFF72E
:1013F000A7FE00218D20FFF7A3FE00211420FFF798
:101400009FFE0021AF20FFF79BFE10BD000C0140A6
:101410000038004050000020024600BF108900F054
:1014200002000028FAD0918100BF108900F001006D
:101430000028FAD09089C0B2704702884FF6C7736F
:101440001A400280012902D10288028003E002884A
:1014500042F020020280028842F04002028070477F
:1014600000B587B00121092000F0B0FF4FF4204003
:10147000ADF8040003208DF8060018208DF8070051
:1014800001A91D4800F0E6FC4FF48040ADF80400CF
:1014900048208DF8070003208DF8060001A91648A2
:1014A00000F0D8FC0121880300F09DFF0020ADF87A
:1014B00008004FF48270ADF80A000020ADF80C006F
:1014C0000220ADF80E000120ADF810004002ADF88A
:1014D00012000020ADF81400ADF816000720ADF89A
:1014E000180002A9054800F0FBFF0121034801F0A4
:1014F0009CF807B000BD0000000C0140003800401F
:10150000014604E0002000E0401C0228FCD30A1E33
:10151000A1F10101F6D1704710B50446A41E03E005
:101520000120FFF7EDFF641E002CF9D110BD00B5BE
:101530000120FFF7E5FF0120FFF7E2FF0120FFF7A1
:10154000DFFF0120FFF7DCFF00BD00B50120FFF742
:10155000D7FF0120FFF7D4FF0120FFF7D1FF0120C3
:10156000FFF7CEFF0120FFF7CBFF00BD10B504460B
:1015700003E04FF47A70FFF7CFFF201EA4F10104BF
:10158000F7D110BD08B510208DF803008020ADF80C
:10159000000003208DF802006946FE4800F05AFC66
:1015A0008021FC4800F003FD08BD08B510208DF82F
:1015B00003008020ADF8000003208DF8020069468A
:1015C000F44800F047FC8021F24800F0F2FC08BD2E
:1015D00008B504208DF803008020ADF8000003203A
:1015E0008DF802006946EB4800F034FC08BD10B5E8
:1015F0004021E84800F0DBFC10BD10B54021E54873
:1016000000F0D7FC10BD08B510208DF80300802035
:10161000ADF8000003208DF802006946DD4800F0B7
:1016200019FC4FF40041DB4800F0C1FC10208DF89C
:1016300003004020ADF8000003208DF80200694649
:10164000D44800F007FC4FF40041D24800F0AFFC52
:1016500008BD10B5FFF796FF0820FFF75DFFFFF705
:10166000C6FF0820FFF758FFFFF79FFF0820FFF78E
:1016700053FFFFF7C2FF0820FFF74EFF10BD2DE913
:10168000F041044625468027002613E0FFF7B5FF0A
:10169000FFF74DFF07EA050010B1FFF773FF01E008
:1016A000FFF783FFFFF7A3FFFFF741FF6806050E73
:1016B000701CC6B2082EE9DBFFF79FFF0820FFF77A
:1016C0002BFFFFF785FF0820FFF726FFBDE8F0811D
:1016D00070B50024FFF791FFFFF77AFF0820FFF7AE
:1016E0001BFF002513E0FFF782FFFFF72EFF002608
:1016F0008021A84800F041FC00B1012646EA4400E0
:10170000C4B2FFF77AFFFFF720FF681CC5B2082DAF
:10171000E9DBFFF75DFF0820FFF7FEFE204670BD06
:1017200010B50024FFF769FFFFF752FF0820FFF70D
:10173000F3FEFFF75CFF0820FFF7EEFE01E0601C00
:1017400084B28021934800F018FC08B1642CF6DBC9
:10175000642C01D1002010BDFFF74FFF0820FFF7D8
:10176000DBFE0120F7E710B5FFF747FF0820FFF782
:10177000D3FEFFF71AFF0820FFF7CEFEFFF737FF73
:101780000820FFF7C9FEFFF738FF0820FFF7C4FE67
:10179000FFF71EFF0820FFF7BFFE10BD10B5FFF7D3
:1017A0002CFF0820FFF7B8FEFFF7ECFE0820FFF73C
:1017B000B3FEFFF71CFF0820FFF7AEFEFFF71DFF8B
:1017C0000820FFF7A9FEFFF7F0FE0820FFF7A4FEB0
:1017D00010BD10B5FFF7E9FE0820FFF79DFEFFF7EB
:1017E00006FF0820FFF798FEFFF7CCFE0820FFF762
:1017F00093FE10BD10B5FFF72CFF7120FFF73FFFE0
:10180000FFF78EFFFFF764FF0446FFF7C7FFFFF700
:10181000E0FF204610BD10B50024FFF7EBFF0446A3
:1018200004F06800082801D1012010BD0020FCE769
:1018300010B5FFF70EFF7020FFF721FFFFF770FFD5
:10184000AC20FFF71CFFFFF76BFF3320FFF717FFFC
:10185000FFF766FF0020FFF712FFFFF761FFFFF7BA
:10186000B8FF10BD30B502460B46FF20002113E043
:10187000555C684008240BE000F0800525B1312557
:1018800085EA4005E8B201E04506280E651EECB287
:10189000002CF1DC4D1CE9B29942E9DB30BD70B59A
:1018A00086B00546002005900490039002900190B8
:1018B000009000240026FFF7BBFF5020FFF756FEE4
:1018C00000BF09E040F2E450FFF726FE3046711CED
:1018D0008EB2642800DB05E0FFF78CFF00F080008B
:1018E0008028EFD000BFFFF7B4FE7120FFF7C7FEDE
:1018F000FFF716FFFFF7ECFE0590FFF734FFFFF749
:10190000E7FE0490FFF72FFFFFF7E2FE0390FFF7DB
:101910002AFFFFF7DDFE0290FFF725FFFFF7D8FE55
:101920000190FFF720FFFFF7D3FE0090FFF736FF8F
:10193000FFF74FFF9DF81000204304029DF80C00B4
:10194000204304029DF80800044324092C6000246D
:101950009DF80800204304029DF80400204304027F
:101960009DF800000443C4F313046C6006B070BD1E
:1019700070B58AB00546002009900890079006903F
:101980000590049003900024002601900290FFF738
:101990004FFF01E0000C01405020FFF7E7FD00BFC2
:1019A00009E040F2E450FFF7B7FD3046711C8EB2FB
:1019B000642800DB05E0FFF71DFF00F080008028B1
:1019C000EFD000BFFFF745FE7120FFF758FEFFF78D
:1019D000A7FEFFF77DFE09908DF80400FFF7C3FE18
:1019E000FFF776FE08908DF80500FFF7BCFEFFF7C5
:1019F0006FFE07908DF80600FFF7B5FEFFF768FE53
:101A000006908DF80700FFF7AEFEFFF761FE059028
:101A10008DF80800FFF7A7FEFFF75AFE04908DF837
:101A20000900FFF7A0FEFFF753FE0390FFF7B6FE95
:101A3000FFF7CFFE062101A8FFF714FF9DF80C1059
:101A400088421CD19DF82000204304029DF81C0010
:101A5000204304029DF81800044324092C6000244C
:101A60009DF81800204304029DF81400204304024E
:101A70009DF810000443C4F313046C6002E00020DE
:101A8000286068600AB070BD10B5FFF7BCFDFFF7B5
:101A9000E0FD7020FFF7F3FDFFF742FEA820FFF7FF
:101AA000EEFDFFF73DFE0020FFF7E9FDFFF738FEF2
:101AB0000020FFF7E4FDFFF733FEFFF78AFE0A2060
:101AC000FFF754FDFFF7C5FD7020FFF7D8FDFFF7C6
:101AD00027FEBE20FFF7D3FDFFF722FE0820FFF709
:101AE000CEFDFFF71DFE0020FFF7C9FDFFF718FE32
:101AF000FFF76FFE0A20FFF739FD10BD2DE9F04119
:101B00000446FFF7A6FD7020FFF7B9FDFFF708FEBA
:101B10002046FFF7B4FDFFF703FE0020FFF7AFFDFF
:101B2000FFF7FEFD0020FFF7AAFDFFF7F9FDFFF725
:101B300050FE0520FFF71AFDFFF78BFD7120FFF720
:101B40009EFDFFF7EDFDFFF7C3FD0746FFF70BFE18
:101B5000FFF7BEFD0546FFF706FEFFF7B9FD064697
:101B6000FFF71CFEFFF735FE0A20FFF7FFFCFFF72B
:101B700070FD7020FFF783FDFFF7D2FD44F0B00049
:101B8000FFF77DFDFFF7CCFD2846FFF778FDFFF757
:101B9000C7FD3046FFF773FDFFF7C2FDFFF719FEE3
:101BA00000250026BDE8F08110B51B20FFF7A6FF39
:101BB0001C20FFF7A3FF1E20FFF7A0FF10BD0000B1
:101BC00010B56FF0040000F0C6F82E4800682E49EA
:101BD000B0FBF1F02D4908700846007800EB400199
:101BE000C1EBC0104FF6FF7101EAC0002849088020
:101BF00010BD0146254A12784A434FF0E0235A614E
:101C000000229A611A46126942F001021A6100BF6D
:101C10004FF0E022106900F001021AB100F48032A6
:101C2000002AF5D04FF0E022126922F001024FF0B5
:101C3000E0231A6100229A6170470146144A128813
:101C40004A434FF0E0235A6100229A611A46126912
:101C500042F001021A6100BF4FF0E022106900F06B
:101C600001021AB100F48032002AF5D04FF0E022D0
:101C7000126922F001024FF0E0231A6100229A61FA
:101C8000704700001000002000127A00240000209D
:101C9000260000200648804706480047FEE7FEE78A
:101CA000FEE7FEE7FEE7FEE7FEE7FEE7FEE7FEE70C
:101CB000D70400083101000831490143314A11605D
:101CC000704770B5002100230F22C47804B32D4C57
:101CD000246804F4E064C4F5E064210AC1F104035B
:101CE000CA40447804FA03F184781440214309017E
:101CF000254C0678A155047804F01F050124AC405A
:101D000005786D11AD0005F1E025C5F8004109E049
:101D1000047804F01F050124AC401C4D06787611B0
:101D200045F8264070BD1A4A0A400243154B1B1F56
:101D30001A60704739B1134A121D12680243114BE1
:101D40001B1D1A6006E00F4A121D126882430D4BDC
:101D50001B1D1A607047042808D14FF0E021096963
:101D600041F004014FF0E022116107E04FF0E02163
:101D7000096921F004014FF0E02211617047000071
:101D80000000FA050CED00E000E400E080E100E076
:101D900080FFFF1F10B50446CC48844208D10121C2
:101DA000042000F02DFB0021042000F029FB46E078
:101DB000C748844208D10121082000F021FB0021FE
:101DC000082000F01DFB3AE0C248844208D10121FE
:101DD000102000F015FB0021102000F011FB2EE078
:101DE000BD48844208D10121202000F009FB0021D8
:101DF000202000F005FB22E0B848844208D10121F0
:101E0000402000F0FDFA0021402000F0F9FA16E031
:101E1000B348844208D10121802000F0F1FA00216A
:101E2000802000F0EDFA0AE0AE48844207D101219B
:101E3000801500F0E5FA0021A01500F0E1FA10BDD0
:101E400010B50121084600F0DBFA0021012000F066
:101E5000D7FA10BD2DE9F0410246002500260020EA
:101E600000230024002791F803C00CF00F0591F81F
:101E700003C00CF0100CBCF1000F03D091F802C0AD
:101E80004CEA050591F800C0BCF1000F31D0146890
:101E900000202BE04FF0010C0CFA00F3B1F800C069
:101EA0000CEA03069E4220D183004FF00F0C0CFA7F
:101EB00003F7BC4305FA03FC4CEA040491F803C0A1
:101EC000BCF1280F06D14FF0010C0CFA00FCC2F84F
:101ED00014C00AE091F803C0BCF1480F05D14FF0DF
:101EE000010C0CFA00FCC2F810C0401C0828D1D329
:101EF0001460B1F800C0BCF1FF0F34DD546800205D
:101F00002EE000F1080C4FF0010808FA0CF3B1F8CC
:101F100000C00CEA03069E4221D183004FF00F0C53
:101F20000CFA03F7BC4305FA03FC4CEA040491F8ED
:101F300003C0BCF1280F05D100F1080C08FA0CF819
:101F4000C2F8148091F803C0BCF1480F07D100F12A
:101F5000080C4FF0010808FA0CF8C2F81080401C79
:101F60000828CED35460BDE8F0814FF6FF710180A0
:101F7000022181700421C1707047024600209368DD
:101F80000B400BB1012000E000207047014688683B
:101F900080B2704702460020D3680B400BB101208D
:101FA00000E0002070470146C86880B270470161B8
:101FB0007047416170470AB1016100E041617047BB
:101FC000C16070474FF480320A438261816182614F
:101FD00082698269704702460020434B18684FF6B9
:101FE0008073184040EA021008433F4B1860704766
:101FF0003E49C8617047F0B50A460023002400211D
:10200000002500F00046B6F1004F02D1364EF169CE
:1020100001E0354E7168C0F3034583B200F4401609
:10202000B6F5401F08D121F070612F4E766826F07A
:1020300070662D4F7E6012E000F48016B6F5801FAA
:1020400006D1032606FA05F4A14341F0706106E0CB
:10205000460D360103FA06F6B14341F0706122B134
:10206000460D360103FA06F6314300F00046B6F19C
:10207000004F02D11C4EF16101E01B4E7160F0BDBA
:1020800030B500228B071C0F0F2303FA04F2164B06
:1020900008338C1053F824309343134C08348D10BC
:1020A00044F8253023468C1053F824308C07240F35
:1020B00000FA04F423430C4C08348D1044F8253006
:1020C00030BD0A49DC31086070470000000801405B
:1020D000000C0140001001400014014000180140B4
:1020E000001C01400020014000000140000020428F
:1020F000DF48006840F00100DD490860084640689C
:10210000DC490840DA49486008460068DA49084076
:10211000D74908600846006820F480200860084617
:10212000406820F4FE0048604FF41F00886070474C
:10213000CF49096821F48031CD4A11601146096800
:1021400021F480211160B0F5803F03D0B0F5802FDD
:102150000ED106E0C649096841F48031C44A1160D5
:1021600007E0C349096841F4A021C14A116000E0B9
:1021700000BF00BF704710B50146002200230020B9
:102180004A11012A02D1BA4C236806E0022A02D180
:10219000B74C236A01E0B64C636A01F01F020124C8
:1021A00094401C400CB1012000E0002010BD38B567
:1021B000002000900024002500BF3120FFF7DBFF46
:1021C00005460098401C00900098B0F5A06F01D023
:1021D000002DF2D03120FFF7CEFF08B1012400E03E
:1021E0000024204638BD01460020A14A106820F096
:1021F000F80040EAC10010607047A04908607047CD
:10220000024600209A4B586820F47C1042EA0103F1
:102210001843974B586070479849086670470146C5
:102220000020934A506820F0030008435060704734
:102230008F48406800F00C007047014600208C4A2F
:10224000506820F0F00008435060704701460020BD
:10225000874A506820F4E0600843506070470146A8
:102260000020834A506820F4605040EAC10050606A
:10227000704729B17E4A527A02437D4B5A7204E07C
:102280007B4A527A82437A4B5A7270477B49D831E3
:102290000860704701460020754A506820F44040AD
:1022A0000843506070470021714A20321170704A13
:1022B00082F82010012802D004280AD104E001216C
:1022C0006B4A2032117005E00521694A20321170F5
:1022D00000E000BF00BF704769490860704764496B
:1022E000096A0143624A11627047654944390860CE
:1022F000704730B500210022002400235C4D6D683A
:1023000005F00C0121B1042905D0082923D105E0ED
:102310005C4D056022E05B4D05601FE0544D6D682B
:1023200005F47012524D6D6805F48034022505EBFA
:1023300092421CB9544D554305600BE04C4D6D68FD
:1023400005F400351DB1504D5543056002E04D4D7B
:102350005543056002E04B4D056000BF00BF444D92
:102360006D6805F0F0010909484D6B5C0568DD40BA
:1023700045603F4D6D6805F4E061090A434D6B5CB3
:102380004568DD4085603A4D6D6805F46051C90AC5
:102390003E4D6B5C4568DD40C560354D6D6805F4AC
:1023A0004041890B3A4D6B5CC568B5FBF3F505619F
:1023B00030BD29B12E4A526902432D4B5A6104E0C7
:1023C0002B4A526982432A4B5A61704729B1284AE5
:1023D00092690243264B9A6104E0254A926982433E
:1023E000234B9A61704729B1214AD2690243204B9D
:1023F000DA6104E01E4AD26982431D4BDA617047FC
:1024000029B11B4AD2680243194BDA6004E0184A2A
:10241000D2688243164BDA60704729B1144A1269B8
:102420000243134B1A6104E0114A12698243104BB4
:102430001A61704712494039086070470F49C864F3
:1024400070470B49C87170470948406A40F0807076
:1024500007494862704701460020054A92680A40D1
:102460000AB1012000E000207047014988727047DE
:10247000001002400000FFF8FFFFF6FE000042429D
:102480008004424200127A0000093D00280000202A
:102490003800002010B50446BE48844208D101210E
:1024A0008014FFF7ADFF0021A014FFF7A9FF16E08D
:1024B000B948844208D101210014FFF7AEFF002182
:1024C0002014FFF7AAFF0AE0B448844207D1012193
:1024D000C013FFF7A2FF0021E013FFF79EFF10BD1E
:1024E00010B50022028802F441520B884C88234325
:1024F0008C882343CC8823430C8923434C89234372
:102500008C892343CC8923431A430280838B4FF267
:10251000FF74234083830B8A038210BD2DE9F04FA3
:1025200085B005460C464FF0000902274FF0000821
:102530004FF0010B0026B246A88B4FF24001084035
:10254000A88302202884B5F81C90A068022801D135
:1025500000BF38E0A08810B94FF0010B01E04FF048
:10256000020B8D48854200D100E000BF6846FFF7AE
:10257000C0FEDDF800A0E088B0F5007F0AD14FEA88
:102580001A2000EB80004000A168B0FBF1F0401D74
:1025900086B20BE04FEA4B10BAFBF0F000EB800084
:1025A0004000A168B0FBF1F0401D86B20A20B6FBE6
:1025B000F0F606F00108A6EB0800C0F34F074FF64F
:1025C000FF7000EA0828022F01DBFF2F02DD02273F
:1025D0004FF00008E08840EA080038432884A088CB
:1025E000A1890843618808432188084340F40060BA
:1025F00040EA0909A5F81C9005B0BDE8F08F00215C
:10260000018041808180C180018141818181C181BE
:102610000721018270470021018041808180C180B3
:102620000221816000218181704721B1028842F03E
:102630004002028004E002884FF6BF731A40028015
:10264000704721B1828B42F48062828304E0828BE6
:102650004FF6FF331A408283704730B500240023C1
:102660000C110125A540ABB21AB185881D438580A8
:1026700002E085889D43858030BD1AB183880B4375
:10268000838002E083888B43838070478181704719
:102690000146888970474FF6FF62914204D0028854
:1026A00042F48072028004E002884FF6FF631A4011
:1026B0000280704721B1828842F00402828004E0E7
:1026C00082884FF6FB731A408280704702884FF26F
:1026D000FF731A40028002880A4302807047018813
:1026E00041F480510180704721B1028842F40052C8
:1026F000028004E002884DF6FF731A4002807047A2
:1027000002460020012901D0108B00E0908A70471A
:102710000146088A7047B1F5804F04D1028842F41F
:102720008042028004E002884BF6FF731A40028068
:1027300070470246002013890B400BB1012000E0D6
:1027400000207047CA4302817047F0B5024600205E
:1027500000240023002501F00F070126BE40B4B27B
:102760000B1101269E40B3B2968806EA030516892E
:10277000264016B10DB1012000E00020F0BD10B5DB
:10278000002201F00F040123A3409AB2D343038136
:1027900010BD00000030014000380040003C004007
:1027A000D2B201E000F8012B491EFBD27047002293
:1027B000F6E710B513460A4604461946FFF7F0FF40
:1027C000204610BD064C074D06E0E06840F00103CE
:1027D00094E8070098471034AC42F6D3FDF7ACFC00
:1027E000F43D0008143E000802E008C8121F08C1AA
:1027F000002AFAD170477047002001E001C1121F82
:10280000002AFBD1704700000000000000001010FB
:1028100010100010000028282800000000002828C0
:102820007C287C282800103C503814781000004C7C
:102830002C1008606000304850205448340030109C
:1028400020000000000008102020201008002010A8
:102850000808081020000010543854100000001020
:10286000107C10100000000000000018081000008C
:1028700000007C0000000000000000303000000478
:1028800008102040000038444C5464443800103094
:102890001010101038003844040810207C007C0808
:1028A000100804443800081828487C0808007C40B8
:1028B00078040444380018204078444438007C04EC
:1028C000081020202000384444384444380038445C
:1028D000443C04083000003030003030000000304C
:1028E00030003010200008102040201008000000A8
:1028F0007C007C00000020100804081020003844F0
:10290000040810001000384404345C4438001028D7
:1029100044447C4444007844447844447800384437
:1029200040404044380070484444444870007C4073
:10293000407840407C007C40407840404000384433
:10294000405C44443C004444447C444444003810CB
:102950001010101038001C080808084830004448BF
:102960005060504844004040404040407C00446C2F
:10297000545444444400444464544C444400384453
:10298000444444443800784444784040400038444B
:1029900044445448340078444478504844003C400F
:1029A0004038040478007C101010101010004444CB
:1029B00044444444380044444444442810004444BB
:1029C00044545454280044442810284444004444A7
:1029D0004428101010007C04081020407C0038208F
:1029E0002020202038000040201008040000380873
:1029F0000808080838001028440000000000000003
:102A0000000000007C002010080000000000000012
:102A100038043C443C004040586444447800000082
:102A20003840404438000404344C44443C00000026
:102A300038447C40380038242070202020000000DA
:102A40003C44443C04384040586444444400100032
:102A500030101010380008001808080848304040AE
:102A6000485060504800301010101010380000001E
:102A70006854544444000000586444444400000036
:102A80003844444438000000586464584040000012
:102A9000344C4C34040400005864404040000000B2
:102AA0003C403804780020207020202418000000CA
:102AB0004444444C340000004444442810000000C6
:102AC00044445454280000004428102844000000C6
:102AD0004444443C043800007C0810207C00102052
:102AE00020402020100000101010101010002010A6
:102AF0001008101020000000002054080000000002
:102B000000000000000000000000000000000000C5
:102B100000181818181818180000181800000012CB
:102B20003624480000000000000000000000000003
:102B300000242424FE484848FE484848000000007D
:102B40001038545450301C141454543810100000D1
:102B50000044A4A8A8A8541A2A2A2A440000000065
:102B60000030484848506EA4948889760000006080
:102B70006020C00000000000000000000000000213
:102B8000040808101010101010080804020000407B
:102B90002010100808080808081010204000000045
:102BA00000001010D63838D61010000000000000C9
:102BB000000010101010FE10101010000000000097
:102BC00000000000000000000000606020C0000065
:102BD0000000000000007F00000000000000000076
:102BE0000000000000000000000060600000000025
:102BF00001020204040808101020204040000000D8
:102C0000001824424242424242422418000000007E
:102C100000107010101010101010107C0000000038
:102C2000003C4242420404081020427E00000000A2
:102C3000003C4242041804020242443800000000F2
:102C400000040C14242444447E04041E00000000EC
:102C5000007E4040405864020242443800000000B8
:102C6000001C2440405864424242241800000000E6
:102C7000007E4244080810101010101000000000E0
:102C8000003C4242422418244242423C00000000E0
:102C9000001824424242261A020224380000000092
:102CA00000000000181800000000181800000000C4
:102CB000000000001818000000181808300000007C
:102CC0000002040810204020100804020000000048
:102CD00000000000FE000000FE00000000000000F8
:102CE00000402010080402040810204000000000EA
:102CF000003C42426202040808001818000000006C
:102D00000038445AAAAAAAAAB442443800000000D3
:102D1000001010182828243C444242E7000000001C
:102D200000F8444444784442424244F80000000021
:102D3000003E424280808080804244380000000093
:102D400000F8444242424242424244F8000000003D
:102D500000FE424848784848404242FE00000000D9
:102D600000FE424848784848404040E000000000EB
:102D7000003C44448080808E84444438000000003D
:102D800000E7424242427E42424242E700000000E7
:102D9000007C1010101010101010107C00000000AB
:102DA000003E0808080808080808080888F000001D
:102DB00000EE444850705048484444EE0000000083
:102DC00000E0404040404040404042FE00000000E3
:102DD00000EE6C6C6C6C5454545454D600000000DB
:102DE00000C7626252524A4A4A4646E20000000068
:102DF000003844828282828282824438000000004D
:102E000000FC424242427C40404040E00000000062
:102E10000038448282828282B2CA4C3806000000A6
:102E200000F8444444784848444442E30000000029
:102E3000003E4242402018040242427C0000000052
:102E400000FE92101010101010101038000000003A
:102E500000E74242424242424242423C00000000FD
:102E600000E74242442424282818101000000000E3
:102E700000D692929292AAAA6C44444400000000A8
:102E800000E7422424181818242442E70000000018
:102E900000EE4444282810101010103800000000E4
:102EA000007E840408081020204242FC0000001E1E
:102EB0001010101010101010101010101E00000034
:102EC0004040202010100804040202020101007892
:102ED0000808080808080808080808087800000812
:102EE00014220000000000000000000000000000AC
:102EF00000000000000000000000000000FF006073
:102F000010000000000000000000000000000000B1
:102F100000000000003C421E2242423F0000000030
:102F200000C04040405864424242645800000000E3
:102F300000000000001C22404040221C0000000055
:102F400000060202021E22424242261B000000002E
:102F500000000000003C427E4040423C0000000077
:102F6000000F1110107E10101010107C00000000D7
:102F700000000000003E444438403C42423C000017
:102F800000C04040405C6242424242E70000000014
:102F900000303000007010101010107C0000000095
:102FA000000C0C00001C0404040404044478000019
:102FB00000C04040404E4850684844EE00000000C9
:102FC00000701010101010101010107C0000000085
:102FD0000000000000F64949494949ED00000000A1
:102FE0000000000000DC6242424242E700000000B4
:102FF00000000000003C42424242423C000000000F
:103000000000000000D864424242645840E00000E2
:1030100000000000001E22424242261A0207000061
:103020000000000000EE3220202020F80000000008
:1030300000000000003E42403C02427C00000000D4
:1030400000000010107C10101010100C0000000088
:103050000000000000C642424242463B0000000021
:103060000000000000E742242428101000000000A7
:103070000000000000D79292AAAA44440000000079
:1030800000000000006E24181818247600000000CC
:103090000000000000E742242428181010E000007F
:1030A00000000000007E44081010227E0000000393
:1030B00004040404040804040404040403000808C9
:1030C0000808080808080808080808080808006030
:1030D00010101010100810101010101060000000D8
:1030E0000000000020520C00000000000000C8ABEF
:1030F0000100010002800440082010102FE8C106E2
:10310000010001001FF00100010001007FFC000030
:10311000B6AF004000407C40004001FC0044FE444B
:1031200020442044208448844484FD04450402282B
:103130000410B5E70100010001003FF82108210853
:1031400021083FF82108210821083FF8210A01023F
:10315000010200FED7D300007FF8001000200040DD
:1031600001800100FFFE01000100010001000100DB
:10317000010005000200BCBC10201020102013FE2E
:10318000FC201020102015FC18843088D0481050E6
:103190001020105051882606CAF5010001200110A8
:1031A00001107FFC03800540054009201110210813
:1031B00041048102010001000100CFB500F83F0089
:1031C0000400082010403F800100061018087FFC12
:1031D000010409201110210845040200CDB310405C
:1031E0001020202023FE4840F888110423FE40923E
:1031F000F890409000901912E112420E0400C9E8C4
:10320000000021F0111011100110020EF40013F84B
:1032100011081110109014A0184010A003180C06EB
:10322000D6C37FFC44447FFC01007FFC01001FF0FB
:1032300010101FF010101FF010101FF01010FFFEE4
:103240000000D2F4020001003FF800000820044012
:10325000FFFE00001FF0101010101FF010101010D3
:103260001FF01010C1BF00001FF010101FF0101051
:10327000FFFE00001FF011101FF011101FF00100E1
:103280001FF001007FFCD1D5100008FE7F10222026
:10329000147C7F4444544854525444544854515428
:1032A0004228442488423082C9AB080008001FE04D
:1032B00020204040BFF82108210821083FF82000C5
:1032C0002002200220021FFE0000CDF800007FFC3B
:1032D00040044004421452944A54442444244A541E
:1032E0004A5452946104400440144008C2E71080DC
:1032F000108020F821084B10FCA0104020A041189D
:10330000FA0645F801081908E10841F80108CEC29B
:10331000000023F81208120883F84208420813F844
:10332000100027FCE4A424A424A424A42FFE00005D
:10333000B6C8010000803FFE222022203FFC222050
:10334000222023E020002FF02410422041C08630AC
:10335000380EA1E6600091F4960C6C040804180085
:103360001800180018001800180008000C040608BF
:1033700001F00000CAAA000027F81408140887F812
:103380004408440817F811202120E9242528233077
:1033900021202FFE0000B6C8010000803FFE222041
:1033A00022203FFC2220222023E020002FF02410A6
:1033B000422041C08630380ED6D8001000F83F00B9
:1033C0000100FFFE01001FF011101FF011101FF08F
:1033D00001003FF80100FFFE0000C7EC0100008083
:1033E0003FFE20002080208020802FFC2080214074
:1033F000214022204220441088081006BDBB020054
:1034000001000100FFFE00001010100820244824D5
:1034100004400280010002800C403030C00ECDA874
:10342000000047F8201021A0004007FCE444244499
:1034300027FC2444244427FC2444245454088FFEAD
:10344000B4F301000100010001000100FFFE0100D2
:10345000010002800280044004400820101020086F
:10346000C006D1A722081108111000207FFE4002DB
:1034700080041FE000400180FFFE01000100010008
:1034800005000200BBB600800080FC8004FC05043F
:1034900049082A401440104028A024A0451081105B
:1034A000020804040802D3AD00002080133C12245B
:1034B00002240224F2241224122412B4132812200B
:1034C0001020282047FE0000C4E308800880088000
:1034D00011FE1102320434205020912811241224AC
:1034E00012221422102010A01040B4BA01000100D2
:1034F0007FFC01003FF80200FFFE082010102FE8BB
:10350000C82608200FE0082008200FE0D3D00200D2
:103510000200FFFE040004000FF0081018102FF046
:10352000481088100FF00810081008500820B0D973
:103530000000FFFE0100020004003FF82008200800
:1035400020083FF820082008200820083FF820081D
:10355000BBA808200820FFFE08200000088808906B
:1035600010A030C050809180128214821082107E90
:103570001000C7EF08401C40F04010401144FD44CB
:1035800011483250384054A054A0909011101108A6
:1035900012041402D3D002000200FFFE0400040053
:1035A0000FF0081018102FF0481088100FF00810B6
:1035B000081008500820D4C200001FF81008100896
:1035C00010081FF81008100810081FF8100810083D
:1035D0002008200840288010A3AC00000000000054
:1035E00000000000000000000000000000000000DB
:1035F00030003000100020000000CFC47FFC02002B
:103600001FF010101FF010101FF010101FF0080016
:103610001FF02820444003801C70E00ED3D002002D
:103620000200FFFE040004000FF0081018102FF035
:10363000481088100FF00810081008500820C1B971
:10364000008040402FFE2000000003F812081208FE
:1036500023F8E0402250224824442844214000809E
:10366000B7E700003FF0201020102850245022908F
:1036700022902110211022902292244A484A40068A
:103680008002B6AC040004000FF010102820444063
:1036900003800C603018C006070000C000200E0038
:1036A00001800040D3D002000200FFFE04000400AD
:1036B0000FF0081018102FF0481088100FF00810A5
:1036C000081008500820D1A93FF801007FFE4102F0
:1036D0009D7401001D7000003FF8000800081FF8ED
:1036E000000800083FF80008A1A300000000000047
:1036F00000000000000000000000000000001800B2
:1037000024002400180000000000C8F4082008204D
:10371000FFFE08200A200200FFFE040008001FF040
:1037200028104810881008100FF00810CEDE000096
:103730003FF002000200020002007FFC04800480CF
:1037400004800880088010842084407C8000CFD0D2
:10375000200017FC00044104410441045FF44104CB
:103760004384454449245114410441044014400811
:10377000CAC201000100FFFE01003FF821083FF826
:1037800001003FF80108FFFE01083FF801000500B5
:103790000200B9D21020102011FC1020FC201020B3
:1037A00013FE100018203020D1FC10201020102013
:1037B00053FE2000D0C40000020001000080008001
:1037C0000400040824042404240244024412841043
:1037D000041003F00000CDB7008000800880048052
:1037E0002480108010800080FFFE01000140022034
:1037F000041008083004C004A3AC0000000000005E
:1038000000000000000000000000000000000000B8
:1038100030003000100020000000B1E3100017FE5F
:10382000104027FC2444644467FCA444244427FC3F
:10383000224021402080214022302C0ECAC71FF098
:10384000101010101FF0101010101FF00000FFFEDD
:103850000100110011F811002900450083FEC8CBBA
:10386000010001000100010001000100028002804E
:103870000440044008200820101020084004800262
:10388000BCE4200013FC1004400447C444444444F6
:10389000444447C444444444444447C4400440145A
:1038A0004008BAC3100010FC10041008FC102420BB
:1038B000242025FE242048202820102028204420D1
:1038C00084A00040CAB1000800087C08440845FEF6
:1038D000440844087C0844884448444844087C0818
:1038E000440800280010BDDA08200820FFFE082048
:1038F000082000007FF802080208020802080250AF
:103900000220020002000200A1A30000000000004B
:10391000000000000000000000000000000018008F
:1039200024002400180000000000C8AB00000000C4
:10393000000000380000300000680000440000C2B1
:10394000000181000300C00600700FFFFE10180880
:1039500060180000180000180000186003FF8000C5
:1039600018000018000018000018081FFFFC0000D5
:1039700000000000B6AF0000000000000001800061
:1039800001000061003F810000010000010C000700
:10399000FC00310C3FC10C06010C04010C0C810829
:1039A0000843081062081022082FF4083814080091
:1039B00008080011180020F8004030000000B5E7AA
:1039C00000000000000000180000100000100000BF
:1039D00010000FFFF0081020081020081020081019
:1039E000200FFFE0081020081020081020081020E9
:1039F0000FFFE0081000001008001008001004007D
:103A0000180C000FF8000000D7D3000000000000E1
:103A10000000200FFFF000006000008000030000A5
:103A2000140000180000180000180C7FFFFE00189A
:103A3000000018000018000018000018000018000E
:103A400000180000180000180000F8000030000006
:103A50000000BCBC0000000400000701800601005B
:103A600006010006010006C10C3F3FF006010006FA
:103A7000010006010006FFF80708103E0830260482
:103A8000200604600602400602C00601800603808C
:103A9000060C601E103E0CE00C000000CAF5000091
:103AA00000000000001C000019800018E0001860F1
:103AB00000182800181C3FFFE0003C00007C0000BC
:103AC0005A0000DA000099000119800318C0061896
:103AD0006004183808181E30180840180000180034
:103AE000001800000000C8AB00000000000000004B
:103AF0000003000000038000000780000006800033
:103B0000000C4000001C200000183000003018009D
:103B100000600C0000C00700018003C0030002F831
:103B200007FFFF7C08018090300180004001800089
:103B300000018000000181000001838001FFFFC0BF
:103B40000001800000018000000180000001800071
:103B50000001800000018010000180381FFFFFFC81
:103B60000000000000000000B6AF000000000000F0
:103B700000000000080000000E0000000C00000C17
:103B80000C003FFE0C0010000C0000000C000000B8
:103B90000C180000FFFC00020C1800070C183FFF77
:103BA0008C1801C00C1801C00C1801800818030003
:103BB00008180210181806081818040C101808061F
:103BC0001018100630102FFB20103E03601010025A
:103BD000C0300000803000010C30000203E0000C17
:103BE00001E00010008000000000B5E700000000C8
:103BF000000000000003000000038000000300003C
:103C000000030000000300000003000007FFFFC0E6
:103C1000060300C0060300C0060300C0060300C080
:103C2000060300C0060300C007FFFFC0060300C074
:103C3000060300C0060300C0060300C0060300C060
:103C400007FFFFC00603008006030000000300100A
:103C50000003000800030008000300180003801C94
:103C60000001FFF80000000000000000D7D30000B2
:103C700000000000000000000000000000C003FF82
:103C8000FFE0000001E0000003000000060000006B
:103C90001800000030000001C0000001C000000159
:103CA000800000018010000180383FFFFFFC000110
:103CB0008000000180000001800000018000000100
:103CC00080000001800000018000000180000001F0
:103CD0008000000180000001800000018000003FA2
:103CE0008000000700000002000000000000BCBCD3
:103CF00000000000000000000180080001C00E006C
:103D000001800C0001800C0001800C0001800C007F
:103D100001980C183FFFFFFC01800C0001800C0093
:103D200001800C0001800C00018C0C2001B3FFF01D
:103D300001C080600F8080603D8040C0318040C005
:103D400001802180018021800180330001801E00DC
:103D500001800C0001801E00018037000180E3C05B
:103D60001F8380F8078E007C0230000000000000F6
:103D7000CAF5000000000000000000010000000182
:103D8000C00000018C000001870000018380000159
:103D9000818000018080000180303FFFFFF8100328
:103DA000C0000007C0000007A000000DA000000D2B
:103DB0009000001990000019980000318C000061FB
:103DC000860000C1870000818380018181C00301DA
:103DD00080F00401807C08018038100180106001AF
:103DE0008000000180000001800000010000000050
:103DF00000000000143E0008000000203C0000000D
:103E0000E8270008503E00083C000020140800008D
:103E1000F82700080000000000000000000000007B
:103E20000000000000A24A040000000000000000A2
:103E3000010203040607080900000000000000005A
:103E4000010203040102030406070809020406082C
:0400000508000131BD
:00000001FF
