:020000040800F2
:10000000481400200501000823170008CD0100084E
:1000100021170008C30500089D1B00080000000010
:1000200000000000000000000000000017010008B0
:10003000F70500080000000057010008A518000897
:100040001F0100081F0100081F0100081F01000810
:100050001F0100081F0100081F0100081F01000800
:100060001F0100081F0100081F0100081F010008F0
:100070001F0100081F0100081F0100081F010008E0
:100080001F0100081F0100081F0100081F010008D0
:100090001F0100081F0100081F0100081F010008C0
:1000A0001F0100081F0100081F0100081F010008B0
:1000B0001F0100081F0100081F0100081F010008A0
:1000C0001F0100081F0100081F0100081F01000890
:1000D0001F010008911B00081F0100081F010008F4
:1000E0001F0100081F0100081F010008DFF810D0E1
:1000F00000F006F90048004725030008AFF3008030
:10010000481400200648804706480047FEE7FEE7FF
:10011000FEE7FEE7FEE7FEE7FEE7FEE7FEE7FEE7B7
:100120007D190008ED000008EFF3108072B67047EB
:1001300080F310887047324A1368012B04D04FF0C7
:10014000010313602F4A10602F4A11602F484FF0AF
:10015000805101607047EFF3108272B62848016841
:1001600091B14FF0000101602648016829B1EFF319
:10017000098121E9F00F00680160234909680968D5
:10018000B1E8F00F81F3098882F310884EF0040E75
:1001900070471D4908601B494FF00000086018496E
:1001A0004FF0010008601A481A49D0F8002041EACF
:1001B0000201016015484FF0805101601648006847
:1001C000006880F3088861B662B670471EF0040FBD
:1001D0000CBFEFF30880EFF3098020E9F00F40F83F
:1001E00004ED1EF0040F0CBF80F3088880F309882B
:1001F00000B502F0BBFE5DF804EB4EF0040E704754
:10020000740000206C0000207000002004ED00E06D
:1002100020ED00E00000FFFF08ED00E040EA0103F0
:100220009B0703D009E008C9121F08C0042AFAD2AC
:1002300003E011F8013B00F8013B521EF9D2704770
:10024000D2B201E000F8012B491EFBD27047002218
:10025000F6E710B513460A4604461946FFF7F0FFC5
:10026000204610BD421E12F8013F002BFBD111F8B1
:10027000013B02F8013B002BF9D1704710B5044651
:1002800004E00B7800F8013B03B1491C521EF8D280
:10029000204610BD421C10F8011B0029FBD1801A1A
:1002A0007047034611F8012B00F8012B002AF9D101
:1002B0001846704730B505460020034600E05B1C39
:1002C000934205D2EC5CC85C201A01D1002CF6D117
:1002D00030BD30B50B46014600202022012409E044
:1002E00021FA02F59D4205D303FA02F5491B04FAEF
:1002F00002F52844151EA2F10102F1DC30BD000018
:10030000064C074D06E0E06840F0010394E8070062
:1003100098471034AC42F6D3FFF7ECFE14440008C3
:100320003444000810B503F0F1FC002010BD10B5F6
:1003300001F008F901F0EEF8702000F01DF901F06D
:10034000F1F9A82000F018F901F0ECF9002000F014
:1003500013F901F0E7F9002000F00EF901F0E2F9DD
:1003600001F08EFA0A2000F047F901F0D3F870206E
:1003700000F002F901F0D6F9BE2000F0FDF801F01E
:10038000D1F9082000F0F8F801F0CCF9002000F0D5
:10039000F3F801F0C7F901F073FABDE810400A2044
:1003A00000F02AB92DE9F041002501F0E9F901F04A
:1003B000EFF9082001F05AFA00240F4F01F0D8F9A4
:1003C00000F034F900268021384600F0A5FA00B18B
:1003D000012646EA4500C5B201F0D2F900F026F93F
:1003E000641CE4B2082CE9D301F0D2F9082001F032
:1003F0003DFA2846BDE8F081000C01402DE9F041AE
:100400008AB0002406468DF81C408DF820408DF8F7
:1004100010408DF80C408DF818408DF814408DF880
:100420001C40274625460194029400F08AF850208B
:1004300000F0E2F840F2E45807E0404601F016FA16
:1004400028466D1CADB2642803D200F069F800069E
:10045000F3D401F05FF8712000F08EF801F062F93A
:10046000FFF7A0FF8DF81C008DF8040001F0C6F91D
:10047000FFF798FF8DF820008DF8050001F0BEF918
:10048000FFF790FF8DF810008DF8060001F0B6F927
:10049000FFF788FF8DF80C008DF8070001F0AEF92A
:1004A000FFF780FF8DF818008DF8080001F0A6F91D
:1004B000FFF778FF8DF814008DF8090001F09EF920
:1004C000FFF770FF8DF81C0001F0B4F901F0D8F9C6
:1004D000062101A800F076F89DF81C1088421CD176
:1004E0009DF820009DF81010074341EA07209DF871
:1004F0000C1041EA0020000930609DF80C009DF8C6
:10050000181041EA00209DF8141041EA0020C0F3C1
:10051000130070600AB0BDE8F08134607460F9E7E0
:1005200010B500F0F7FF712000F026F801F0FAF89E
:10053000FFF738FF044601F07DF901F0A1F92046EC
:1005400010BD10B500F0E6FF702000F015F801F0C6
:10055000E9F8AC2000F010F801F0E4F8332000F0E6
:100560000BF801F0DFF8002000F006F801F0DAF8EF
:10057000BDE8104001F084B970B50546802600241E
:1005800001F0FEF800F043F82E4202D001F00EF91F
:1005900001E001F01FF901F0EBF800F038F868060F
:1005A000641C050EE4B2082CEAD301F0E9F8082037
:1005B00001F05CF901F0ECF8BDE87040082001F0B2
:1005C00055B9FEE770B50446FF20002231250FE043
:1005D000A35C58400823060602D585EA400000E0E7
:1005E00040005B1EC0B213F0FF03F4D1521CD2B224
:1005F0008A42EDD370BD704710B503464FF47A744C
:1006000002E0204601F032F95B1EFAD210BD00B5BF
:10061000012000F01DF8012000F01AF8012000F080
:1006200017F801205DF804EB00F012B800B50120C6
:1006300000F00EF8012000F00BF8012000F008F89F
:10064000012000F005F801205DF804EBAFF3008015
:10065000401EFDD2704772B6FEE710B590F821102B
:100660000022022905D00421816380F82020012086
:1006700010BD01680B6823F00E030B6001680B6866
:1006800023F001030B6090F84030C46B012101FAA4
:1006900003F3636080F8211080F82020104610BD1D
:1006A00010B590F821100024022903D004218163A1
:1006B00001243DE001680A6822F00E020A60016828
:1006C0000A6822F001020A601A4A0168914201D1C7
:1006D000012121E0174A1432914201D110211BE07F
:1006E000144A2832914201D1891515E0114A3C3251
:1006F000914201D189140FE00E4A5032914202D149
:100700004FF4803108E00B4A6432914202D14FF439
:10071000801101E04FF08071064A083A51600121D2
:1007200080F82110002180F82010416B01B188472A
:10073000204610BD080002402DE9F84FDFF8B891BF
:10074000002409F1040A0AF1040B23460F270BF1D8
:10075000040EC9E00125A5402A40AA427DD1674E7A
:10076000D1F804C0ACEB0608B44532D014DCBCF1BF
:10077000030F3AD009DCBCF1000F2AD0BCF1010F05
:100780001CD0BCF1020F31D11DE0BCF1110F17D00C
:10079000BCF1120F2AD119E0B8F5881F19D006DC78
:1007A000B8F5803F15D0B8F5801F1FD111E0B8F51E
:1007B000001F0ED0B8F5041F18D10AE0CB6815E071
:1007C000CB681B1D12E0CB6808330FE0CB680C33FD
:1007D0000CE08B682BB1012B4FF0080303D045616F
:1007E00004E0042302E0056100E00023FF2A01D8B1
:1007F000064601E000F104064FEA840501D9A5F19F
:100800002005D6F8008007FA05FC28EA0C0803FA50
:1008100005F548EA0508C6F800804D68ED0062D588
:10082000374DAE6946F00106AE61AD6924F00306AE
:1008300005F001050095334D06EB050CDCF808507A
:10084000A607360F07FA06F825EA0805DFF8B8808C
:10085000404503D14FF0000817E044E0DFF8AC80DA
:10086000404502D14FF001080FE0DFF8A480404579
:1008700002D14FF0020808E0DFF89880404502D12D
:100880004FF0030801E04FF0040808FA06F848EAC0
:100890000508CCF808804D68D9F80060ED034D4696
:1008A00001D5164300E096432E604D68DAF80060EB
:1008B000AD03554601D5164300E096432E604D68C2
:1008C000DBF80060ED025D4601D5164300E096437B
:1008D0002E604D68DEF80060AD02754601D5164306
:1008E00000E096432E60641C0D682A46E5407FF4C4
:1008F00031AFBDE8F88F0000000401400000111086
:10090000001002400000014000080140000C0140BE
:1009100000100140001401408068084000D0012010
:1009200070470AB1016170470904FBE7014880681C
:10093000704700000000002070B5040025D094F836
:100940003D00002520B984F83C50204600F0B8F85E
:10095000242084F83D002068016821F00101016035
:100960002068016841F4004101602068016821F4B9
:100970000041016000F0FEF94D4A6168914201D8E2
:100980004C4900E04C49884201D2012070BD4B49DE
:100990002368B0FBF1F15E6826F03F060E435E600F
:1009A0006368934206D94FF4967359434FF47A73B0
:1009B000B1FBF3F12368491C1E6A26F03F06314360
:1009C00019626168914210D84900401EB0FBF1F2F3
:1009D000521CC2F30B02042A01D2042022E0B0FB15
:1009E000F1F0401CC0F30B001CE0A268F2B301EB75
:1009F000C10303EB0116431EB3FBF6F35B1C43F488
:100A000080431B0549D092B301EBC10202EB0111F7
:100A1000401EB0FBF1F0401CC0F30B0040F48040DE
:100A200040F400402168CA694CF6FF739A431043B2
:100A3000C861D4E9071001432068026822F0C002AF
:100A400011430160D4E9030101432068826848F240
:100A5000FF339A4311438160D4E9050108432168BB
:100A6000CA6822F0FF021043C86001E00EE016E001
:100A70002068016841F0010101602564202084F8AC
:100A80003D00256384F83E50002070BD01EB410617
:100A9000431EB3FBF6F35B1CB3E70120C2E701EB97
:100AA0004101401EB0FBF1F0401CC0F30B00B7E762
:100AB000A086010080841E0000093D0040420F0016
:100AC00010B586B000210091019102910391006858
:100AD0000F4988421AD10F4CA06940F00800A0616C
:100AE000A069694600F008000490C0200090122020
:100AF0000190032003900848FFF71EFEE06940F4D0
:100B00000010E061E06900F40010049006B010BD30
:100B10000054004000100240000C0140074810B58E
:100B2000016841F010010160032000F075F8002019
:100B300000F006F800F024F8002010BD002002406C
:100B400070B50D4D04464FF47A712878B1FBF0F082
:100B50000A490968B1FBF0F000F0F2FA48B9102C2C
:100B600007D200222146501E00F036F800206C60AB
:100B700070BD012070BD0000000000200C000020AE
:100B80000C4808B5816941F001018161816901F07A
:100B900001010091C16941F08051C161C06900F05B
:100BA000805000900448416821F0E06141F00071FC
:100BB000416008BD0010024000000140002809DB30
:100BC00000F01F02012191404009800000F1E02067
:100BD000C0F8001170470000F0B40E4B1B680C46C3
:100BE000C3F30223C3F10705042D00D90425191D01
:100BF000072901D2002300E0DB1E012606FA05F1D9
:100C0000491E214099409E40761E16403143F0BC5B
:100C100000F0D6BF0CED00E0064900F007020868BE
:100C20004FF6FF03184040EA0220034A10430860D1
:100C3000704700000CED00E00000FA052DE9F047D8
:100C40000F46050061D0434E306800F00700B842FF
:100C500009D2306820F0070038433060306800F077
:100C60000700B84251D128683B4C810712D5400794
:100C700003D5606840F4E06060602878000703D521
:100C8000606840F4605060606068A96820F0F0001F
:100C9000084360602878C00728D06868012810D011
:100CA0002168022810D0890700292EDA616821F016
:100CB000030101436160FFF739FE804641F2883944
:100CC0000DE021688903EFE78901EDE7FFF72EFECC
:100CD000A0EB0801494502D90320BDE8F087606810
:100CE000696800F00C00B0EB810FEFD1306800F0C4
:100CF0000700B8420BD9306820F007003843306055
:100D0000306800F00700B84201D00120E5E72878FC
:100D1000400705D56068E96820F4E060084360603A
:100D20002878000706D56068296920F4605040EAF9
:100D3000C100606000F03EF86168084AC1F3031129
:100D4000515CC8400649086006480068FFF7F8FE95
:100D50000020C2E700200240001002404E40000880
:100D60000C000020040000200148006870470000CB
:100D70000C0000200448054900684968044AC1F392
:100D80000221515CC84070470C0000200010024056
:100D90005E4000080448054900684968044AC1F3F8
:100DA000C221515CC84070470C0000200010024076
:100DB0005E40000812A185B00FC98DE80F0014A095
:100DC000144A006804905168134801F00C03042B86
:100DD00010D0082B0ED1C1F38343C9031DF80300C3
:100DE0000AD5516804AAC1F34041515C0A4A5043F4
:100DF000B0FBF1F005B0704708494843FAE700003E
:100E000002030405060708090A0B0C0D0E0F10104B
:100E1000010200000010024000127A0000093D00AB
:100E20002DE9F84F040070D02078C04DC00749D09C
:100E30006868C0F38100012807D06868C0F38100AA
:100E4000022809D16868C00306D52868800339D50F
:100E500060680028E7D035E06068B0F5803F0BD0CF
:100E600010B1B0F5A02F11D0286820F48030286090
:100E7000286820F4802002E0286840F48030286050
:100E8000606890B1FFF752FD06460AE0286840F41A
:100E900080202860F0E700BFFFF748FD801B642832
:100EA00073D828688003F7D50CE0FFF73FFD0646AE
:100EB00005E000BFFFF73AFD801B6428F0D82868E2
:100EC0008003F7D420789A4E80074FF001094FF045
:100ED000000839D5686810F00C0F07D06868C0F3B7
:100EE0008100022809D16868C00306D428688007F9
:100EF00014D52069012808D110E02069B0B1C6F8E6
:100F00000090FFF713FD074605E00AE1FFF70EFD2D
:100F1000C01B0228C4D828688007F7D528686169F3
:100F200020F0F80040EAC10028600DE0C6F800801B
:100F3000FFF7FCFC074604E0FFF7F8FCC01B0228A3
:100F400023D828688007F7D4207800072CD5794863
:100F5000A169D9B1C0F80090FFF7E8FC074604E0AA
:100F6000FFF7E4FCC01B02280FD8686A8007F7D59A
:100F700071484FF4FA510068B0FBF1F0009000BFE7
:100F80000098411E0091FAD20EE080E0C0F8008087
:100F9000FFF7CCFC074604E0FFF7C8FCC01B0228A3
:100FA00075D8686A8007F7D42078400760D5E8696B
:100FB0000027C00008D4E86940F08050E861E86983
:100FC000012700F0805000905C480168C90513D4E7
:100FD0000168834641F480710160FFF7A7FC8246F7
:100FE00006E000BFFFF7A2FCA0EB0A0064284ED881
:100FF000DBF80000C005F5D5E06801280AD008B18B
:10100000052813D0286A20F001002862286A20F001
:10101000040002E0286A40F001002862E06841F222
:10102000883B98B1FFF782FC82460BE0286A40F0CB
:1010300004002862EEE700BFFFF778FCA0EB0A018E
:1010400059455AD8286A8007F6D50CE0FFF76EFCA0
:10105000824605E0FFF76AFCA0EB0A0159454CD82F
:10106000286A8007F6D41FB1E86920F08050E86153
:10107000E06988B36968C1F38101022944D002287C
:10108000C6F8608004D0FFF751FC044638E034E035
:10109000FFF74CFC074604E0FFF748FCC01B0228A2
:1010A0002BD828688001F7D4206AB0F5803F05D19D
:1010B0006868A16820F4003008436860D4E908013A
:1010C0000843696821F4741108436860C6F86090A9
:1010D000FFF72CFC044606E025E000BFFFF726FCE6
:1010E000001B022809D828688001F7D51BE000BF43
:1010F000FFF71CFC001B022802D90320BDE8F88F73
:1011000028688001F4D40EE00128F7D06868226ACC
:1011100000F48031914204D1616A00F47010884279
:1011200001D00120EAE70020E8E7000000100240BB
:1011300000004242800442420C0000200070004047
:1011400010B5401EB0F1807F01D3012010BD4FF0DB
:10115000E02460610F21601700F032FD0020A061E3
:1011600007202061002010BD70477047F8B5026865
:1011700004461068D168536910F00F0F4FF0000556
:1011800053D003F0010601F4907737435FD0C207D4
:1011900005D0CA0503D5226C42F001022264420741
:1011A00005D5DA0703D0226C42F0020222648207DE
:1011B00005D5DA0703D0226C42F00402226402074C
:1011C00007D501F02002324303D0226C42F008021E
:1011D0002264226C002A34D0800604D5880602D509
:1011E000204600F0ECFB20684069216CC0F38010C1
:1011F000090700D430B3204600F0C9FB20684169DC
:1012000049061BD5416921F040014161A06BA8B19D
:1012100058494163A06BFFF743FA002811D0A06B37
:10122000416B01B0BDE8F040084783060FD58B063F
:101230000DD52046BDE8F84000F0C1BB2046FFF7C1
:1012400094FFF8BD2046FFF790FF2564F8BD266B9C
:101250002023012E52D1C60650D5CE064ED5106899
:1012600050680090506940062AD5A16B0868406814
:101270000004000CEAD0A68D8642E7D9E085886993
:10128000202818D0D06820F48070D0602068416990
:1012900021F0010141612068416921F04001416173
:1012A00084F83E3025632068C16821F01001C160D8
:1012B000A06BFFF7D2F9A08DE18D401A81B219E041
:1012C000A08DE18D401A81B2E08D0028BED00029AA
:1012D000BCD0D06820F49070D0602068426922F0C1
:1012E0000102426184F83E3025632068C26822F022
:1012F0001002C2602046FFF737FFF8BD05062BD568
:101300000D0629D594F83D002128F6D1A068B0F546
:10131000805F01D12069B0B1206A411C216221683F
:1013200000784860E08C401E0004000CE084E4D1AA
:101330002068C16821F08001C1602068C16841F067
:101340004001C160F8BD206A0088C0F30800506009
:10135000206A801C2062E5E74006F3D54806F1D5F7
:10136000D168204621F04001D16084F83D3000F082
:10137000D0F8F8BD7F19000870B5040004D094F8C7
:101380003D00002510B106E0012070BD84F83C50FE
:10139000204600F023F8242084F83D002068C1682E
:1013A00021F40051C160204600F064FB206801690F
:1013B00021F4904101612068416921F02A014161D5
:1013C0002068C16841F40051C1602564202084F880
:1013D0003D0084F83E00002070BD000030B585B0AF
:1013E00000240094019402940394006818498842F0
:1013F0002CD11848816941F480418161816901F4EF
:1014000080410491816941F0040181618069124D3C
:1014100000F0040004904FF400700090022001904E
:101420000320039069462846FFF786F92815CDE981
:101430000004694628460294FFF77EF9002211460F
:101440002520FFF7C9FB2520FFF7B8FB05B030BD0D
:1014500000380140001002400008014070470000C1
:101460002DE9F843044690F83D001F4616460D4608
:1014700020284CD1C5B1BEB194F83C00012846D01B
:10148000012084F83C004FF00008C4F8408021207F
:1014900084F83D00FFF74AFAA6848146E684A068F6
:1014A000B0F5805F03D004E00120BDE8F883206937
:1014B00028B12E465FF0000584F83C800EE000263F
:1014C000FAE78021204600F031FBA0B9AEB116F852
:1014D000010B21684860E08C401EE084E08C4B46A4
:1014E0004FF0000200970028EBD14FF0400120465A
:1014F00000F01CFB30B10320D7E735F8020BC0F336
:101500000800E6E7202084F83D000020CDE7022017
:10151000CBE7704710B500F049F9082000F0A6F9B4
:1015200000F026F9082000F0A1F900F053F9082096
:1015300000F09CF900F024F9BDE81040082000F00C
:1015400095B900007FB501248020CDE900040D4E3F
:101550000225694603953046FFF7EEF80122802107
:101560003046FFF7DEF94020CDE9000469460395D7
:101570003046FFF7E1F8012280213046FFF7D1F92C
:101580007FBD0000000C014070B586B000241C48EF
:101590000094019402940394816941F010018161E7
:1015A000816901F010010491816941F0200181619C
:1015B000816901F020010491816941F00401816198
:1015C000816901F004010491816941F008018161A0
:1015D00080690C4E00F008004FF400550490002282
:1015E00029463046FFF79DF901200095CDE9010419
:1015F0000220039069463046FFF79EF806B070BDA2
:1016000000100240001001400D4810B50B49016068
:101610000C49416000214FF480428160C0E903120F
:1016200041618161C1610162FFF786F9002803D041
:10163000BDE81040FFF70FB810BD00000054004097
:1016400004030020A08601007FB580201349CDE966
:1016500000101248142503240023114A11A1F03868
:10166000CDE9024502F006F80C48F03802F066F8C1
:101670000A494FF480708031CDE9001007480023FB
:101680000A4A0BA17838CDE9024501F0F3FF04B016
:101690000248BDE87040783802F050B8840100205C
:1016A0000D2400086C65643100000000653E0008F0
:1016B000757361727431000010B504A000F070FA07
:1016C000BDE81040074801F086BF000048656C6C1B
:1016D0006F2052545F5468726561642121210D0AA4
:1016E00000000000A08601000C4810B50A49016006
:1016F0004FF4E1314160002181600C22C160C0E9FA
:1017000004128161C161FFF737FE002803D0BDE8F4
:101710001040FEF7A0BF10BD003801405803002064
:10172000FEE7FEE770B5002400F02AF800F030F87C
:10173000082000F09BF800F01BF8082000F096F855
:101740000A4D01E0641CA4B280212846FFF7E4F8AA
:1017500008B1642CF6D3642C06D000F011F80820F0
:1017600000F084F8012070BD002070BD000C014025
:10177000012240210148FFF7D4B80000000C0140CD
:10178000002240210148FFF7CCB80000000C0140C6
:101790001FB5002001908020009002200390694630
:1017A0000148FEF7C9FF1FBD000C01401FB5012015
:1017B0000190802000900220054C0390694620464D
:1017C000FEF7BAFF012280212046FFF7AAF81FBDCD
:1017D000000C01401FB501200190802000900220E4
:1017E000054C039069462046FEF7A6FF00228021A3
:1017F0002046FFF796F81FBD000C014010B5FFF71B
:10180000BFFF082000F032F8FFF7E4FF082000F0E7
:101810002DF8FFF7ADFF082000F028F8FFF7B0FF24
:10182000082000F023F8FFF7B3FFBDE810400820C0
:1018300000F01CB810B5FFF7A3FF082000F016F861
:10184000FFF7B4FF082000F011F8FFF791FF082020
:1018500000F00CF8FFF794FF082000F007F8FFF7FE
:10186000B9FFBDE810400820AFF3008000B5801E2E
:10187000020004D00120FEF7EBFE521EFAD100BD9B
:1018800010B5FFF7A7FF0820FFF7F0FFFFF770FF85
:101890000820FFF7EBFFFFF789FFBDE810400820A5
:1018A000FFF7E4BF10B501F07BFC01F0DFFFBDE8FE
:1018B000104001F083BC30B58FB028216846FEF798
:1018C000C6FC14210AA8FEF7C2FC01210804CDE9D8
:1018D00000100024029402250491CDE907504FF432
:1018E000E01009906846FFF79BFA08B172B6FEE770
:1018F0000F20CDE90A054FF48060CDE90C400221AC
:101900000AA80E94FFF79AF9002801D072B6FEE7F4
:101910000FB030BD144910B54868144A10F00C03DC
:10192000134803D0042B01D0082B09D0026049686A
:10193000104AC1F30311515C0268CA40026010BD35
:101940004A684B6802F470124FF0020413F4803FAF
:1019500004EB924202D04B689B0301D5064B00E09A
:10196000024B5A43E2E700000010024000127A00E6
:101970000C0000204E40000800093D00704710B5E3
:10198000406A0021C185C184FFF7EFFB10BD0168EB
:10199000CA6822F49072CA6001684A6922F00102A2
:1019A0004A61016B012904D10168CA6822F0100262
:1019B000CA60202180F83E1000210163704708B5FD
:1019C00090F83E10222901D0022008BD82684FF411
:1019D00080539A4201D1016921B1816A9A421BD098
:1019E0004AB10AE00268816A5268C2F308020A80BA
:1019F000816A891C08E0026972B10268526802F0CB
:101A00007F020A70816A491C8162C18D491E0904E6
:101A1000090CC18503D019E002685268F1E701683A
:101A2000CA6822F02002CA600168CA6822F4807283
:101A3000CA6001684A6922F001024A61202180F8E7
:101A40003E10016B012903D0FFF708FD002008BDFF
:101A5000002101630168CA6822F01002CA600168AF
:101A60000A68D20602D50A6849680091818DFFF79D
:101A70007BFBEBE770B5044600680169E26821F47E
:101A80004051114301612169A0680843616908431D
:101A90002168CA6841F20C639A430243CA60206815
:101AA0004169A26921F44071114341611E492068D6
:101AB000884202D1FFF76EF901E0FFF75BF900EB16
:101AC000C00101EB0012606864218000B2FBF0F3FA
:101AD000B3FBF1F36FF018067343B2FBF0F5B2FB02
:101AE000F0F605EB8305322303EB0515B5FBF1F5A5
:101AF000B6FBF1F605F0F00505EB0615B2FBF0F6C6
:101B0000B2FBF0F0B0FBF1F06FF01802504306EBBF
:101B1000800003EB0010B0FBF1F0216800F00F0033
:101B20002844886070BD0000003801402DE9F04174
:101B3000984617460E460446069D1DE0681C1BD0BD
:101B40002DB1FEF7F3FEA0EB0800A84214D92068DF
:101B5000C16821F4D071C1602068416921F00101A0
:101B60004161202084F83D0084F83E00002084F884
:101B70003C000320BDE8F0812068006836EA0000E0
:101B800004D00020B842D9D00020F3E70120F9E7C3
:101B90000148FFF7EBBA000058030020FEE7000001
:101BA0000FB4054B10B503A9044A029800F098F849
:101BB00010BC5DF814FB00005123000890000020C9
:101BC0000907090E002804DB00F1E02080F800146A
:101BD000704700F00F0000F1E02080F8141D7047FE
:101BE000002806D00E4910F0FF0F03D0C0B2085CE9
:101BF000401C704710F47F4F04D0C0F30720085CEE
:101C00000930704710F47F0F04D0C0F30740085C20
:101C10001130704701EB10600078193070470000F8
:101C20006640000802E008C8121F08C1002AFAD165
:101C300070477047002001E001C1121F002AFBD14C
:101C4000704700002DE9F04F89B092468B4606465A
:101C5000002400E0641C305D202803D0092801D056
:101C60005C45F7D34FF0FF387CB3194804F10609FF
:101C7000184F056811E0062217A12868FEF71AFB25
:101C800050B9286822463146801DFEF713FB18B96B
:101C9000296811F8090020B10C3538688542EAD36B
:101CA00014E0AC688CB120216846FEF7D0FA6A4691
:101CB0005946304600F09EFF38B16946A047CAF841
:101CC0000000002009B0BDE8F08FFFE74046F9E7CB
:101CD000780000207C0000205F5F636D645F00007F
:101CE0002DE9FF4F89B09B460446002506E02528D4
:101CF0000BD05A460B999047641C6D1C2078002825
:101D0000F5D10DB02846BDE8F08F0027B846012276
:101D1000474900E0074314F8013F203B02FA03F073
:101D20000842F7D120782E2819D114F8010F47F076
:101D300004072A280ED06FF02F022078A0F130017E
:101D400009290CD808EB880102EB410100EB0108DE
:101D5000641CF2E70A98641C50F8048B0A902078FF
:101D60000028CED0642808D0692806D075281ED057
:101D70005A460B9990476D1C58E00A994FF00A0992
:101D800001C90A91002802DA40422D2102E03905FA
:101D900004D52B218DF82010012103E0F90704D090
:101DA0002021F7E78A4608AE0DE00021FAE70A99FC
:101DB0004FF00A0901C90A91F7E74946FEF789FA87
:101DC000303106F8011D0028F7D1ADEB060000F117
:101DD0002009780701D44FF00108C84502DDA8EBBF
:101DE000090000E000208046002706E008A85A46C7
:101DF000C05D0B9990476D1C7F1C5745F6DB04E0D6
:101E000030205A460B9990476D1CB8F10001A8F19B
:101E10000108F5DC05E016F8010B5A460B999047CE
:101E20006D1CB9F10001A9F10109F4DC641C65E73E
:101E3000092801002DE9FC411F460446DDE908316F
:101E4000DDE90A65143040600060C4E90827C4E990
:101E50000A310A46232118461C3401F011FAD4E94C
:101E600003014218D4E90101104B121F01F07CF963
:101E700044F81A0B002004F801690D4A04F8036BBA
:101E8000E4E8020544F8105901C404F83C0B01C40D
:101E900044F87409009023460190194604F1440067
:101EA00001F078FD0020BDE8FC810000DD35000870
:101EB000AB370008143001F0BFB970B50546FEF726
:101EC00033F9296F044609B1284688472046BDE802
:101ED0007040FEF72DB9000010B51BA001F07CF991
:101EE0001C4C21781CA001F077F92078C00702D0A3
:101EF0001FA001F071F92078800702D51FA001F022
:101F00006BF92078400702D51FA001F065F9207811
:101F1000000702D520A001F05FF92078C00602D5A5
:101F200020A001F059F92078000607D509480F30A4
:101F30000168BDE810401DA001F04EB9BDE8104099
:101F40001EA001F049B90000627573206661756CCE
:101F5000743A0A0029ED00E05343425F434653526E
:101F60005F424653523A3078253032582000000004
:101F700049425553455252200000000050524543FB
:101F80004953455252200000494D50524543495350
:101F90004552522000000000554E53544B455252BA
:101FA0002000000053544B45525220005343422D11
:101FB0003E424641523A253038580A000A00000095
:101FC00010B500F053FB002010BD0000104810B504
:101FD000416991F82110890703D40E490020087047
:101FE00013E0016921B180220A48FEF747F90CE0AD
:101FF00000F0FEFD08B108A100E009A10548FEF7C8
:1020000050F909A10348FEF72DF9024810BD000060
:1020100078000020D40A00206D73682000000000C2
:1020200066696E73682000003E000000034949693C
:1020300011F8212F60F341020A70704778000020E8
:10204000014AC2E900017047780000207FB51449B9
:102050001448FFF7F5FF154C13480A23A0F58F65C8
:10206000606115224FF48061A0F580608DE80F005B
:1020700000230F4A0FA1783801F0FCFA064600232E
:102080001A460EA1606901F0EBF90120FFF7CEFFBF
:1020900016B9284601F052FB04B0002070BD0000C4
:1020A0001444000884430008D00F0020780000206A
:1020B000C5200008747368656C6C000073687278E2
:1020C00000000000984D686910F8211F41F00101DF
:1020D0000170FFF77BFF01F07FF8002600F00EFF94
:1020E0000400FBD41B2C07D0686990F8201001294C
:1020F00007D002290ED017E06969012081F820007D
:10210000ECE75B2C02D080F820600DE0022180F823
:102110002010E3E780F82060412CDFD0422CDDD096
:10212000442C38D0432C43D0002CD7D0FF2CD5D012
:10213000092C4ED07F2C75D0082C73D00D2C70D06C
:102140000A2CFCD0B0F87210502901D3A0F87260AC
:10215000B0F87430B0F872108B427DD2CA1A00F118
:10216000220123301944184401F070F86869B0F86E
:10217000741022300C54686990F82110C90706D0F9
:10218000B0F874102230014468A001F025F86869A5
:10219000B0F87440A5E0B0F8740000289ED064A0A8
:1021A00001F01AF8686930F8741F491E018095E73C
:1021B000B0F87410B0F8722091428FD22230095CCE
:1021C0005CA001F009F8696931F8740F401C0880BF
:1021D00084E7002403E056A000F0FEFF641C686959
:1021E000B0F87400A042F6DC6C6953A0223400F011
:1021F000F3FF00F0FDFC012802D1204600F034FC82
:10220000FFF7E4FE014622464CA000F0E5FF6869B6
:102210002230FEF73FF8696921F8720F48805DE7C8
:1022200000E03DE0B0F87420002AC0D0B0F8721091
:10223000521E491E89B293B2A0F87210A0F87430F1
:10224000994224D9CA1A00F12301223019441844B2
:1022500000F0FCFF686900E049E0B0F8721022303D
:102260000E546869B0F874102230014435A000F0B3
:10227000B3FF6869B0F8744003E02DA000F0ACFF34
:10228000641C6869B0F87200A04290DBF5E72FA0EB
:1022900000F0A2FF6869B0F8721022300E541DE7FA
:1022A00000F0A6FC01280DD1686990F82100C00754
:1022B00002D021A000F090FF6869B0F872102230BF
:1022C00000F028FCFFF782FE00F086FF68695021CD
:1022D0002230FDF7BCFF686922E015A000F07CFF0A
:1022E000641C6869B0F87200A042F6DC0AE0223093
:1022F0000C54686990F82100C00703D021460DA056
:1023000000F06AFF6869B0F87210491C89B2A0F841
:102310007210B0F87420521CA0F874205029BED35B
:1023200020F8726F4680D9E67800002025730000FF
:1023300008000000256300000A00000025732573D3
:102340000000000008257320200800000820080075
:1023500013B54FF6FF73012269460548FFF780F871
:10236000034800680168C9434906FBD400981CBDB6
:102370005803002010B5124C2068800702D511A028
:1023800000F02AFF2068400011D50D48C01E0078DB
:1023900008B1FFF7A1FD0A48001F007808B100F05E
:1023A000F7FA0748801E008808B101F0F3FC2068A6
:1023B000002804DABDE8104008A000F00DBF10BDF1
:1023C0002CED00E06661696C656420766563746F6E
:1023D000722066657463680A0000000064656275B7
:1023E00067206576656E740A0000000010B502A0D3
:1023F00000F0F2FE002010BD48656C6C6F20525456
:102400002D546872656164210A0000000A4C4FF483
:1024100000564FF4FA75002231462046FEF781FA45
:10242000284601F0D8F8012231462046FEF779FA15
:10243000284601F0D0F8EEE70010014070B50CA07E
:1024400000F0CAFE0F48104D04680BE002220FA1F5
:102450002068FDF72FFF20B1D4E900120CA000F096
:10246000BBFE0C3428688442F0D3002070BD00000D
:102470002D2D46756E6374696F6E204C6973743AC6
:102480000A000000780000207C0000205F5F000050
:10249000252D313673202D2D2025730A00000000D4
:1024A0002DE9F04104461E4617460D46084600F049
:1024B0001DFF001D2060257200206760C4E90360D5
:1024C000BDE8F0812DE9F0410D4600212961E96860
:1024D00091B1297A81B12E6888B10446FDF724FEB6
:1024E0000146A4F10C002A7A007A20F08000904284
:1024F00009D00846FDF71CFE0020BDE8F0813446F7
:10250000FDF712FE0146686800272468B44201D135
:10251000002404E010C0EA687F1CBA42F5D10846E6
:10252000FDF706FE20462F61E7E700002DE9F041A8
:1025300094B0002733A408230BAA022105A8FFF7B3
:10254000AFFF082080460146224631A000F044FE3D
:10255000404600F0B7FB35A000F03EFE05A9384626
:10256000FFF7B0FF0746002642E00BA850F82640D0
:102570000C3CFDF7D9FD217A9DF81C2021F080014B
:10258000914202D0FDF7D4FD31E0FDF7D1FD04F119
:1025900014006169054681421ED000F03BFEA18B0C
:1025A000CDE9001023460822414626A000F014FE83
:1025B0002C680BE0A4F1140126A000F00DFE2068A9
:1025C000A84202D024A000F007FE2468AC42F1D15A
:1025D00015A000F001FE0AE000F01CFEA18BCDE981
:1025E00000102346082241461CA000F0F5FD761C91
:1025F0000998B042B9DC002FB0D114B00020BDE87A
:10260000F081000073656D6170686F726500000095
:10261000252D2A2E73207620202073757370656E09
:1026200064207468726561640A000000202D2D2DFD
:10263000202D2D2D2D2D2D2D2D2D2D2D2D2D2D0AFA
:1026400000000000252D2A2E2A7320253033642017
:1026500025643A00257300002F000000252D2A2E46
:102660002A7320253033642025640A002DE9F041C7
:10267000B4B000263CA408232CAA012126A8FFF709
:102680000FFF0820804601462246394800F0A4FD8D
:10269000404600F017FB37A000F09EFD26A930460B
:1026A000FFF710FF0646002554E02CA850F82540FF
:1026B0000C3CFDF739FD0746207A9DF8A01020F06C
:1026C0008000884203D03846FDF732FD41E0782291
:1026D000214607A8FDF7A2FD3846FDF729FD94F82D
:1026E0003500009023460822414632A000F074FDD8
:1026F00094F8340000F00F00012807D0022807D01A
:1027000040B1042808D0032808D00AE02CA006E035
:102710002EA004E030A002E032A000E034A000F0DF
:102720005BFDA06A014600E0401C0278232AFBD032
:10273000E26A401A101A64235843B0FBF2F3276B85
:10274000206CCDE90007E069081A81182BA000F081
:1027500043FD6D1C2A98A842A7DC002E9ED134B000
:102760000020BDE8F08100007468726561640000BB
:1027700088410008202D2D2D20202D2D2D2D2D2D93
:102780002D202D2D2D2D2D2D2D2D2D2D202D2D2D93
:102790002D2D2D2D2D2D2D20202D2D2D2D2D2D2090
:1027A000202D2D2D2D2D2D2D2D2D2D202D2D2D0A96
:1027B00000000000252D2A2E2A73202533642000D6
:1027C0002072656164792020000000002073757319
:1027D00070656E640000000020696E69742020201E
:1027E0000000000020636C6F736520200000000073
:1027F0002072756E6E696E670000000020307825CB
:102800003038782030782530387820202020253046
:102810003264252520202030782530387820253056
:1028200033640A00F0B593B0002626A408230BAA4F
:102830000A2104A8FFF734FE08272246394623A0C0
:1028400000F0CAFC384600F03DFA2AA000F0C4FCB3
:1028500004A93046FFF736FE0646002524E00BA803
:1028600050F825400C3CFDF75FFC217A9DF81820BC
:1028700021F08001914202D0FDF75AFC13E0FDF7F0
:1028800057FCD4E90901CDE9000123460822394665
:1028900021A000F0A1FC607AC00701D024A000E0D4
:1028A00026A000F099FC6D1C0898A842D7DC002EE9
:1028B000CED100F0D5FF014624A000F08DFC13B06E
:1028C0000020F0BD74696D6572000000252D2A2E70
:1028D000732020706572696F6469632020207469B9
:1028E0006D656F757420202020202020666C616744
:1028F0000A000000202D2D2D2D2D2D2D2D2D2D20CC
:102900002D2D2D2D2D2D2D2D2D2D202D2D2D2D2D04
:102910002D2D2D2D2D2D0A00252D2A2E2A73203008
:10292000782530387820307825303878200000003D
:102930006163746976617465640A0000646561634B
:10294000746976617465640A0000000063757272D0
:10295000656E74207469636B3A3078253038780A74
:1029600000000000FEF7DAF8FEF7A5FFFEF70CFE08
:10297000FEF74AFEFEF7B8FEFEF766FEFEF79CFE87
:10298000FCE710B500F06EFABDE81040FFF7EABFB3
:1029900010B518A000F020FC1B4C21781BA000F003
:1029A0001BFC2078C00702D01EA000F015FC207888
:1029B000800702D51EA000F00FFC2078000702D58A
:1029C0001EA000F009FC2078C00602D51EA000F071
:1029D00003FC2078000607D50B480C300168BDE8E1
:1029E00010401CA000F0F8BBBDE810401D4800F0EE
:1029F000F3BB00006D656D206D616E6167652066DB
:102A000061756C743A0A000028ED00E05343425FA0
:102A1000434653525F4D4653523A30782530325830
:102A2000200000004941434356494F4C200000001C
:102A30004441434356494F4C200000004D554E53EE
:102A4000544B4552522000004D53544B4552522096
:102A5000000000005343422D3E4D4D41523A253077
:102A600038580A00043E00082DE9F047804600254A
:102A700000782C4618B12248224F066831E0BDE8A4
:102A8000F0470021084600F077B806221EA1306802
:102A9000FDF710FC20BB306800F106094046FDF749
:102AA000F9FB024649464046FDF704FCC0B925B98A
:102AB0004C464846FDF7EEFB05464946204601E0F8
:102AC000401C491C02781AB10B780BB19A42F7D01E
:102AD000001BA84200DA054649460DA000F07CFB29
:102AE0000C3638688642D0D3002C06D02A462146C0
:102AF0004046BDE8F04700F025BDBDE8F087000086
:102B0000780000207C0000205F5F636D645F000040
:102B100025730A0038B5044601E0491E641C59B10A
:102B200020782028F9D00928F7D06A462046FFF7F8
:102B300089F818B1204604E0002038BD009838BD5F
:102B4000401C0178202901D00029F9D10021017011
:102B5000214603A000F040FB4FF0FF3038BD0000DD
:102B600025733A20636F6D6D616E64206E6F742003
:102B7000666F756E642E0A0070B50EA000F02CFB17
:102B80001348144D04680CE0062213A12068FDF7D9
:102B900091FB28B9D4E9001211A0891D00F01CFB9B
:102BA0000C3428688442EFD310A000F015FB0020FD
:102BB00070BD000052542D546872656164207368C2
:102BC000656C6C20636F6D6D616E64733A0A000012
:102BD000780000207C0000205F5F636D645F000070
:102BE000252D313673202D2025730A000A000000A0
:102BF0000120704770B5002315461C461A464BE06D
:102C000000F8012B5B1C0678202E01D0092E01D183
:102C10008B42F5D3082C11D321A000F0DDFA002659
:102C200006E000BF55F8261025A000F0D5FA761C66
:102C3000A642F7D321A000F0CFFA2FE08B422DD28D
:102C4000F6B2222E03D045F82400641C1BE0401C81
:102C500045F824005B1C641C08E05C2E04D1467817
:102C6000222E01D1401C5B1C401C5B1C0678222ECE
:102C700001D08B42F1D38B4210D200F8012B5B1CA8
:102C80000AE0401C5B1C0678202E03D0092E01D0E0
:102C90008B42F6D38B4201D28B42B4D3204670BD17
:102CA000546F6F206D616E792061726773202120EF
:102CB0005765206F6E6C79205573653A0A000000E5
:102CC0002573200010B5044602E003A000F084FA4A
:102CD000641EFAD210BD00002D0000002DE9F04F57
:102CE00085B09946DDE90EA5109CAB46630602D57A
:102CF000DFF814C103E0DFF810C1ACF1110CE306FA
:102D000001D524F00104E30701D0302300E02023A3
:102D100000260493A3070BD5002A02DA2D2652427F
:102D200006E0630701D52B2602E0230700D5202605
:102D30000023EE4622B930228DF8002001230CE05A
:102D4000B9F10A0F14D002F00F0812091CF808801C
:102D50000EF803805B1C002AF2D1AB4200DD1D4659
:102D6000AAEB050214F0110F4FF0200708D015E070
:102D70000A27B2FBF7F807FB1828B2FBF7F2E5E7E2
:102D80003EB1002A05DD521E03E0884200D20770E2
:102D9000401CB2F1000CA2F10102F6DC26B188421F
:102DA00000D20670401C521EE40605D508E0884299
:102DB00001D2049C0470401C141EA2F10102F6DC36
:102DC00030242E466D1E9E420ADD884200D20470D9
:102DD000401CF6E7884201D2E55C0570401C00E02B
:102DE00074461D1EA3F1010307DDBBF1000FF1D1F5
:102DF00003E0884200D20770401C131EA2F10102BA
:102E0000F7DC05B0BDE8F08F774100081FB50A4C2C
:102E100014230A224FF48061A4F580608DE80F002E
:102E20000023064A06A1204600F024FC04B02046F8
:102E3000BDE8104000F082BCA007002083290008F4
:102E40006D61696E0000000070B5044C044D02E035
:102E500020688047241DAC42FAD370BD704300083F
:102E60007843000870B5044C044D02E020688047A8
:102E7000241DAC42FAD370BD78430008804300089B
:102E800010B5FDF751F9044A5188491C5180BDE83D
:102E90001040FDF74DB900004800002010B5FDF7C7
:102EA00043F90B4C6188491E09B2618000290ADC94
:102EB00000216180FDF73CF96068002807D0BDE87B
:102EC000104000F055BABDE81040FDF731B910BD13
:102ED0004800002010B5FDF721FEFEF7ECFCFEF7E0
:102EE00019FDFDF741FF4FF47A71B0FBF1F0FEF7E9
:102EF00027F9BDE81040FFF7A7BF0000084810B54C
:102F000000684FF0FF340168C943890602D4406865
:102F1000C4B202E00A2000F0C5FBE0B210BD000020
:102F2000900A0020F8B506460D200F498DF80000E4
:102F3000002481F83C40304600F0FCFA05460FE0E2
:102F4000305D0A2805D101231A4669460648FEF776
:102F500087FA012331191A460348FEF781FA641CE7
:102F6000AC42EDD3F8BD0000900A002070B50546D4
:102F7000041D2D48016819B128468847002851D002
:102F80002AA0E16B00F028F92CA0216A00F024F9B6
:102F90002EA0616A00F020F930A0A16A00F01CF9AF
:102FA00032A0E16A00F018F934A0216800F014F9A9
:102FB00036A0616800F010F938A0A16800F00CF9A3
:102FC0003AA0E16800F008F93CA0216900F004F99A
:102FD0003EA0616900F000F940A0A16900F0FCF892
:102FE00042A0E16900F0F8F844A0216B00F0F4F889
:102FF00046A0616B00F0F0F848A0A16B00F0ECF87F
:103000002878400708D500F073FB014647A000F080
:10301000E3F8FFF72BFB02E04CA000F0DDF8FFF730
:10302000A9F9FEE770BD0000680000207073723AD5
:10303000203078253038780A000000007230303AAD
:10304000203078253038780A000000007230313A9C
:10305000203078253038780A000000007230323A8B
:10306000203078253038780A000000007230333A7A
:10307000203078253038780A000000007230343A69
:10308000203078253038780A000000007230353A58
:10309000203078253038780A000000007230363A47
:1030A000203078253038780A000000007230373A36
:1030B000203078253038780A000000007230383A25
:1030C000203078253038780A000000007230393A14
:1030D000203078253038780A000000007231303A0C
:1030E000203078253038780A000000007231313AFB
:1030F000203078253038780A000000007231323AEA
:10310000203078253038780A00000000206C723AB0
:10311000203078253038780A000000002070633AAB
:10312000203078253038780A000000006861726429
:10313000206661756C74206F6E20746872656164BE
:103140003A2025730D0A0D0A0000000068617264C0
:10315000206661756C74206F6E2068616E646C65AA
:10316000720D0A0D0A00000070B50446121D22F00F
:1031700007000022094D403840F82250521C102A06
:10318000FAD301620021416281624FF0807200F146
:103190003005C263C16285E81A0070BDEFBEADDEC6
:1031A00010B5FCF7C1FF044A1178491C1170BDE845
:1031B0001040FCF7BDBF00001400002010B5FCF764
:1031C000B3FF044A1178491E1170BDE81040FCF7A6
:1031D000AFBF0000140000200FB47F2110B503AB77
:1031E0000448029A00F048FC0248FFF79BFE10BC1E
:1031F0005DF814FB100900200268516002680A6043
:103200000160486070470268516002680A600160AE
:10321000486070470246002100E0491C0068904267
:10322000FBD108467047D0E900124A60D0E900128D
:103230001160406000607047D0E900124A60D0E938
:1032400000121160406000607047000010B5034636
:10325000994211D28C189C420ED9811804E000BF0B
:1032600014F8013D01F8013D521EF9D210BD00BF16
:1032700011F8014B03F8014B521EF9D210BD0000AA
:1032800010B50346CCB2042A1AD3810718D11946C7
:1032900044EA042343EA034306E008C1103A08C1A4
:1032A00041F8083B41F8043C102AF6D201E008C17D
:1032B000121F042AFBD20B4602E000BF03F8014BA9
:1032C000521EFBD210BD10B5044600202072FCF740
:1032D0002BFFF4E903124A60D4E900121160646024
:1032E0002460BDE81040FCF723BF0000074A00211E
:1032F00002EB01131B78834202D102EB01107047ED
:10330000491C0329F4DB002070470000180000204E
:103310002DE9F041054617460E460846FFF7E6FF41
:103320000446FFF7ADFD211D606800E0006888429B
:10333000FCD1FFF7B3FD46F0800028720822394621
:10334000284600F0FFF8FCF7EFFE54F8041F0C3598
:103350004D602168296025606C60BDE8F041FCF794
:10336000E7BE007A000601D50120704700207047B3
:1033700070B5FCF7D9FE114C05466088B0B9A0685D
:10338000FEF72EFC0E49401E626851F830101439C9
:1033900091420BD020700B486160007801F11C0154
:1033A000002802F11C0006D0FCF7C5FE2846BDE847
:1033B0007040FCF7BDBEFCF7BEFEF7E748000020FA
:1033C000900900201400002010B50446FCF7ACFE64
:1033D000024694F834000E4920F00F00401C84F897
:1033E000340094F8350001EBC00104F114004B687F
:1033F00018604B68A361486006486161A16B8368EF
:1034000019438160BDE810401046FCF791BE0000F2
:10341000900900204800002010B50446FCF784FE07
:1034200004F11401D1E900235360D1E900231A60AB
:10343000A161616194F83520074951F8323001EB00
:10344000C2018B4204D10549A36B8A689A438A6002
:10345000BDE81040FCF76CBE900900204800002039
:103460002DE9F04116460A461F4605460221FFF7A0
:103470004FFF05F11404AC616C61AE836F720020E4
:10348000BDE8F08108B509A0FFF7A6FE0AA0FFF786
:10349000A3FE12A0009005230122032112A0FFF732
:1034A0009BFEBDE8084018A0FFF796BE0A205C20EE
:1034B0007C202F0A000000002D205254202D2020B7
:1034C000202020546872656164204F7065726174B9
:1034D000696E672053797374656D0A0044656320D3
:1034E0003236203230323200202F207C205C2020E7
:1034F00020202025642E25642E2564206275696CA9
:10350000642025730A0000002032303036202D2040
:103510003230323020436F7079726967687420628C
:10352000792072742D746872656164207465616DB0
:103530000A000000014600E0491C0A78002AFBD17D
:10354000081A704710B5002A07D0034611F8014B3E
:1035500003F8014B2CB1521EF8D110BD03F8011B2A
:1035600000E00021521EF9D110BD000010B50A493B
:1035700000230A4C4B80184604EBC002401C5260EA
:1035800012602028F8DB1F20087003484B600C30C5
:103590008B604060006010BD480000209009002052
:1035A00010B5074CA068FEF71BFB0649401E51F8FA
:1035B000300014386060BDE810401C30FCF7E9BDF5
:1035C00048000020900900200148406000607047DA
:1035D00060000020704700F091B8000070B51448FA
:1035E0000468FCF7A1FD05462046FEF766FC204670
:1035F000FFF712FF042084F8340004F1440000F0C7
:10360000B5F92046FFF7ADFE01280CD004F11401F6
:103610000848FFF7F1FD00BFFFF7AAFE2846BDE806
:103620007040FCF785BD2046FFF74DFEF4E7000033
:103630004C00002054000020FEE700001FB50948A0
:1036400020231F2280218DE80F000023064A07A1B6
:10365000783800F00FF804B00248BDE81040783820
:1036600000F06CB890080020393600087469646C6A
:10367000650000002DE9FF5F92460EAA0C4692E815
:10368000E0010A46994683460121FFF741FE8DE895
:10369000E0014B46524621465846FEF7CBFB04B0AC
:1036A000BDE8F09F10B500F0C1F8BDE8104000F093
:1036B00025B870B5044690F8340000F00F000228D9
:1036C00002D04FF0FF3070BDFCF72EFD054604F12F
:1036D0001400FFF7A8FD04F1440000F0B5F92846F6
:1036E000FCF726FD2046FFF76FFE002070BD0000AE
:1036F00001480068704700004C000020F1B5FCF75D
:1037000013FD05460C480468204600F02DF804F12E
:1037100044006A460021064600F004F9304600F0F5
:1037200051F92846FCF704FDFFF722FE206B801CB0
:1037300000D120630020F8BD4C00002010B590F8A7
:103740003610012280F835108A400221826380F809
:103750003410FFF7AEFF0348006808B1FFF708FE1A
:10376000002010BD4C00002070B5044690F83400D5
:1037700000F00F00012802D04FF0FF3070BDFCF7C1
:10378000D3FC05462046FFF747FE94F8340020F0AE
:103790000F00801C84F8340004F1440000F054F958
:1037A0002846FCF7C5FC002070BD10B504466FF03C
:1037B0000100206304F11400FFF735FD2046FFF7F8
:1037C00003FEBDE81040FFF7D3BD000070B5FCF765
:1037D000ABFC06461348046894F8340000F00F0070
:1037E000012819D1D4E90501884215D004F114004B
:1037F0000546FFF718FD94F835000B4901EBC000B2
:1038000041680D6041686960456028603046FCF79A
:103810008FFCFFF7ADFD02E03046FCF789FC00208D
:1038200070BD00004C00002090090020002802DA42
:103830004FF0FF3070474FF47A7190FBF1F290FB3C
:10384000F1F301FB130000EB40034A43C3EBC0104C
:103850004B1E03EBC00090FBF1F0104470470000DA
:10386000014800687047000010000020094810B5AA
:103870000168491C0160FFF73BFF016C491E0164B0
:1038800003D1C16B0164FFF7A1FFBDE8104000F058
:1038900003B80000100000202DE9FC41CDF804D051
:1038A000CDF800D0FFF7DCFF0646FCF73DFC0746ED
:1038B0001B4D2DE060696FF00041301A143C8842C6
:1038C00029D22046FEF7F6FA607A810702D420F06A
:1038D0000100607204F1140188466846FFF793FC0A
:1038E000D4E907108847FFF7BBFF064600986946F2
:1038F00088420DD04046FFF79FFC607A810707D5CC
:10390000C10705D020F001006072204600F05AF88F
:103910002C68AC42CED13846FCF70AFCBDE8FC81ED
:103920006000002070B515460E460446FCF7FCFB0F
:10393000052E17D2DFE806F00503080C1100616AB6
:103940000FE0296861620DE0617A21F0020102E076
:10395000617A41F00201617204E0617AC90700D026
:1039600001212960FCF7E4FB002070BD70B504461E
:10397000FCF7DAFB05462046FEF79CFA607A20F059
:10398000010060722846FCF7D3FB2046FFF79BFC42
:10399000002070BD2DE9F0411746DDE906580A46C2
:1039A0001E4604460A21FFF7B3FC28F001016172AC
:1039B0000021C4E90951C4E9077614346460246025
:1039C000BDE8F0812DE9F8430446FCF7ADFB8046E5
:1039D0002046FEF76FFA607A20F001006072FFF770
:1039E0003FFF616A174A4318A3620020009202EB6E
:1039F000C002694656686FF000475DF820200AE073
:103A00001268A2EBC0056D699D4202D0ED1ABD425D
:103A100003D341F82020B242F2D10A48001F0168C6
:103A2000491C016004F114010098FFF7ECFB607A77
:103A300040F0010060724046FCF77AFB0020BDE8D0
:103A4000F88300006000002070B50446407AC0078B
:103A50000ED0FCF769FB05462046FEF72BFA607A8C
:103A600020F0010060722846FCF762FB002070BD68
:103A70004FF0FF3070BD00002DE9FF4F894604462E
:103A800000EB090783B080464FF0FF3A4FF0200B60
:103A9000A74202D25746C8F1FF390BE1252803D0CF
:103AA000BC4200D2207080E000260599491C059197
:103AB00008782D2811D02B2812D0202813D02328A5
:103AC00014D0302815D00A785546303A0A2A13D235
:103AD00005A800F030F905461AE046F01006E4E7C4
:103AE00046F00406E1E746F00806DEE746F0200669
:103AF000DBE746F00106D8E72A2809D10698491CD9
:103B0000059120C80690002D02DA6D4246F010069D
:103B10000598D44601782E2918D1401C05900178CB
:103B2000A1F130020A2A04D205A800F004F9844663
:103B300007E02A2908D1401C0590069850F804CBCC
:103B40000690BCF1000F01DA4FF0000C059A00203E
:103B50001178682901D06C2902D1521C08460592BF
:103B600011780A236F2974D00CDC63291FD004DC80
:103B700025296FD058290DD184E0642901D0692905
:103B800008D183E0702966D073292CD075297FD0A5
:103B9000782979D0BC4201D2252020700598641C78
:103BA0000178E9B3BC4200D22170641C7FE0F006CA
:103BB00008D458466D1E002D04DDBC4200D2207092
:103BC000641CF7E70698BC4210F8041B069000D26C
:103BD0002170584602E0BC4200D22070641C6D1E69
:103BE000002DF8DC63E0069802C8069001B941A1F7
:103BF000002000E0401CA84202D00A5C002AF9D153
:103C0000BCF1000F02DD604500DD6046F2060BD41A
:103C10005A462B466D1E834206DDBC4202D200E0AE
:103C200054E02270641CF4E7002206E0BC4201D29A
:103C30000B782370491C521C641C8242F6DB5A46E6
:103C400029466D1E814232DDBC4200D22270641CC6
:103C5000F6E715E010E0681C02D1082546F00106E1
:103C6000CDE9005C06980296102304C806903946F8
:103C7000204619E00CE007E0BC4296D2252011E76F
:103C8000082305E046F04006102301E046F0020656
:103C90006C2801D068281CD0069804C80690CDE98D
:103CA000005C394620460296FFF718F8044605984E
:103CB000401C05900598007800287FF4EFAEB9F11C
:103CC000000F11D0BC420DD220700DE0401E0590B7
:103CD000EDE7069830F8041B06908AB2B007DED5EF
:103CE00012B2DCE707F8010C07B0A4EB0800BDE84E
:103CF000F08F0000284E554C4C29000000207047E2
:103D000000207047002070470020704710B5FCF776
:103D10000BFAFFF7DFF8FFF7B5FBFFF755FCFFF7EE
:103D200025FCFFF773F8FFF755FCFFF787FCFFF75B
:103D300037FC002010BD10B5014600206FF02F03A6
:103D400007E0541C0C60127800EB800003EB40008D
:103D500010440A681478303C0A2CF2D310BD0000DD
:103D60000B4810B5094901604FF4E1314160002171
:103D700081600C22C160C0E904128161C161FDF75C
:103D8000FBFA002800D0FEE710BD0000003801401B
:103D9000900A002010B518A0FFF71EFA1A4C2188CF
:103DA0001AA0FFF719FA2088C00702D01DA0FFF75C
:103DB00013FA2088800702D51DA0FFF70DFA20888E
:103DC000400702D51DA0FFF707FA2088000702D59B
:103DD0001CA0FFF701FA2088C00502D51BA0FFF741
:103DE000FBF92088800502D51BA0FFF7F5F9BDE897
:103DF000104004A0FFF7F0B9757361676520666134
:103E0000756C743A0A0000002AED00E05343425FEB
:103E1000434653525F554653523A30782530325814
:103E200020000000554E444546494E535452200050
:103E3000494E56535441544520000000494E5650B7
:103E4000432000004E4F435020000000554E414C8F
:103E500049474E454420000044495642595A45526C
:103E60004F2000001FB5FDF78FFBFDF7CDFBFDF7E1
:103E70003BFC0020009001903220FFF7ACFBFCF7E8
:103E800056FA40F6C410FFF7A6FB5E4E64250A24DE
:103E90006846FCF7B3FA00984FF47A714843000D76
:103EA000029001984900484306EB1050039056A039
:103EB000FDF776FE6420FFF78EFB56A0FDF770FE3F
:103EC0006420FFF788FB53A0FDF76AFE6420FFF72C
:103ED00082FB50A0FDF764FE6420FFF77CFB4DA041
:103EE000FDF75EFE6420FFF776FB4AA0FDF758FE63
:103EF0006420FFF770FB47A0FDF752FE6420FFF738
:103F00006AFB44A0FDF74CFE6420FFF764FB41A070
:103F1000FDF746FE6420FFF75EFB3EA0FDF740FE86
:103F20006420FFF758FB3BA0FDF73AFE3AA0FDF7EF
:103F300037FE039890FBF4F104FB110390FBF4F0BF
:103F400090FBF4F104FB1102039890FBF5F133A010
:103F5000FDF726FE029890FBF4F104FB110390FBA1
:103F6000F4F090FBF4F104FB1102029890FBF5F1E0
:103F70002EA0FDF715FE28A0FDF712FE2FA0FDF7DD
:103F80000FFE6420FFF727FB22A0FDF709FE642047
:103F9000FFF721FB1FA0FDF703FE6420FFF71BFBCB
:103FA0001CA0FDF7FDFD6420FFF715FB19A0FDF730
:103FB000F7FD6420FFF70FFB16A0FDF7F1FD64206D
:103FC000FFF709FB13A0FDF7EBFD6420FFF703FBF0
:103FD00010A0FDF7E5FD6420FFF7FDFA0DA0FDF749
:103FE000DFFD6420FFF7F7FA0AA0FDF7D9FD642092
:103FF000FFF7F1FA07A0FDF7D3FD07A0FDF7D0FD0D
:1040000046E700000CFEFFFFD5FDD4DABCECB2E2BF
:10401000000000002E0000000D0A0000CEC2B6C84D
:104020003A256425642E256400000000CAAAB6C89B
:104030003A256425642E256400000000B5C8B4FD4F
:104040000000000010B5FFF71DFA002010BD0000B1
:104050000000000000000102030406070809000038
:10406000000001020304000001000200010003003F
:104070000100020001000400010002000100030031
:104080000100020001000500010002000100030020
:104090000100020001000400010002000100030011
:1040A00001000200010006000100020001000300FF
:1040B00001000200010004000100020001000300F1
:1040C00001000200010005000100020001000300E0
:1040D00001000200010004000100020001000300D1
:1040E00001000200010007000100020001000300BE
:1040F00001000200010004000100020001000300B1
:10410000010002000100050001000200010003009F
:104110000100020001000400010002000100030090
:10412000010002000100060001000200010003007E
:104130000100020001000400010002000100030070
:10414000010002000100050001000200010003005F
:104150000100020001000400010002000100030050
:10416000010002000100303132333435363738393E
:104170006162636465660030313233343536373816
:104180003941424344454600252D2A2E7320707242
:10419000692020737461747573202020202020739F
:1041A000702020202020737461636B2073697A650E
:1041B000206D61782075736564206C656674207469
:1041C00069636B20206572726F720A0068656C6C9F
:1041D0006F007361792068656C6C6F20776F726C0B
:1041E000640076657273696F6E0073686F77205232
:1041F000542D5468726561642076657273696F6EC0
:1042000020696E666F726D6174696F6E005F5F63C7
:104210006D645F76657273696F6E0073686F772087
:1042200052542D5468726561642076657273696FAB
:104230006E20696E666F726D6174696F6E006C6975
:1042400073745F746872656164006C697374207460
:104250006872656164005F5F636D645F6C6973744D
:104260005F746872656164006C697374207468724D
:10427000656164006C6973745F73656D006C69736C
:10428000742073656D6170686F726520696E20734C
:10429000797374656D005F5F636D645F6C697374DF
:1042A0005F73656D006C6973742073656D61706810
:1042B0006F726520696E2073797374656D006C6927
:1042C00073745F74696D6572006C697374207469CE
:1042D0006D657220696E2073797374656D005F5F20
:1042E000636D645F6C6973745F74696D6572006C93
:1042F0006973742074696D657220696E20737973B7
:1043000074656D006C697374006C69737420616C02
:104310006C2073796D626F6C20696E207379737491
:10432000656D005F5F636D645F68656C700052541B
:104330002D546872656164207368656C6C206865D3
:104340006C702E005F5F636D645F7073004C697307
:1043500074207468726561647320696E2074686586
:104360002073797374656D2E00000000093D00080C
:10437000013D0008613D0008FD3C00084D2000089B
:10438000053D0008CC410008D2410008ED2300089B
:10439000E2410008EA410008454000080D420008DB
:1043A0001B420008454000083E4200084A420008FF
:1043B0006D26000856420008684200086D26000875
:1043C000744200087D4200082D250008964200082E
:1043D000A54200082D250008BE420008C942000879
:1043E00025280008DE420008EF42000825280008C2
:1043F00004430008094300083D2400082343000843
:104400002E430008792B0008444300084D43000860
:10441000C11F000834440008000000209400000080
:10442000241C0008C844000894000020B4130000B5
:10443000341C000801000000100000000000000013
:104440000024F40000000000000000000100000053
:104450001C0000201C00002078000000020000006A
:104460002C0000202C000020200000000A0000008A
:104470003C0000203C0000202C0000000000000058
:10448000000000000000000000000000000000002C
:10449000000000000000000000000000000000001C
:1044A000000000000000000000000000000000000C
:1044B00000000000000000000000000000000000FC
:0844C0000000000000000000F4
:04000005080000ED02
:00000001FF
