:020000040800F2
:1000000000060020ED000008F5000008F7000008D9
:10001000F9000008FB000008FD00000800000000D7
:10002000000000000000000000000000FF000008C9
:10003000010100080000000003010008050100089C
:100040000701000807010008070100080701000870
:100050000701000807010008070100080701000860
:100060000701000807010008070100080701000850
:100070000701000807010008070100080701000840
:100080000701000807010008070100080701000830
:100090000701000807010008070100080701000820
:1000A0000701000807010008070100080701000810
:1000B0000701000807010008070100080701000800
:1000C00007010008070100080701000807010008F0
:1000D00007010008070100080701000807010008E0
:1000E00007010008070100080701000809488047C8
:1000F00009480047FEE7FEE7FEE7FEE7FEE7FEE70A
:10010000FEE7FEE7FEE7FEE704480549054A064B21
:10011000704700006102000835010008000000205F
:1001200000060020000200200002002070477047F7
:10013000704700004FF00A004FF00B014FF00C0227
:100140004FF00D0300F009F800F00AF800F00BF88A
:10015000DFF81CE0DFF81CF0FEE74FF00505704704
:100160004FF0060670474FF007074FF0080870473A
:100170005B0100086701000810B500F001F810BD30
:100180000CB50020019000903348006840F48030A6
:100190003149086000BF3048006800F4003000902A
:1001A0000198401C0190009818B90198B0F5A06F13
:1001B000F1D12948006800F4003010B1012000900E
:1001C00001E0002000900098012843D123480068F6
:1001D00040F01000214908600846006820F0070040
:1001E00008600846006840F0020008601A4840684D
:1001F000194948600846406848600846406840F42D
:10020000806048600846406820F47C1048600846DA
:10021000406840F4E81048600846006840F080708C
:10022000086000BF0C48006800F000700028F9D09A
:100230000948406820F003000749486008464068C4
:1002400040F00200486000BF0348406800F00C0026
:100250000828F9D10CBD0000001002400020024027
:1002600010B51348006840F00100114908600846C5
:100270004068104908400E494860084600680E4929
:1002800008400B4908600846006820F48020086098
:100290000846406820F4FE0048604FF41F00886064
:1002A000FFF76AFF4FF000600449086010BD0000CE
:1002B000001002400000FFF8FFFFF6FE08ED00E02E
:0400000508000135B9
:00000001FF
