:020000040800F2
:10000000C80A002089010008F31100084711000800
:10001000F1110008E30200088F150008000000003D
:10002000000000000000000000000000291500088A
:10003000E502000800000000291400082B15000844
:10004000A3010008A3010008A3010008A301000800
:10005000A3010008A3010008A3010008A3010008F0
:10006000A3010008A3010008A3010008A3010008E0
:10007000A3010008A3010008A3010008A3010008D0
:10008000A3010008A3010008A3010008A3010008C0
:10009000A3010008A3010008A3010008A3010008B0
:1000A000A3010008A3010008A3010008A3010008A0
:1000B000A3010008A3010008A3010008A301000890
:1000C000A3010008A3010008A3010008A301000880
:1000D000A3010008A3010008A3010008A301000870
:1000E000A3010008A3010008A301000800F002F822
:1000F00000F03AF80AA090E8000C82448344AAF188
:100100000107DA4501D100F02FF8AFF2090EBAE885
:100110000F0013F0010F18BFFB1A43F0010318473B
:100120007C2B00009C2B0000103A24BF78C878C1BB
:10013000FAD8520724BF30C830C144BF04680C60ED
:10014000704700000023002400250026103A28BF35
:1001500078C1FBD8520728BF30C148BF0B60704739
:100160001FB51FBD10B510BD00F082F81146FFF796
:10017000F7FF01F01DFA00F0A0F803B4FFF7F2FF5B
:1001800003BC00F0A7F80000094880470948004771
:10019000FEE7FEE7FEE7FEE7FEE7FEE7FEE7FEE737
:1001A000FEE7FEE704480549054A064B7047000094
:1001B0008D150008ED000008C8040020C80A0020C2
:1001C000C8060020C806002002F0FF0343EA03220D
:1001D00042EA024200F002B84FF000020429C0F0E7
:1001E000128010F0030C00F01B80CCF1040CBCF169
:1001F000020F18BF00F8012BA8BF20F8022BA1EBBB
:100200000C0100F00DB85FEAC17C24BF00F8012B9F
:1002100000F8012B48BF00F8012B70474FF0000297
:1002200000B5134694469646203922BFA0E80C50EC
:10023000A0E80C50B1F12001BFF4F7AF090728BFC7
:10024000A0E80C5048BF0CC05DF804EB890028BF43
:1002500040F8042B08BF704748BF20F8022B11F06C
:10026000804F18BF00F8012B7047704770477047E8
:10027000754600F02BF8AE4605006946534620F05F
:100280000700854618B020B5FFF78CFFBDE8204079
:100290004FF000064FF000074FF000084FF0000B42
:1002A00021F00701AC46ACE8C009ACE8C009ACE8F5
:1002B000C009ACE8C0098D46704710B50446AFF3DD
:1002C00000802046BDE81040FFF757BF0048704748
:1002D0006804002001491820ABBEFEE7260002009A
:1002E0007047FEE7704772B6FEE72DE9F0471D46FE
:1002F000144688460646C2F18007DDF8209015E0D6
:10030000102C18D0182C1DD0202C12D14B462A4668
:100310004146304600F028F93019C6B2B74204DA37
:1003200008EB0400002600F0FF08AD1C2878002828
:10033000E6D1BDE8F0874B462A464146304600F0FC
:1003400077F8E9E74B462A464146304600F0BCF8CC
:10035000E2E700002DE9F84F203A0024DDF828B04C
:100360000F46064602F0FF0A7F2802D900268F1C9E
:10037000FFB28020102B0DD0082B52D12A4A02EB5D
:10038000CA018246CDF800100098BBF1000F005D55
:1003900027D124E0254804EB0A11BBF1000F405C93
:1003A00001D1C043C0B28146002507EB040880207C
:1003B000E84010EA090F06EB050008F0FF01C0B2A3
:1003C00001D0012200E0002201F000F86D1CEDB226
:1003D000082DECD3641CE4B2102CDBD31DE0C04329
:1003E000C0B28146002507EB040800BF2AFA05F0D9
:1003F00010EA090F06EB050008F0FF01C0B201D0BA
:10040000012200E0002200F0E1FF6D1CEDB2082D9A
:10041000ECD3641CE4B2082CB6D3BDE8F84F00F06E
:10042000FBBEBDE8F88F0000B0160008A819000850
:100430002DE9FF5F3E25147822499B46002000BF2E
:1004400000EB001311F81360A64232D101EB430A0E
:1004500056789AF80130B3422BD100244FF080092E
:100460000AEB0400BBF1000F807801D1C043C0B299
:1004700080460198009900EB540704F00100002524
:1004800001EBC00629FA05F010EA080F06EB05009B
:10049000F9B2C0B201D0012200E0002200F096FFC4
:1004A0006D1CEDB2082DEDD3641CE4B2202CD7D323
:1004B00003E0401CC0B2A842C2D3BDE8FF5F00F019
:1004C000ABBE0000981F00082DE9FF5F8A468346F7
:1004D000062413782349002000EB800505EB401526
:1004E00011F815609E4235D101EB4509567899F80F
:1004F0000150B5422ED1002480264FF00308039806
:10050000002809EB040001D0877802E08078C0431E
:10051000C7B2002526FA05F038424046B4FBF0F297
:1005200002EB0A01B4FBF8F208FB12420BEBC2002B
:100530002844C9B2C0B201D0012200E0002200F07C
:1005400045FF6D1CEDB2082DE4D3641CE4B2482CC9
:10055000D5D303E0401CC0B2A042BDD3BDE8FF5FCD
:1005600000F05ABED42700082DE9FF5F0625147855
:1005700022499B46002000BF00EB801311F8136056
:10058000A64232D101EB430A56789AF80130B342C1
:100590002BD100244FF080090AEB0400BBF1000FBF
:1005A000807801D1C043C0B280460198009900EB29
:1005B000940704F00300002501EBC00629FA05F0BA
:1005C00010EA080F06EB0500F9B2C0B201D0012213
:1005D00000E0002200F0FAFE6D1CEDB2082DEDD314
:1005E000641CE4B2802CD7D303E0401CC0B2A84204
:1005F000C2D3BDE8FF5F00F00FBE000090290008E5
:100600002DE9F84F0024DDF828A01E4690468946C3
:100610000546102B03D0082E19D1062713E0082712
:1006200011E0334649462846CDF800A0FFF792FE78
:10063000E819C5B2782D04D909EB0600002500F0B1
:10064000FF09641CE4B218F80420002AE9D1BDE8CF
:10065000F88F000070B5044600F004F90546601CF0
:1006600002D004480078044400F0FCF8401BA0428B
:10067000FAD370BD000000202DE9F84FDFF8B891E3
:10068000002409F1040A0AF1040B23460F270BF199
:10069000040EC9E00125A5402A40AA427DD1674E3B
:1006A000D1F804C0ACEB0608B44532D014DCBCF180
:1006B000030F3AD009DCBCF1000F2AD0BCF1010FC6
:1006C0001CD0BCF1020F31D11DE0BCF1110F17D0CD
:1006D000BCF1120F2AD119E0B8F5881F19D006DC39
:1006E000B8F5803F15D0B8F5801F1FD111E0B8F5DF
:1006F000001F0ED0B8F5041F18D10AE0CB6815E032
:10070000CB681B1D12E0CB6808330FE0CB680C33BD
:100710000CE08B682BB1012B4FF0080303D045612F
:1007200004E0042302E0056100E00023FF2A01D871
:10073000064601E000F104064FEA840501D9A5F15F
:100740002005D6F8008007FA05FC28EA0C0803FA11
:1007500005F548EA0508C6F800804D68ED0062D549
:10076000374DAE6946F00106AE61AD6924F003066F
:1007700005F001050095334D06EB050CDCF808503B
:10078000A607360F07FA06F825EA0805DFF8B8804D
:10079000404503D14FF0000817E044E0DFF8AC809B
:1007A000404502D14FF001080FE0DFF8A48040453A
:1007B00002D14FF0020808E0DFF89880404502D1EE
:1007C0004FF0030801E04FF0040808FA06F848EA81
:1007D0000508CCF808804D68D9F80060ED034D4657
:1007E00001D5164300E096432E604D68DAF80060AC
:1007F000AD03554601D5164300E096432E604D6883
:10080000DBF80060ED025D4601D5164300E096433B
:100810002E604D68DEF80060AD02754601D51643C6
:1008200000E096432E60641C0D682A46E5407FF484
:1008300031AFBDE8F88F0000000401400000111046
:10084000001002400000014000080140000C01407F
:1008500000100140001401400AB101617047090411
:10086000FBE700000148806870470000000000209E
:1008700002488168027811448160704700000020BE
:10088000074810B5016841F010010160032000F035
:100890005FF80F2000F006F800F024F8002010BDEB
:1008A0000020024070B50D4D04464FF47A7128784F
:1008B000B1FBF0F00A490968B1FBF0F000F02FFC41
:1008C00048B9102C07D200222146501E00F020F813
:1008D00000206C6070BD012070BD00000000002091
:1008E0000C000020094808B5816941F001018161CF
:1008F000816901F001010091C16941F08051C1613C
:10090000C06900F08050009008BD00000010024057
:10091000F0B40E4B1B680C46C3F30223C3F107056A
:10092000042D00D90425191D072901D2002300E058
:10093000DB1E012606FA05F1491E214099409E4022
:10094000761E16403143F0BC00F022BE0CED00E0F4
:10095000064900F0070208684FF6FF03184040EA16
:100960000220034A10430860704700000CED00E0CD
:100970000000FA052DE9F0470F46050061D0434E0F
:10098000306800F00700B84209D2306820F0070054
:1009900038433060306800F00700B84251D1286811
:1009A0003B4C810712D5400703D5606840F4E060F6
:1009B00060602878000703D5606840F4605060608C
:1009C0006068A96820F0F000084360602878C007DC
:1009D00028D06868012810D02168022810D0890723
:1009E00000292EDA616821F0030101436160FFF7FD
:1009F00039FF804641F288390DE021688903EFE72D
:100A00008901EDE7FFF72EFFA0EB0801494502D968
:100A10000320BDE8F0876068696800F00C00B0EB67
:100A2000810FEFD1306800F00700B8420BD9306871
:100A300020F0070038433060306800F00700B8420B
:100A400001D00120E5E72878400705D56068E9680E
:100A500020F4E060084360602878000706D56068ED
:100A6000296920F4605040EAC100606000F018F885
:100A70006168084AC1F30311515CC8400649086027
:100A800006480068FFF70EFF0020C2E70020024082
:100A900000100240A01600080C00002004000020F6
:100AA00012A185B00FC98DE80F0014A0144A006888
:100AB00004905168134801F00C03042B10D0082B4C
:100AC0000ED1C1F38343C9031DF803000AD5516851
:100AD00004AAC1F34041515C0A4A5043B0FBF1F013
:100AE00005B0704708494843FAE7000002030405CF
:100AF000060708090A0B0C0D0E0F1010010200006A
:100B00000010024000127A0000093D002DE9F84F64
:100B1000040070D02078C04DC00749D06868C0F389
:100B20008100012807D06868C0F38100022809D13C
:100B30006868C00306D52868800339D56068002836
:100B4000E7D035E06068B0F5803F0BD010B1B0F56C
:100B5000A02F11D0286820F480302860286820F465
:100B6000802002E0286840F480302860606890B1FE
:100B7000FFF778FE06460AE0286840F480202860E7
:100B8000F0E700BFFFF76EFE801B642873D828686B
:100B90008003F7D50CE0FFF765FE064605E000BFD1
:100BA000FFF760FE801B6428F0D828688003F7D424
:100BB00020789A4E80074FF001094FF0000839D590
:100BC000686810F00C0F07D06868C0F38100022835
:100BD00009D16868C00306D42868800714D5206945
:100BE000012808D110E02069B0B1C6F80090FFF7E5
:100BF00039FE074605E00AE1FFF734FEC01B022874
:100C0000C4D828688007F7D52868616920F0F80003
:100C100040EAC10028600DE0C6F80080FFF722FE20
:100C2000074604E0FFF71EFEC01B022823D82868F1
:100C30008007F7D4207800072CD57948A169D9B16D
:100C4000C0F80090FFF70EFE074604E0FFF70AFE2B
:100C5000C01B02280FD8686A8007F7D571484FF487
:100C6000FA510068B0FBF1F0009000BF0098411EFF
:100C70000091FAD20EE080E0C0F80080FFF7F2FDAC
:100C8000074604E0FFF7EEFDC01B022875D8686A2E
:100C90008007F7D42078400760D5E8690027C000B6
:100CA00008D4E86940F08050E861E869012700F065
:100CB000805000905C480168C90513D401688346E0
:100CC00041F480710160FFF7CDFD824606E000BF70
:100CD000FFF7C8FDA0EB0A0064284ED8DBF800003F
:100CE000C005F5D5E06801280AD008B1052813D061
:100CF000286A20F001002862286A20F0040002E03F
:100D0000286A40F001002862E06841F2883B98B10F
:100D1000FFF7A8FD82460BE0286A40F00400286235
:100D2000EEE700BFFFF79EFDA0EB0A0159455AD838
:100D3000286A8007F6D50CE0FFF794FD824605E0AF
:100D4000FFF790FDA0EB0A0159454CD8286A8007AF
:100D5000F6D41FB1E86920F08050E861E06988B3FB
:100D60006968C1F38101022944D00228C6F8608075
:100D700004D0FFF777FD044638E034E0FFF772FD5A
:100D8000074604E0FFF76EFDC01B02282BD8286839
:100D90008001F7D4206AB0F5803F05D16868A1686A
:100DA00020F4003008436860D4E90801084369680A
:100DB00021F4741108436860C6F86090FFF752FD93
:100DC000044606E025E000BFFFF74CFD001B0228AB
:100DD00009D828688001F7D51BE000BFFFF742FD66
:100DE000001B022802D90320BDE8F88F2868800183
:100DF000F4D40EE00128F7D06868226A00F480314C
:100E0000914204D1616A00F47010884201D001203F
:100E1000EAE70020E8E7000000100240000042423C
:100E2000800442420C0000200070004070B50400B5
:100E300009D0606A002540B125616561A56294F81A
:100E4000510040B10CE0012070BD6068B0F5827FB8
:100E5000F4D0E561F2E784F85050204600F040F805
:100E6000022084F851002068016821F040010160EF
:100E7000A088218900F4827001F404410843A1890B
:100E800001F400610843217C01F002010843217D47
:100E900001F001010843218B01F400710843217F17
:100EA00001F03801084394F8201001F08001084354
:100EB000218D01F40051084321680860A0690421D4
:100EC00001EA1040216848602068C16921F400618E
:100ED000C1616565012084F85100002070BD0000EB
:100EE00000B585B000210091019102910391006845
:100EF0000F4988421AD10F48816941F480518161BC
:100F0000816901F480510491816941F0040181619A
:100F10008069694600F004000490A020009002203F
:100F20000190032003900448FFF7A6FB05B000BD25
:100F30000030014000100240000801402DE9F84F48
:100F4000044690F8500000270A9E1D4692468B46A4
:100F50004FF0010901280ED0012084F85000FFF75E
:100F600081FC804694F85100616801280CD0B1F5ED
:100F7000827F07D102E00220BDE8F88FA16809B99D
:100F8000042801D00227C2E0BBF1000F27D0BAF13C
:100F9000000F24D01DB394F85100042802D005207E
:100FA00084F8510000206065C4F838A0E587A58763
:100FB000C4F830B0E586A5862064606420680168C6
:100FC000490603D4016841F040010160E068B0F5D2
:100FD000006F606805D0E8B3012D46D07FE001279F
:100FE00095E008B1012D39D1206B21680088C860D7
:100FF000206B801C2063E08E401EE0862EE020687F
:10100000816889070FD5E18E69B1B9F1010F0AD165
:10101000216B0988C160206B801C2063E08E401E1C
:10102000E0864FF0000920688168C9070CD0E18F85
:1010300051B1C068A16B0880A06B801CA063E08FD9
:10104000401EE0874FF00109FFF70CFCA0EB080001
:10105000B04200E009E001D3701C50D1E08E0028BE
:10106000CDD1E08F0028CAD13FE0206B2168007805
:101070000873206B401C2063E08E401EE0862EE04B
:101080002068816889070FD5E18E69B1B9F1010F38
:101090000AD1216B09780173206B401C2063E08E1C
:1010A000401EE0864FF0000920688168C9070CD017
:1010B000E18F51B1C068A16B0870A06B401CA063A8
:1010C000E08F401EE0874FF00109FFF7CBFBA0EB5C
:1010D0000800B04202D3701C01D010E07EB1E08E57
:1010E0000028CDD1E08F0028CAD1424631462046A3
:1010F00000F0AEF928B101272020606507E0032742
:1011000005E0A06818B92068C168806800900120D7
:1011100084F85100002084F8500038462CE710B5C0
:10112000401EB0F1807F01D3012010BD4FF0E024BC
:1011300060610F21601700F02BFA0020A0610720EA
:101140002061002010BDFEE730B585B000241448B2
:101150000094019402940394816941F0200181611B
:10116000816901F020010491816941F004018161EC
:1011700080690C4D00F0040004900022582128469C
:10118000FFF76AFB582000900120CDE901040220FE
:10119000039069462846FFF76FFA05B030BD00009E
:1011A0000010024000080140104810B50E490160CF
:1011B0004FF48271416000218160C1604FF4007280
:1011C0000161C0E905120822C0E90721416281627C
:1011D0000A21C162FFF72AFE002803D0BDE81040B3
:1011E000FFF781B810BD0000003001401000002062
:1011F000FEE7FEE710B54FF4806120B1FF220548FD
:10120000FEF7E2FF02E00348FEF7E6FFBDE810400C
:1012100000F002B86800002070B5104E00240021D4
:1012200004F1B00000F0E4F80021084600F0E0F816
:101230000021102000F0DCF85FF0000505EBC41081
:101240000121305C00F0D4F86D1CEDB2802DF5D397
:10125000641CE4B2082CE2D370BD000068000020DA
:1012600010B500F06BF8C820FFF7F4F900F092F821
:101270000021AE2000F0BCF80021084600F0B8F8CC
:101280000021102000F0B4F80021402000F0B0F858
:101290000021B02000F0ACF80021812000F0A8F877
:1012A0000021FF2000F0A4F80021A12000F0A0F808
:1012B0000021A62000F09CF80021A82000F098F85A
:1012C00000213F2000F094F80021C82000F090F8A1
:1012D0000021D32000F08CF80021084600F088F8A7
:1012E0000021D52000F084F80021802000F080F853
:1012F0000021D92000F07CF80021F12000F078F8DE
:101300000021DA2000F074F80021122000F070F8BB
:101310000021DB2000F06CF80021302000F068F89C
:1013200000218D2000F064F80021142000F060F806
:101330000021BDE81040AF2000F05AB810B586B0CB
:10134000002000900190029003901048816941F0C4
:101350000401816180690E4C00F0040004900022B9
:1013600058212046FFF778FA58200090012001907C
:101370000220039069462046FFF77EF9012258219A
:101380002046FFF769FA06B010BD000000100240C9
:101390000008014010B50C4C012240212046FFF707
:1013A0005BFA6420FFF756F9002240212046FFF740
:1013B00053FA6420FFF74EF920460122BDE81040A1
:1013C0004021FFF749BA00000008014030B501F0A4
:1013D00007050123AB40054CC90800EBC111605C57
:1013E0000AB1184300E09843605430BD6800002003
:1013F00070B50C4D044609B1012200E00022102115
:101400002846FFF729FA002208212846FFF724FA88
:10141000E0B200F00BF82846BDE870400122082138
:10142000FFF71ABA000801407047000001B582B00A
:1014300001208DF8040064200090012301AA02A974
:101440000248FFF77BFD9DF804000EBD1000002050
:1014500038B50B46009204460022802100F008F8BF
:10146000002804D0606D40F020006065032038BD86
:101470002DE9F8431E46914688460446089DFFF72D
:10148000F1F9401B351AFFF7EDF9074625480068CA
:10149000C0F3CB30684338E0701C37D0FFF7E2F977
:1014A000C01BA84203D215B1009860B32CE020689D
:1014B000416821F0E00141606068B0F5827F0BD1A6
:1014C000A068B0F5004F02D0B0F5806F04D120685D
:1014D000016821F040010160A06AB0F5005F09D108
:1014E0002068016821F4005101602068016841F41E
:1014F00000510160012084F85100002084F8500060
:101500000320BDE8F8830025401E00902068816814
:1015100038EA010004D000214945BDD10020F0E7A0
:101520000121F9E70C0000207047FFF7A1B930B5A1
:101530008FB028216846FEF771FE14210AA8FEF735
:101540006DFE01210804CDE900100024029402255B
:101550000491CDE907504FF4E01009906846FFF779
:10156000D5FA08B172B6FEE70F20CDE90A054FF4AF
:101570008060CDE90C4002210AA80E94FFF7FAF929
:10158000002801D072B6FEE70FB030BD7047FEE70D
:101590000907090E002804DB00F1E02080F80014A0
:1015A000704700F00F0000F1E02080F8141D704734
:1015B00008B5FFF765F9FFF7BAFFFFF7C5FDFFF7BD
:1015C000F3FDFFF74DFE0020FFF714FE012410236A
:1015D00027A2002128200094FFF712F8102326A24A
:1015E000182114200094FFF70BF827A310223021B4
:1015F00028200094FEF779FE4FF47A70FFF72AF85E
:101600000020FFF7F7FD00212E20FFF7F1FE00215B
:101610002720FFF7EDFE00210846FFF7E9FE002135
:101620000846FFF7E5FE00210720FFF7E1FE002155
:101630000720FFF7DDFE00210846FFF7D9FE002155
:10164000FF20FFF7D5FE12A3102218210A200094D4
:10165000FEF74BFE00212F20FFF7CAFE41F63804AB
:1016600000212F20FFF7C4FE2046FEF7F3FFF7E727
:1016700070707170706C000036333139303730362D
:101680003035323000000000BBB6D3ADC4E30000FB
:10169000B4BAD3D0B0D9BBA8C7EFD3D0D4C200005E
:1016A0000000000000000000010203040607080912
:1016B00000000000000000001010101000100000DA
:1016C000282828000000000028287C287C282800E2
:1016D000103C503814781000004C2C10086060004A
:1016E00030485020544834003010200000000000E2
:1016F00008102020201008002010080808102000E2
:1017000000105438541000000010107C101000001D
:101710000000000000180810000000007C0000001D
:1017200000000000003030000004081020400000DD
:1017300038444C54644438001030101010103800F5
:101740003844040810207C007C0810080444380049
:10175000081828487C0808007C40780404443800B5
:1017600018204078444438007C04081020202000D1
:1017700038444438444438003844443C0408300079
:1017800000303000303000000030300030102000D9
:10179000081020402010080000007C007C000000A1
:1017A000201008040810200038440408100010001D
:1017B000384404345C443800102844447C444400D9
:1017C00078444478444478003844404040443800E9
:1017D00070484444444870007C40407840407C005D
:1017E0007C404078404040003844405C44443C00E9
:1017F0004444447C44444400381010101010380015
:101800001C0808080848300044485060504844000C
:101810004040404040407C00446C545444444400A8
:10182000444464544C4444003844444444443800E0
:10183000784444784040400038444444544834009C
:1018400078444478504844003C40403804047800D0
:101850007C101010101010004444444444443800DC
:1018600044444444442810004444445454542800FC
:1018700044442810284444004444442810101000D4
:101880007C04081020407C003820202020203800D4
:101890000040201008040000380808080808380034
:1018A00010284400000000000000000000007C0040
:1018B0002010080000000000000038043C443C00F8
:1018C00040405864444478000000384040443800A8
:1018D0000404344C44443C00000038447C4038004C
:1018E000382420702020200000003C44443C043870
:1018F0004040586444444400100030101010380038
:101900000800180808084830404048506050480017
:101910003010101010103800000068545444440077
:1019200000005864444444000000384444443800F3
:1019300000005864645840400000344C4C340404A7
:10194000000058644040400000003C4038047800EB
:10195000202070202024180000004444444C34000F
:10196000000044444428100000004444545428001B
:10197000000044281028440000004444443C04383B
:1019800000007C0810207C00102020402020100047
:10199000001010101010100020101008101020005F
:1019A00000000020540800000000000000000000BB
:1019B00000000000000000000000001818181818AF
:1019C0001818000018180000001236244800000003
:1019D0000000000000000000000000242424FE4855
:1019E0004848FE4848480000000010385454503021
:1019F0001C1414545438101000000044A4A8A8A8C3
:101A0000541A2A2A2A44000000000030484848504E
:101A10006EA494888976000000606020C0000000F9
:101A20000000000000000000000204080810101070
:101A300010101008080402000040201010080808C8
:101A40000808081010204000000000001010D638D0
:101A500038D6101000000000000000001010101018
:101A6000FE10101010000000000000000000000038
:101A700000000000606020C00000000000000000C6
:101A80007F000000000000000000000000000000D7
:101A90000000000060600000000001020204040871
:101AA000081010202040400000000018244242424C
:101AB0004242424224180000000000107010101032
:101AC00010101010107C00000000003C4242420444
:101AD00004081020427E00000000003C424204182E
:101AE0000402024244380000000000040C142424C4
:101AF00044447E04041E00000000007E4040405824
:101B000064020242443800000000001C2440405897
:101B100064424242241800000000007E424408084B
:101B200010101010101000000000003C424242242F
:101B300018244242423C0000000000182442424265
:101B4000261A0202243800000000000000001818C5
:101B50000000000018180000000000000000181825
:101B600000000018180830000000000204081020CF
:101B70004020100804020000000000000000FE00E9
:101B80000000FE00000000000000004020100804DB
:101B900002040810204000000000003C42426202A3
:101BA000040808001818000000000038445AAAAAC7
:101BB000AAAAB442443800000000001010182828D7
:101BC000243C444242E70000000000F844444478CA
:101BD0004442424244F800000000003E42428080FD
:101BE0008080804244380000000000F844424242B5
:101BF0004242424244F80000000000FE4248487859
:101C00004848404242FE0000000000FE424848783A
:101C10004848404040E000000000003C44448080D0
:101C2000808E844444380000000000E74242424273
:101C30007E42424242E700000000007C101010107B
:101C400010101010107C00000000003E080808086A
:101C500008080808080888F0000000EE44485070A2
:101C60005048484444EE0000000000E0404040403E
:101C70004040404042FE0000000000EE6C6C6C6C86
:101C80005454545454D60000000000C762625252AB
:101C90004A4A4A4646E200000000003844828282F6
:101CA0008282828244380000000000FC42424242AC
:101CB0007C40404040E000000000003844828282C6
:101CC0008282B2CA4C380600000000F844444478CE
:101CD0004848444442E300000000003E42424020A5
:101CE00018040242427C0000000000FE9210101016
:101CF0001010101010380000000000E7424242426D
:101D000042424242423C0000000000E7424244247A
:101D10002428281810100000000000D692929292F9
:101D2000AAAA6C4444440000000000E7422424189E
:101D30001818242442E70000000000EE444428283C
:101D400010101010103800000000007E84040808F5
:101D50001020204242FC0000001E10101010101035
:101D60001010101010101E00000040402020101015
:101D700008040402020201010078080808080808A3
:101D8000080808080808780000081422000000006D
:101D90000000000000000000000000000000000043
:101DA00000000000000000FF0060100000000000C4
:101DB0000000000000000000000000000000003CE7
:101DC000421E2242423F0000000000C040404058F6
:101DD0006442424264580000000000000000001C01
:101DE00022404040221C0000000000060202021EA9
:101DF00022424242261B0000000000000000003C7E
:101E0000427E4040423C00000000000F1110107E56
:101E100010101010107C0000000000000000003EB8
:101E2000444438403C42423C000000C04040405CDA
:101E30006242424242E70000000000303000007081
:101E400010101010107C00000000000C0C00001C92
:101E50000404040404044478000000C04040404EE0
:101E60004850684844EE0000000000701010101048
:101E700010101010107C000000000000000000F6A0
:101E80004949494949ED000000000000000000DC1C
:101E90006242424242E70000000000000000003CB5
:101EA00042424242423C000000000000000000D8D4
:101EB00064424242645840E0000000000000001EFE
:101EC00022424242261A020700000000000000EEF3
:101ED0003220202020F80000000000000000003E1A
:101EE00042403C02427C0000000000000010107CD8
:101EF00010101010100C000000000000000000C6C0
:101F000042424242463B000000000000000000E761
:101F1000422424281010000000000000000000D718
:101F20009292AAAA44440000000000000000006E43
:101F3000241818182476000000000000000000E7B4
:101F400042242428181010E0000000000000007E49
:101F500044081010227E0000000304040404040856
:101F60000404040404040300080808080808080816
:101F70000808080808080808006010101010100869
:101F8000101010101010600000000000000020521F
:101F90000C00000000000000C8AB0100010002803E
:101FA0000440082010102FE8C106010001001FF0B6
:101FB0000100010001007FFC0000B6AF00400040BE
:101FC0007C40004001FC0044FE4420442044208426
:101FD00048844484FD04450402280410B5E7010048
:101FE000010001003FF82108210821083FF82108DD
:101FF000210821083FF8210A0102010200FED7D37F
:1020000000007FF800100020004001800100FFFE6A
:1020100001000100010001000100010005000200B3
:10202000BCBC10201020102013FEFC20102010201B
:1020300015FC18843088D04810501020105051885A
:102040002606CAF501000120011001107FFC038063
:1020500005400540092011102108410481020100BA
:1020600001000100CFB500F83F0004000820104037
:102070003F800100061018087FFC010409201110A0
:10208000210845040200CDB310401020202023FE7B
:102090004840F888110423FE4092F8904090009048
:1020A0001912E112420E0400C9E8000021F01110DB
:1020B00011100110020EF40013F811081110109005
:1020C00014A0184010A003180C06D6C37FFC44448B
:1020D0007FFC01007FFC01001FF010101FF01010AA
:1020E0001FF010101FF01010FFFE0000D2F40200CD
:1020F00001003FF8000008200440FFFE00001FF030
:10210000101010101FF0101010101FF01010C1BF91
:1021100000001FF010101FF01010FFFE00001FF055
:1021200011101FF011101FF001001FF001007FFCC3
:10213000D1D5100008FE7F102220147C7F44445427
:1021400048545254445448545154422844248842D8
:102150003082C9AB080008001FE020204040BFF8D3
:102160002108210821083FF8200020022002200237
:102170001FFE0000CDF800007FFC40044004421424
:1021800052944A54442444244A544A545294610474
:10219000400440144008C2E71080108020F8210855
:1021A0004B10FCA0104020A04118FA0645F8010889
:1021B0001908E10841F80108CEC2000023F812080E
:1021C000120883F84208420813F8100027FCE4A420
:1021D00024A424A424A42FFE0000B6C8010000807B
:1021E0003FFE222022203FFC2220222023E020004C
:1021F0002FF02410422041C08630380EA1E6600046
:1022000091F4960C6C0408041800180018001800CB
:102210001800180008000C04060801F00000CAAA03
:10222000000027F81408140887F84408440817F831
:1022300011202120E9242528233021202FFE000011
:10224000B6C8010000803FFE222022203FFC222051
:10225000222023E020002FF02410422041C08630AD
:10226000380ED6D8001000F83F000100FFFE010034
:102270001FF011101FF011101FF001003FF80100B6
:10228000FFFE0000C7EC010000803FFE2000208020
:10229000208020802FFC20802140214022204220CD
:1022A000441088081006BDBB020001000100FFFEBB
:1022B000000010101008202448240440028001006F
:1022C00002800C403030C00ECDA8000047F820102E
:1022D00021A0004007FCE444244427FC2444244477
:1022E00027FC2444245454088FFEB4F30100010059
:1022F000010001000100FFFE0100010002800280D8
:1023000004400440082010102008C006D1A722086D
:102310001108111000207FFE400280041FE00040E1
:102320000180FFFE01000100010005000200BBB6B4
:1023300000800080FC8004FC050449082A40144009
:10234000104028A024A045108110020804040802AF
:10235000D3AD00002080133C122402240224F22476
:102360001224122412B4132812201020282047FE11
:102370000000C4E308800880088011FE11023204C6
:1023800034205020912811241224122214221020CB
:1023900010A01040B4BA010001007FFC01003FF81A
:1023A0000200FFFE082010102FE8C82608200FE0CA
:1023B000082008200FE0D3D002000200FFFE040036
:1023C00004000FF0081018102FF0481088100FF0BC
:1023D0000810081008500820B0D90000FFFE0100C6
:1023E000020004003FF82008200820083FF82008D9
:1023F0002008200820083FF82008BBA80820082053
:10240000FFFE082000000888089010A030C050800F
:102410009180128214821082107E1000C7EF084053
:102420001C40F04010401144FD44114832503840E7
:1024300054A054A090901110110812041402D3D08B
:1024400002000200FFFE040004000FF00810181044
:102450002FF0481088100FF00810081008500820BE
:10246000D4C200001FF81008100810081FF8100848
:10247000100810081FF8100810082008200840282D
:102480008010A3AC0000000000000000000000006D
:1024900000000000000000000000300030001000CC
:1024A00020000000CFC47FFC02001FF010101FF0BE
:1024B00010101FF010101FF008001FF028204440DB
:1024C00003801C70E00ED3D002000200FFFE040067
:1024D00004000FF0081018102FF0481088100FF0AB
:1024E0000810081008500820C1B9008040402FFE95
:1024F0002000000003F81208120823F8E0402250E0
:1025000022482444284421400080B7E700003FF0DF
:1025100020102010285024502290229021102110A9
:1025200022902292244A484A40068002B6AC040017
:1025300004000FF010102820444003800C60301875
:10254000C006070000C000200E0001800040D3D06C
:1025500002000200FFFE040004000FF00810181033
:102560002FF0481088100FF00810081008500820AD
:10257000D1A93FF801007FFE41029D7401001D704A
:1025800000003FF8000800081FF8000800083FF8A6
:102590000008A1A3000000000000000000000000EF
:1025A00000000000000000001800240024001800B3
:1025B00000000000C8F408200820FFFE08200A20C0
:1025C0000200FFFE040008001FF0281048108810C9
:1025D00008100FF00810CEDE00003FF002000200ED
:1025E000020002007FFC04800480048008800880D0
:1025F00010842084407C8000CFD0200017FC000491
:102600004104410441045FF44104438445444924A6
:1026100051144104410440144008CAC201000100A1
:10262000FFFE01003FF821083FF801003FF80108D4
:10263000FFFE01083FF8010005000200B9D210209A
:10264000102011FC1020FC20102013FE1000182078
:102650003020D1FC10201020102053FE2000D0C4C8
:10266000000002000100008000800400040824042F
:1026700024042402440244128410041003F00000D5
:10268000CDB70080008008800480248010801080F6
:102690000080FFFE01000140022004100808300401
:1026A000C004A3AC00000000000000000000000017
:1026B00000000000000000000000300030001000AA
:1026C00020000000B1E3100017FE104027FC244456
:1026D000644467FCA444244427FC22402140208019
:1026E000214022302C0ECAC71FF0101010101FF00E
:1026F000101010101FF00000FFFE0100110011F873
:1027000011002900450083FEC8CB01000100010033
:102710000100010001000280028004400440082002
:1027200008201010200840048002BCE4200013FCA4
:102730001004400447C444444444444447C444440B
:102740004444444447C4400440144008BAC3100001
:1027500010FC10041008FC102420242025FE242046
:102760004820282010202820442084A00040CAB1FE
:10277000000800087C08440845FE440844087C081A
:1027800044884448444844087C0844080028001011
:10279000BDDA08200820FFFE0820082000007FF88E
:1027A0000208020802080208025002200200020089
:1027B0000200A1A3000000000000000000000000D3
:1027C0000000000000000000180024002400180091
:1027D00000000000C8AB000000000000003800004E
:1027E000300000680000440000C2000181000300C6
:1027F000C00600700FFFFE101808601800001800D7
:1028000000180000186003FF800018000018000086
:1028100018000018081FFFFC000000000000B6AF01
:102820000000000000000001800001000061003F86
:10283000810000010000010C0007FC00310C3FC1C9
:102840000C06010C04010C0C8108084308106208F6
:102850001022082FF4083814080008080011180086
:1028600020F8004030000000B5E700000000000044
:102870000018000010000010000010000FFFF0080A
:1028800010200810200810200810200FFFE008106A
:10289000200810200810200810200FFFE00810006A
:1028A00000100800100800100400180C000FF800B9
:1028B0000000D7D30000000000000000200FFFF050
:1028C00000006000008000030000140000180000F9
:1028D000180000180C7FFFFE0018000018000018F8
:1028E0000000180000180000180000180000180070
:1028F00000180000F800003000000000BCBC000020
:102900000004000007018006010006010006010026
:1029100006C10C3F3FF0060100060100060100065B
:10292000FFF80708103E083026042006046006025F
:10293000400602C0060180060380060C601E103EA1
:102940000CE00C000000CAF5000000000000001CB4
:10295000000019800018E000186000182800181CFA
:102960003FFFE0003C00007C00005A0000DA00005D
:1029700099000119800318C0061860041838081857
:102980001E30180840180000180000180000000051
:10299000C8AB0000000000000000000300000003BE
:1029A00080000007800000068000000C4000001C32
:1029B0002000001830000030180000600C0000C03B
:1029C0000700018003C0030002F807FFFF7C080135
:1029D00080903001800040018000000180000001F3
:1029E00081000001838001FFFFC000018000000121
:1029F00080000001800000018000000180000001D3
:102A00008010000180381FFFFFFC00000000000064
:102A10000000B6AF00000000000000000000080049
:102A200000000E0000000C00000C0C003FFE0C002B
:102A300010000C0000000C0000000C180000FFFC4F
:102A400000020C1800070C183FFF8C1801C00C186E
:102A500001C00C180180081803000818021018188B
:102A600006081818040C1018080610181006301064
:102A70002FFB20103E0360101002C0300000803099
:102A800000010C30000203E0000C01E000100080A7
:102A900000000000B5E70000000000000000000397
:102AA000000000038000000300000003000000039A
:102AB00000000003000007FFFFC0060300C006037C
:102AC00000C0060300C0060300C0060300C00603E2
:102AD00000C007FFFFC0060300C0060300C00603D6
:102AE00000C0060300C0060300C007FFFFC00603C6
:102AF000008006030000000300100003000800032C
:102B00000008000300180003801C0001FFF800000B
:102B1000000000000000D7D300000000000000000B
:102B200000000000000000C003FFFFE0000001E023
:102B30000000030000000600000018000000300044
:102B40000001C0000001C0000001800000018010F1
:102B5000000180383FFFFFFC000180000001800081
:102B60000001800000018000000180000001800061
:102B70000001800000018000000180000001800051
:102B80000001800000018000003F8000000700007D
:102B90000002000000000000BCBC000000000000BB
:102BA00000000180080001C00E0001800C000180BF
:102BB0000C0001800C0001800C0001980C183FFFF4
:102BC000FFFC01800C0001800C0001800C000180E2
:102BD0000C00018C0C2001B3FFF001C080600F805D
:102BE00080603D8040C0318040C0018021800180F4
:102BF00021800180330001801E0001800C000180D3
:102C00001E00018037000180E3C01F8380F8078E1B
:102C1000007C0230000000000000CAF50000000047
:102C200000000000000100000001C00000018C0055
:102C30000001870000018380000181800001808005
:102C4000000180303FFFFFF81003C0000007C00004
:102C50000007A000000DA000000D900000199000DA
:102C60000019980000318C000061860000C18700C7
:102C700000818380018181C0030180F00401807C98
:102C80000801803810018010600180000001800080
:102C9000000180000001000000000000BC2C0008C2
:102CA000000000201000000028010008CC2C0008C3
:102CB00010000020B80A00004401000801000000D4
:0C2CC00010000000000000000024F400E0
:04000005080000ED02
:00000001FF
